:020000040800F2
:10000000F03700200101000835220008C90100086E
:10001000AD1F0008151C0008452C0008000000005A
:100020000000000000000000000000008127000820
:10003000391E000800000000530100088527000851
:100040001B0100081B0100081B0100081B01000820
:100050001B0100081B0100081B0100081B01000810
:100060001B0100081B0100081B0100081D1C0008E3
:10007000351C00084D1C0008651C00087D1C00088C
:10008000951C0008AD1C00081B0100081B0100089E
:100090001B0100081B0100081B0100081B010008D0
:1000A0001B0100081B0100081B0100081B010008C0
:1000B0001B010008A52800081B0100081B010008FF
:1000C0001B0100081B0100081B0100081B010008A0
:1000D0001B01000861290008712900088129000816
:1000E0001B0100081B0100081B010008DFF80CD0F1
:1000F00000F024FF00480047C5130008F037002037
:100100000648804706480047FEE7FEE7FEE7FEE7B1
:10011000FEE7FEE7FEE7FEE7FEE7FEE799270008B9
:10012000ED000008EFF3108072B6704780F310887E
:100130007047324A1368012B04D04FF0010313605B
:100140002F4A10602F4A11602F484FF080510160F4
:100150007047EFF3108272B62848016891B14FF0F2
:10016000000101602648016829B1EFF3098121E906
:10017000F00F00680160234909680968B1E8F00FD1
:1001800081F3098882F310884EF0040E70471D49F0
:1001900008601B494FF00000086018494FF001004B
:1001A00008601A481A49D0F8002041EA02010160AB
:1001B00015484FF08051016016480068006880F3D0
:1001C000088861B662B670471EF0040F0CBFEFF3EB
:1001D0000880EFF3098020E9F00F40F804ED1EF0ED
:1001E000040F0CBF80F3088880F3098800B504F081
:1001F000B1FC5DF804EB4EF0040E70477C2000204B
:10020000E01E0020E81E002004ED00E020ED00E0EC
:100210000000FFFF08ED00E0A0F14101192900D81E
:100220002030704740EA01039B0703D009E008C96A
:10023000121F08C0042AFAD203E011F8013B00F8AB
:10024000013B521EF9D27047D2B201E000F8012BF7
:10025000491EFBD270470022F6E710B513460A4646
:1002600004461946FFF7F0FF204610BD30B505469D
:100270002A460B4612F8010B13F8014B08B1A042B5
:10028000F8D01CB1002802D06D1CF1E7284630BD23
:1002900010B5044604E00B7800F8013B03B1491C9B
:1002A000521EF8D2204610BDCAB2401E10F8011FDF
:1002B0008A4202D00029F9D100207047421C10F870
:1002C000011B0029FBD1801A704710B5002200E005
:1002D000521C835C8C5CA34201D1002BF8D1D8B2B4
:1002E000E1B2401A10BD30B504460020034600E0DC
:1002F0005B1C934203D2E05CCD5C401BF8D030BD68
:1003000030B505460020034600E05B1C934205D251
:10031000EC5CC85C201A01D1002CF6D130BD002263
:10032000CBB20178994200D10246401C0029F8D195
:10033000104670470FB400B58DB010A909900B900E
:1003400000914FF0FF300A9000200C900548069075
:10035000054807906A4609A80F9900F065FC0DB0A2
:100360005DF814FB450C0008630C00082DE9FF4FF5
:10037000087883B09946FF2805D0491C2D2804D061
:100380000024002008E000200BE00124F9E700EB46
:10039000800003EB4000491C0B78FF2BF7D104B120
:1003A000404200230293147819461D462D2C01D09B
:1003B0002B2C04D1521C2D2C13D000240294AA46BD
:1003C0001478FF2C0FD00A25A3FB057801FB0581CB
:1003D0004FF0000C03FB0C11521CE3194AEB010116
:1003E000EEE70124EAE7814453EA010002D019F55F
:1003F000C87F06DA03980021C0E9001107B0BDE804
:10040000F08F0025AE4E2F46DFF8B882184600F078
:1004100059FDCDE90001B9F1000002DAC9F100048B
:1004200000E004460023A74A1AEB030B42EB045AF0
:1004300012E0E00707D02A4633463846414600F02E
:10044000F9F9074688462A4633461046194600F011
:10045000F1F905460E466410002CEAD1DDE90001F1
:10046000B9F1000F5A46534606DA00F055FA3A46FB
:10047000434600F051FA05E000F0DCF93A46434605
:1004800000F0D8F9029A0AB181F00041039AC2E95A
:100490000001B3E72DE9FF4F1F468DB0D7E90146B4
:1004A0004FF0FF382E2045464FF000090B90B969F8
:1004B0006D1C0E988847396A824688470028F6D115
:1004C000BAF1FF3F0AD024F4D064002E11DDBAF156
:1004D0002B0F08D0BAF12D0F0BD102E0404611B01E
:1004E0008DE744F48064B9696D1C0E988847824694
:1004F000761E6946600501D52D2000E02B208DF881
:10050000000001F1010B0DF1200809E0B9696D1C33
:100510000E98884782460F9844F40074761E056052
:10052000002E02DDBAF1300FF0D00B998A453ED192
:1005300044F0800406E00F99681CA9F1010944F415
:1005400000740860B9696D1C761E0E988847824653
:100550003028F0D02BE00B998A4505D1200603D432
:1005600044F08004761E18E0504605F01FFE08B3E4
:100570000DF11302761EAAF1300044F40074934585
:1005800006D20BF8010B200607D5A9F1010003E004
:10059000200602D409F101008146A00502D50F9979
:1005A000681C0860B9696D1C0E9888478246002E49
:1005B000D1DC53E0002E51DDBAF1650F02D0BAF163
:1005C000450F4BD1A00549D5B9696D1C24F4407481
:1005D000761E0E9888478246002E0CDD2B2804D00C
:1005E000BAF12D0F07D144F48074B9696D1C0E98CF
:1005F00088478246761EE00501D52D2100E02B219B
:1006000008F8011BCDF82C8021E00DF12901761EA0
:1006100044F4007488450CD2AAF1300010F0FF00B9
:1006200088F8000002D10B99884509D908F1010822
:1006300006E0E00501D5244801E042F20F70814652
:10064000B9696D1C0E98884782460F980560002E88
:1006500004DD504605F0AAFD0028D6D1F9690E98B0
:100660008847FF208BF8000088F8000000200690E3
:1006700007904B466A4608A906A8FFF777FEA00533
:1006800002D46FF001002AE714F0240F0AD0E0072B
:1006900014D1DDE906123868031D3B600068C0E92B
:1006A00000120BE0DDE9060100F023FA0146E00745
:1006B00004D13868021D3A600068016028460EE7E0
:1006C000000014400000F03FF1D8FFFF70B506466F
:1006D00005F040FC046805460A220021304600F07F
:1006E00025FB2C6070BD2DE9FE4F804681EA03009A
:1006F000C00F0C46009021F0004123F00045B8EBFC
:100700000200A94105D24046214690461C460B46B0
:10071000024623F00040104347D0270DC7F30A00DC
:10072000C3F30A510290401A019040286BDAC3F3D8
:10073000130040F4801B0098924620B10023D2EBB6
:10074000030A63EB0B0B01985946C0F14002504677
:1007500000F032FA06460D4650465946019A00F01E
:100760004AFA10EB08006141002487EA115284EA3A
:10077000E7731A4340D0009A62B3019A012A4FEA04
:10078000075215DC001B61EB02014FF0004202EA48
:100790000752CDE90042001C41F5801132462B463C
:1007A00000F042FB03B0BDE8F08F40462146F9E778
:1007B000001B61EB0201001C41F5801300185B4136
:1007C0002018A2F5001747EB030140EAD570B619CF
:1007D0006D4111E06D084FEA360645EAC0754FEAF3
:1007E0000752001B61EB0201001C41F58011490812
:1007F0004FEA30000019514132462B4603B0BDE8A4
:10080000F04F00F002BB0098012240000023D0EB23
:10081000020263EBE073009821464FEAE074B8EB04
:10082000000061EB0401E9E783F000435BE781F03E
:10083000004158E72DE9FE4F81EA030404F000442B
:1008400021F0004100944FF0000B23F0004350EAE8
:1008500001045ED052EA03045BD0C3F30A54C1F32F
:100860000A552C44A4F2F3340194A0FB0254C1F3C2
:10087000130141F48011C3F3130343F4801301FB0C
:10088000024400FB034E840A970A44EA815447EA73
:100890008357A4FB076802958D0A05FB07854FEA7D
:1008A000932C04FB0C542705029D4FEA065847EA97
:1008B0001637B5EB08056EEB070C870E920E47EA6C
:1008C000811742EA8312A7FB0201B6EB0B0164EB2E
:1008D00000042B0D43EA0C335E1844EB1C50DA463F
:1008E0005146E7FB0201C5F313044FEA0B3343EA19
:1008F00014534FEA0432019C43EA0603A4F10C04AA
:100900000294009CCDE900B400F08EFA03B0BDE87B
:10091000F08F00200146F9E72DE9F04D81EA03044C
:1009200004F0004B21F0004514464FF0000A23F07C
:10093000004150EA050220D054EA01021DD0C5F35F
:100940000A570246C5F31303C1F31300C1F30A5655
:1009500040F4801543F48013A7EB0608101BD6461D
:1009600008F2FD3873EB050002D308F1010801E03D
:1009700092185B41B8F1000F03DA00200146BDE890
:10098000F08D00204FF48011064684460EE0171BC0
:1009900073EB050705D3121B63EB050306434CEA13
:1009A000010C49084FEA300092185B4150EA0107F8
:1009B000EDD152EA030012D082EA040083EA050175
:1009C000084305D0101BAB4106D20122002306E0EC
:1009D00000224FF0004302E06FF0010253101AEBC7
:1009E00006004CEB085110EB0A0041EB0B01BDE88F
:1009F000F04D00F00ABA30B5041E71F1000404DBBA
:100A00004FF00044404264EB0101141E73F10004F6
:100A100005DB1C464FF00043524263EB0403801A8F
:100A2000994101D3012030BD002030BD30B5041EF6
:100A300071F1000404DB4FF00044404264EB01011B
:100A4000141E73F1000405DB1C464FF000435242B4
:100A500063EB0403101A8B4101D3012030BD002049
:100A600030BD30B5041E71F1000404DB4FF00044CA
:100A7000404264EB0101141E73F1000405DB1C46C7
:100A80004FF00043524263EB040342404B401A4391
:100A900001D0002030BD012030BD0EB540F2334101
:100AA00002910021CDE900110A460B4600F0BCF985
:100AB00003B000BD70B5C1F30A5201F00045002437
:100AC000C1F3130140F2FF3341F480119A4201DA7D
:100AD000002070BD40F233439A42A2F2334203DC5D
:100AE000524200F078F800E090402C43F1D04042B0
:100AF00070BD01F0004330B421F0004150EA010222
:100B000006D00A0DA2F56072C1F31301002A02DCBF
:100B100030BC00207047440F44EAC104C100E01813
:100B200030BC00EBC25000F039B930B50B4601467D
:100B300000202022012409E021FA02F59D4205D37C
:100B400003FA02F5491B04FA02F52844151EA2F126
:100B50000102F1DC30BD2DE9F05F05460020924630
:100B60009B4688460646814640241BE0284641466F
:100B70004746224600F02FF853465A46C01A914184
:100B800010D311461846224600F016F82D1A67EBCE
:100B900001084F4622460120002100F00DF817EB16
:100BA00000094E41201EA4F10104DFDC4846314615
:100BB0002A464346BDE8F09F202A04DB203A00FA8B
:100BC00002F1002070479140C2F1200320FA03F3A4
:100BD000194390407047202A04DB203A21FA02F0A2
:100BE0000021704721FA02F3D040C2F12002914067
:100BF000084319467047202A06DBCB17203A41FAF2
:100C000002F043EAE07306E041FA02F3D040C2F199
:100C100020029140084319467047000002681144C1
:100C20001378016018467047D16004495161044946
:100C3000116200211161114600F0A6B91D0C0008D7
:100C4000750F0008426842B1016811F8013B23B1F9
:100C5000521EC0E90012184670470121C160881E6B
:100C6000704742685AB1C368016843B983688B42D0
:100C700005D0491E521CC0E90012002070474FF0F9
:100C8000FF3070470FB40B0010B58AB00FA9009168
:100C90000E994FF00004234ACC60214CCDE9064266
:100CA00000D004236FF00042CDE901321E4A0892C1
:100CB00002466B460020FFF7EDFB0AB010BC5DF862
:100CC00014FBF0B585B007464FF0FF300091CDE939
:100CD00001011E46002015460C4604903B466A461C
:100CE000314604A8FFF7CEFF04990346601825B1EA
:100CF00009B1024600E022462A6000290ED0002BEE
:100D000002DD0099814209D00094001BCDE9010465
:100D10003B466A46314604A8FFF7B4FF05B0F0BD74
:100D2000450C0008630C0008750F00082DE9F0471A
:100D300091460F4680460446002614F8015B2DB10B
:100D400000F014F90068405DC007F6D12B2D02D0E9
:100D50002D2D18D0641E4A463946204600F0AAFAC6
:100D600027B13968A14201D1C7F8008071054FF061
:100D700002040BD54042002803DD05F0EBF80460C7
:100D8000A007BDE8F08746F48066E4E70028F8DABB
:100D900005F0E0F804606FF00040F2E70029A8BF1A
:100DA0007047401C490008BF20F00100704710B494
:100DB000B0FA80FC00FA0CF050EA010404BF10BC49
:100DC000704749B1CCF1200421FA04F411FA0CF176
:100DD00018BF012121430843A3EB0C01CB1D4FEAAF
:100DE00000614FEA102042BF002010BC704700EBAA
:100DF000C35010440029A4BF10BC7047401C4900D8
:100E000008BF20F0010010BC704710B5141E73F12C
:100E1000000408DA401C41F1000192185B411A43BA
:100E200001D120F0010010BD2DE9F04D92469B4606
:100E300011B1B1FA81F202E0B0FA80F220329046AC
:100E4000FFF7BAFE04460F4640EA0A0041EA0B01EA
:100E500053465A46084313D0114653EA010019D0AD
:100E6000C8F140025046FFF7B6FE05460E46504612
:100E700059464246FFF7A0FE084305D0012004E092
:100E800020463946BDE8F08D0020054346EAE0766D
:100E90002C4337430A986305E40AA0EB08000022BC
:100EA000FD0A44EA47540A3002D500200146E9E72A
:100EB000010510196941DDE9084500196941BDE8DE
:100EC000F04DA2E70EB540F2334202920022CDE986
:100ED00000221346FFF7A8FF03B000BDC1F30A527A
:100EE000C1F3130140F2FF3341F480119A4202DA58
:100EF00000200146704740F233439A42A2F2334247
:100F000002DC5242FFF767BEFFF756BE30B5041E43
:100F100071F1000404DB4FF00044404264EB010136
:100F2000141E73F1000405DB1C464FF000435242CF
:100F300063EB0403994208BF904230BD1CB50948D9
:100F40000090094801900546009C06E0E06840F0EA
:100F5000010394E8070098471034AC42F6D3FFF73A
:100F6000C9F80000186E0008386E00080048704785
:100F7000686A000810B50446FFF7F8FF0068005DD6
:100F800000F0010010BD00002DE9F34F8BB04FF0D1
:100F9000000801F10C000C464FF0010B46460DF124
:100FA000080A01906269012101989047051E2DD021
:100FB000252D2CD0216A8847C0B162690121019892
:100FC0009047216A88470028F7D1411E626901983D
:100FD000904700E0761CA1690B988847216A8847F2
:100FE0000028F7D1E1690B988847DBE7A1690B98E6
:100FF00088470746A84201D1761CD3E7E1690B98E0
:1010000088477F1C02D1B8F1000F6FD046E100275E
:1010100062693D463946019890472A2804D16269A1
:101020000121019890470125DFF88492626901212E
:1010300001989047A0F130010A290AD24F45E5DC1A
:1010400007EB870100EB4107303FDFD445F0100587
:10105000ECE7E90601D46FF000476C280AD04C2871
:1010600014D0682815D06A280DD074281CD07A288E
:101070001AD01DE062690121019890476C2802D0C6
:1010800045F0040514E045F002050DE045F02005AB
:101090000AE06269012101989047682802D045F072
:1010A000080505E045F40065626901210198904753
:1010B000C4E9015765283DD019DC58287AD00CDCEA
:1010C000452837D004DC252826D0412831D131E00D
:1010D00046282FD047282CD12CE05B2877D06128D8
:1010E00028D063287CD0642823D15AE0D0E06F2830
:1010F00048D008DC66281DD067281BD0692821D07D
:101100006E2816D127E0702845D0732868D075283E
:1011100047D078280DD14DE0A1690B988847054646
:1011200025283FF469AFE1690B9888476D1C3FF4AF
:101130006AAFB3E023466A466FF001000B99FFF7F0
:10114000A9F99EE045F040006060A80723464FF0F3
:10115000000236D43EE0E8077FF447AF2068011D67
:1011600021600068290501D506701BE7290701D514
:10117000068017E7A90703D5F117C0E9006111E759
:1011800006600FE745F040006060A80723464FF077
:10119000080216D41EE040F60E0125EA0100606048
:1011A00016E045F040006060A80723464FF00A02B1
:1011B00007D40FE045F040006060A80708D523463B
:1011C00010226FF001000B99AFF3008059E007E0A7
:1011D000234610226FF001000B99AFF3008050E01E
:1011E0004FF000094F464B46632802D05B2806D0DB
:1011F00040E0E80601D40120A06001273AE06269DE
:101200000121019890475E2805D14FF001096269DC
:10121000494601989047216939B900210A46534649
:1012200043F82120491C0829FADBB0B3216969B9C8
:10123000C11700EBD16253110AEB830122F01F02A8
:10124000821A01200B68904003430B606269012100
:10125000019890475D28E8D1B9F1000F09D000202E
:10126000514651F82020D24341F82020401C082844
:10127000F7DB02AB224600976FF001000B99AFF34A
:10128000008000280CDA401C08D1BBF1000F05D00B
:101290004FF0FF300DB0BDE8F08FFFE74046F9E7B3
:1012A000E90701D108F1010806444FF0000B79E687
:1012B000CCCCCC0C2DE9F05F824600780027154697
:1012C0008B460AF10104B946302801D09DB113E0E4
:1012D00014F8010B0127782803D0582801D045B114
:1012E0000AE00DB1102D07D10027102514F8010BCD
:1012F00002E0082500E00A250026B0460EE005FBC6
:10130000080005FB06F1012701EB10461FFA80F8E3
:10131000B6F5803F00D3B94614F8010B294600F01A
:1013200018F80028EBDABBF1000F05D00FB1641EEE
:1013300000E05446CBF80040B9F1000F06D004F0AD
:1013400009FE02210160C81EBDE8F09F48EA064080
:10135000FAE73A2800D2303820F02002412A01D39F
:10136000A2F13700884201D34FF0FF30704770B5CB
:101370008C1810F8015B15F0070301D110F8013B40
:101380002A1106D110F8012B03E010F8016B01F8C7
:10139000016B5B1EF9D12B0705D40023521E0DD41F
:1013A00001F8013BFAE710F8013BCB1A921C03E06D
:1013B00013F8015B01F8015B521EF9D5A142D8D3A5
:1013C000002070BD10B584B0FEF7ACFE03F098FBB2
:1013D00003F0BCFE03F022FF03F0DAFE41F6182210
:1013E0004FF48061C2F2000241F618640A20CDE990
:1013F0000021C2F2000446F6FD5143F651324FF08F
:10140000140C0290C0F60001C0F600022046002332
:10141000CDF80CC004F006F8204604F0B7F803F04D
:1014200005FF03F0D9FF03F0DDFE002004B010BD7E
:101430002DE9F047C2B0044600294FF0010018BF63
:10144000002C02D142B0BDE8F08715464B9A002A25
:10145000F8D06068A0B14A9F8A46A94698460F2FE7
:1014600012D83901405818B1154604F077FD2A46C4
:101470004CAB02A84FF48071019304F051FD16E0CB
:10148000052042B0BDE8F0874CAB02A84FF4807154
:10149000019304F045FD6068002700BF016831B189
:1014A0000137102F00F11000F8D14FF0FF37781CF2
:1014B00021D002A8FEF702FF461C304604F07CFD56
:1014C000E8B102A932460546FEF7E2FE60683E0139
:1014D0008059002818BF04F041FD606800EB071137
:1014E00085510420C1F804A0A1F80890C1F80C802F
:1014F00042B0BDE8F087062042B0BDE8F087072083
:1015000042B0BDE8F0870000032101707047000081
:10151000012101707047000070B5D8B104468069A0
:101520000178002908BF70BD00250570D4E90301CA
:101530004FF48072006A03F013FAA66856F835106B
:1015400031B12069FEF792FE28B90135102DF5D191
:101550000320207070BD014606EBC50042680AB149
:1015600020469047A06900210170E068006A03F0FE
:10157000EDF920694FF48071FEF76DFEE068BDE87B
:10158000704004F0CFBB0000027D102A04D300217C
:10159000017503210170704710B582B043681101D5
:1015A000595869B103EB02135A681B894FF0000CBC
:1015B0000446CDF800C000F031F838B102B010BDDB
:1015C000002101750321017002B010BD6168227D08
:1015D000204601EB0211C96809B188472046017D08
:1015E0000131017502B010BD10B5044680B140F65E
:1015F0001C10C2F2000040F20C0140F25C22C2F268
:101600000001C2F20002E0600020C4E9011220756E
:10161000204604F097FB0220207010BD2DE9F04712
:10162000C0B0044680699A4600230370E068914682
:10163000006A884603F08AF920694FF48071FEF74A
:101640000AFEE06804F06EFB6F4638464FF4807186
:10165000FEF701FE35A238464FF48071434604F090
:1016600031FC3846FEF72AFE010410D086B2002570
:10167000E0688021006801F0FDF90028F8D0E068FA
:10168000795D006801F0DAFA0135B542F0D1DDF894
:10169000208100BFE0684021006801F0EBF90028DC
:1016A000F8D004F013F8074603E000BF0A2003F067
:1016B000FFFE04F00BF8C01B504533D2A069007840
:1016C0000128F3D1D4E903014FF48072006A03F0DA
:1016D00047F926694846FEF7F1FD034630464FF4C8
:1016E00080714A4601F042FB0028DFD0B8F1000FBC
:1016F00005D0216940464FF48072FEF793FDA06942
:1017000000210170E068006A03F020F920694FF4BD
:101710008071FEF7A0FDE06804F004FB002040B0FB
:10172000BDE8F087012040B0BDE8F08725730000D8
:1017300040F20C14C2F20004204600F005F96420C7
:1017400003F0B6FEF8E7000070B584B040F68C42B6
:101750000A204FF44061C2F20002CDE9002102905C
:1017600040F60C4041F231726425C2F200001DA126
:10177000C0F600020023039503F054FE28B940F69A
:101780000C40C2F2000003F001FF42F29004C2F2EA
:10179000000445F6FD4202264EF6602514A1C0F66F
:1017A000000220460023CDE9005604F045F820460B
:1017B00004F05CF842F2BC04C2F2000445F6115297
:1017C00042F210750CA1C0F6000220460023CDE9BC
:1017D000005604F031F8204604B0BDE8704004F033
:1017E00045B800BF61745F74687265616400000091
:1017F00074696D657231000074696D657232000044
:101800002DE9F041A6B0804601A802F099F801F058
:10181000FBFC002800F07D8040F23844054600279C
:10182000C2F2000403E000BF0C37C02F38D0E659E5
:10183000002EF9D0E019C17A0129F5D0817A062964
:10184000F2D8DFE801F0040B0B2716200B004268EA
:1018500003892846314600F029FDE5E74068007815
:10186000FFF71BF902460B462846314602F008F8FE
:10187000DAE74068314602782846002A18BF01227C
:1018800001F0DAFFD0E7426803892846314601F0CB
:1018900099FFC9E742682846314602F017F8C3E7C6
:1018A000019846F68A51C0F600012A4601F048FB2D
:1018B00001A802F063F8012825D1BDF8147046F69E
:1018C000AB4206AE049DC0F6000213A33046802151
:1018D000009704F0F7FA46F64F520024C0F60002D3
:1018E000404631464FF4FA730094FFF797FE50B923
:1018F00046F66352C0F60002404629464FF4FA739A
:101900000094FFF78BFE01A802F006F8032088F888
:10191000000026B0BDE8F081247379732F3249743A
:10192000733577713861332F6C6F745F64657669D6
:1019300063652F7468696E672F70726F706572745B
:10194000792F706F7374000060B10178072988BF28
:10195000704740F2E022C2F2000202EBC101496886
:1019600001B10847704700002DE9F04FDDF824A0D1
:10197000BAF1000F52D046F680384FF0000CC0F696
:1019800000084FF000094FF0000E05E009F10109D1
:101990000BF1010ED64547D20EF1010BDA4588BF97
:1019A000D346ABEB0E0403EB0E050026AF5D202FF4
:1019B00006D10136B442F9D1DA4506D193E000BF31
:1019C0000EEB060BDA4500F08E80AAEB0B07022F18
:1019D00008D313F80B700D2F04D103EB0B077F789E
:1019E0000A2FD5D013F80B400A2CD1D096B93D2C34
:1019F00004D1BCF1010F0DD80CF1010C67B2002F1E
:101A000008D418F804607F2E04D03F2EBED8BCF155
:101A1000000FBBD06FF02B00BDE8F08F4FF0000936
:101A20004FF0000C4FF0000EB9F1000F5FD04FEAFD
:101A3000D90409F0070504EB440405EB4505072626
:101A400006EB4505CCEB440707EBD50400286FF007
:101A5000290C4FD0A1424DD3BEF1000F82463FD09A
:101A600046F6803C40F2090903210024C0F6000C30
:101A70004FF00108C0F240098246002707E000BF8E
:101A80002546BEF1010E03F101032C4628D01D7836
:101A9000A5F10A06162E04D808FA06F616EA090F6A
:101AA000EED11CF805603D2D06F03F0507F101075A
:101AB00008BF0139042F45EA8415E2D100294FEA15
:101AC00084141CBF260C0AF8016B022924BF240AC7
:101AD0000AF8014B0027032928BF0AF8015BD0E769
:101AE000AAEB000404E0DE46B9F1000F9FD1002408
:101AF0004FF0000C60461460BDE8F08F2DE9F04314
:101B0000DDF81CC0BCF1000F15D04AF6AB25CAF6B3
:101B1000AA25ACFB0556740804EB440EBCEB0E057D
:101B20004FF0010518BF05EB5604B4F1804F06D302
:101B30004FF0FF300BE000201060BDE8F08300287C
:101B40004FEA840418BFA14206D844F00100106097
:101B50006FF02900BDE8F08346F60048BCF1030FA2
:101B6000C0F6000804D200248646644526D348E027
:101B7000051F00241F5D1E19B90896F8019018F87A
:101B80000110B67805F8041F4FEA191167F3051123
:101B900018F8011003346970B10969F3850118F868
:101BA00001107445A97006F03F0118F80110E970A2
:101BB000E0D305F1040E2344644522D21D7801349C
:101BC000A908644534BF5B78002318F8011005F0BC
:101BD00003058EF80010190941EA051118F80110E3
:101BE0003D258EF8011064454FF03D043CBF03F0E5
:101BF0000F0118F821408EF802408EF803500EF1C4
:101C0000040EAEEB0000106000208EF80000BDE86E
:101C1000F0830000FEE70000704700000021C4F2DE
:101C20000201086800F00F004860FFF7F5BF0000F0
:101C3000704700000021C4F202010868C0F30310DD
:101C400002014A60FFF7F4BF704700000021C4F2B0
:101C500002010868C0F3032002024A60FFF7F4BFE4
:101C6000704700000021C4F202010868C0F303308D
:101C700002034A60FFF7F4BF704700000021C4F27E
:101C800002010868C0F3034002044A60FFF7F4BF92
:101C9000704700000021C4F202010868C0F303503D
:101CA00002054A60FFF7F4BF704700000021C4F24C
:101CB00002010868C0F3036002064A60FFF7F4BF40
:101CC00002684FF6FE7C42F00103002908BF02EAD9
:101CD0000C0303607047000002684FF6FE731A4061
:101CE0007F230421C4F20203C4F202010260002235
:101CF0009842026042608260C26016DC4322C4F2F5
:101D0000020290422CDC0822C4F20202904251D01E
:101D10001C22C4F20202904256D03022C4F20202C7
:101D200090425ED14FF4706058E040F22F42C4F20E
:101D30000202904226DC8022C4F2020290423BD092
:101D400040F20842C4F2020290423FD040F21C42EC
:101D5000C4F20202904244D101F58061F0203DE0DE
:101D60004422C4F20202904236D05822C4F2020247
:101D700090421CD06C22C4F20202904231D14FF446
:101D800070002BE040F23042C4F20202904216D0C2
:101D900040F24442C4F2020290421BD040F2584248
:101DA000C4F20202904218BF704701F580614FF4FF
:101DB000702013E00F2011E04FF070600EE001F58D
:101DC00080614FF4706009E0F02007E001F5806168
:101DD0000F2003E001F580614FF470400A68104362
:101DE00008607047406880B2704700002DE9F047F6
:101DF000026847F6F073D1E9026A9A4301F11007CD
:101E0000B0CF01F11C0E3243D1E900899EE80A509F
:101E10001A4322432A433A43114341EA0C0141EA5F
:101E20000E010160C0F804A0C0F80880C0F80C9052
:101E3000BDE8F0874160704770470000CA7802F043
:101E40000F0CD30644BF8B784CEA030C2DE9F04706
:101E500009880B0624D086465EF8143B00F1100872
:101E600000254FF0010A4FF00F09002406E000BFE3
:101E700037600134082C05F1040510D00AFA04F784
:101E80000F42F6D009FA05F6B3430CFA05F63343D0
:101E9000282A7646ECD0482AEBD14646E8E703608C
:101EA000B1F5807F38BFBDE8F087436800F1100EC0
:101EB00000F1140A00254FF480794FF00F08002735
:101EC00006E000BF26600137082F05F1040510D099
:101ED00009FA07F60E42F6D008FA05F4A3430CFA05
:101EE00005F42343282A5446ECD0482AEBD1744603
:101EF000E8E74360BDE8F087B0B540F2040CC4F2F7
:101F0000010C0CF118031A46B0F1FF3FC4BF0422C4
:101F1000C4F20102146800F44012B2F5401F1FFA27
:101F200080FE08D1DCF8005024F0706225F0706467
:101F3000CCF8004011E0C20206D46FF00F0202EAB2
:101F400050420EFA02F204E0C0F30342032505FA00
:101F500002F224EA020242F070626FF00F0404EA17
:101F6000504400290EFA04F518BF2A43B0F1FF3F90
:101F7000C8BF63461A60B0BD8068084018BF012022
:101F80007047000041F6C864C2F200042068A188CE
:101F9000FFF7F2FF2072642003F08AFAF6E70000F0
:101FA00001460020022208750A707047FEE7000013
:101FB00070B582B00E46044601200121154600F09E
:101FC00081FB40F20020C0F230000121FFF794FFB6
:101FD000A4F18040A0F584304FEAB020042810D846
:101FE00009A151F82000012100F06CFB03208DF8BD
:101FF000060001A92046ADF804608DF80750FFF7F0
:102000001DFF02B070BD00BF04000000080000000A
:102010001000000020000000400000002DE9F04109
:1020200090B00446B0F80C80006844F20041C4F25D
:10203000000188424ED044F60001C4F200018842FB
:1020400025D043F60001C4F20101884240F0E68049
:102050004FF48040012100F035FB0120012100F008
:102060000DFB40F60005C4F2010528464FF400714F
:102070001822FFF79DFF28464FF480610422FFF7E6
:1020800097FF43F60407C4F2010725213EE04FF411
:102090008020012100F0FEFA0120012100F0EEFA7B
:1020A00040F60000C4F2010000F5806528464FF4B8
:1020B00080611822FFF77CFF28464FF4006104225C
:1020C000FFF776FF44F20440C4F2000000F5806799
:1020D00027211BE044F204474FF400300121C4F2F1
:1020E000000700F0D7FA0120012100F0C7FA40F6FE
:1020F0000005C4F20105284604211822FFF758FF05
:10210000284608210422FFF753FF262120688DF876
:102110003C1000F057FCD4E9000100250B914FF46E
:1021200040210D910BA90C95ADF8385000F02AFD17
:10213000206840F224410122012600F00BFD2068B6
:1021400040F22661002200F005FD206840F2255192
:10215000012200F0FFFC4FF4A06000F09DF80FA8F2
:10216000ADF83D508DF83F6000F066F8A06930B3DF
:10217000206840F22551002200F0ECFCA069FFF736
:10218000ABFDD4E9051001AA033182E822018021C8
:10219000CDE90515202108914FF40051CDE909152D
:1021A0006946049507950097FFF720FE20684021B7
:1021B000012200F0FFFBA0690121FFF781FDE0692A
:1021C00010B3FFF789FD216822690431CDE90012BF
:1021D000E2891021CDE9021200218022E069CDE9D7
:1021E00005214FF400520491CDE90711CDE90921F1
:1021F0006946FFF7FBFD20688021012200F0DAFB31
:10220000E0690121FFF75CFD54F8240B012100F087
:10221000C7FB04A12046012202F0C8FD10B0BDE8B2
:10222000F08100BF756172745F72785F6D7574655F
:10223000780000007047000010B5C17800294EF208
:102240000011CEF200011AD04EF60C52CEF200026E
:102250001268072323EA12220F23C2F1040C23FA87
:1022600002F24378847890F800E003FA0CF32240FD
:102270001A43120101EB0E0383F8002300E08031C2
:102280000078012300F01F0203FA02F2C0F34210AB
:1022900041F8202010BD000040F080604EF60C5147
:1022A00040F0FD70CEF20001086070472DE9F04F5C
:1022B00081B09B4614468846814600F0A5FF002861
:1022C00000F078808246BBF1000F64D00026CDF884
:1022D000009002E001365E455DD006EB460054F802
:1022E0002050002DF6D004EB8007F87A0128F1D0B9
:1022F000B87A0628EED8DFE800F00F040448192366
:10230000040078680078FEF7C8FB02460B4650468A
:10231000294600F051FEDDE700F076FF002849D0A5
:10232000D7E900123B89FFF7C1FFD3E77868294658
:1023300002785046002A18BF012200F09BFDC9E731
:1023400000F018FFB0B305463889C14690B14FF090
:10235000000800BF786810F80800FEF79EFB00F048
:102360001DFF0146284600F0D9FD388908F1010813
:102370008045EFD3396850462A4600F0E1FDC84653
:10238000DDF80090002DA5D114E07A68504629466A
:1023900000F086FE9EE700F037FF08A15246044693
:1023A00000F0CEFD48464146224601B0BDE8F04F60
:1023B00000F0C6BD01B0BDE8F08F00BF76616C755E
:1023C000650000002DE9F04FD5B0814600204A900D
:1023D000B9F1000F4FF0010000F014818B46002985
:1023E00000F0108145F29541C5F6415192468A426E
:1023F000C0F00881002B00F005815F99002900F0F2
:10240000018160997829C0F0FD801AAC619EDDF8E9
:102410007881204640211F46FDF71DFF3846FDF715
:102420004DFF05464AAA204640213B460095FFF74E
:102430009BFA08A84821FDF70EFF46F69E50C0F60D
:10244000000046B1CDE9000B78A208A84821534608
:10245000CDF8089009E0CDE9000B6CA208A848214E
:102460005346CDF80880CDF80C9003F02BFD2AAC34
:1024700020464021FDF7EFFE1AAD2846FDF71EFF6E
:102480000DF1200807464046FDF718FF0346284691
:1024900039464246009401F0B1F83AAF002638467A
:1024A00040214A96FDF7D7FE2046FDF707FF054677
:1024B0004AAA3846402123460095FFF71FFB3846BD
:1024C000FDF7FCFEC5B21C2DC0F078804BA801388A
:1024D000791E2A46CDE906A911F8013F013A00F814
:1024E000013F0E70F8D143F2252643F22529C0F2B0
:1024F0004606C0F230094FF000080DF5967A80F8D4
:10250000018005E021500320013D804400F050800F
:102510001AF8010B5FFA88F2A0F120011F2907EBDE
:1025200002041DD8DFE801F0161C1C101C32381CF8
:102530001C1C1C3E1C1C1C1F1C1C1C1C1C1C1C1CB6
:102540001C1C1C1C1C241C2C2046FDF7B7FE09F586
:102550004031D7E72046FDF7B1FE44F80090D2E7BE
:1025600020700120D0E72046FDF7A8FE2650CAE7DC
:102570002046FDF7A3FE43F22531C0F24401C1E736
:102580002046FDF79BFE06F58071BBE72046FDF770
:1025900095FE09F5A021B5E72046FDF78FFE09F568
:1025A000C021AFE72046FDF789FE09F59011A9E7A4
:1025B000DDE906A95FFA88F000213954619860B11D
:1025C00046F69E50C0F600000290DDE95F01CDE9BD
:1025D00000BA1CA24B46039711E05E9846F6A35240
:1025E000CDE9010A46F69E50C0F600000390DDE9F1
:1025F0005F01C0F600024B46CDF800B0049703F02F
:1026000061FC002055B0BDE8F08F00BF25640A25AD
:10261000730A70726F64756374732F25732F64650A
:1026200076696365732F25730A25730025640A256F
:10263000730A70726F64756374732F25730A257340
:102640000000000076657273696F6E3D2573267217
:1026500065733D70726F647563747325253246250A
:10266000732665743D2564266D6574686F643D2529
:1026700073267369676E3D2573000000002941F2DF
:102680001401C4F202010A680CBF22EA00001043E0
:1026900008607047002941F21C01C4F202010A6877
:1026A0000CBF22EA0000104308607047002941F285
:1026B0001001C4F202010A680CBF22EA00001043B4
:1026C00008607047002941F21801C4F202010A684B
:1026D0000CBF22EA0000104308607047002941F255
:1026E0000C01C4F202010A680CBF22EA0000104388
:1026F0000860704710B541F20404C4F20204226875
:1027000002F00C02082A41F20022C0F27A0212D131
:102710002368D4F800C0C3F3834E5FEACC330EF1D4
:10272000020C02D523689B0303D540F60012C0F2C9
:102730003D020CFB02F20260226846F67023C2F3EF
:102740000312C0F600039A5C0168D1404160226820
:10275000C2F302229A5C21FA02F282602268C2F37A
:10276000C2229A5C46F66C23D140C1602268C0F652
:102770000003C2F381329A5CB1FBF2F1016110BD3A
:102780007047000080B502F017FA02F0A5FFBDE81F
:10279000804002F01FBA000082B041F20400C4F28F
:1027A000020050F8041C002241F0010140F8041C12
:1027B0000168CFF6FF021140016050F8041C4FF68B
:1027C000FF72CFF6F662114040F8041C50F8041C6A
:1027D00021F4802140F8041C016821F4FE0101600D
:1027E0004FF41F01416000210191009150F8041C39
:1027F00041F4803140F8041C50F8041C01F400310D
:102800000091019901310191009919B90199B1F52E
:10281000A06FF1D150F8041CC1F340410091009920
:10282000012936D142F20001C4F202010A6842F0E5
:1028300010020A600A6822F003020A600A6842F085
:1028400002020A600168016001680160016841F4E8
:1028500080610160016821F47C110160016841F42C
:10286000E811016050F8041C41F0807140F8041C2C
:1028700050F8041C8901FBD5016821F003010160B7
:10288000016841F002010160016801F00C010829B2
:10289000FAD14EF60850CEF200004FF00061016010
:1028A00002B0704770B540F20044C4F20004204604
:1028B000012100F049F8002808BF70BD40F20C1655
:1028C000C2F200063078022834D840F60830C2F24E
:1028D000000001784A1C3D2902702BD306F5A07533
:1028E0002846FDF7EBFC01462846FDF7B4FC43F211
:1028F000356043F23121C3F63700C3F2334106F5A8
:102900009875C6E950102846FDF7D8FC01462846C0
:10291000FDF7A1FC46F26D10C6F66960C6F83001FD
:1029200041F6986046F64041C2F20000C0F6000150
:1029300002F05EF920460121BDE87040AFF300804F
:10294000C943018270470000028A80890A4000EA78
:10295000010018BF0122002818BF01201040704755
:1029600040F61C10C2F20000012100F0A3B80000E4
:1029700040F61C10C2F200004830022100F09AB864
:1029800040F61C10C2F200009030032100F092B813
:10299000090A012202FA01F1C943018070470000CF
:1029A0008289002918BF012122F4005242EA4131F4
:1029B00081817047002A828A0CBF22EA01011143FB
:1029C0008182704780B544F6FF31C4F2000188422D
:1029D0001EDD44F60041C4F2000188422CD045F2CD
:1029E0000001C4F2000188422ED043F60001C4F277
:1029F0000101884218BF80BD4FF480400121FFF7DC
:102A00006DFE4FF480400021BDE88040FFF766BEB8
:102A100044F20041C4F2000188421DD044F6000196
:102A2000C4F20001884223D14FF480200121FFF736
:102A30003DFE4FF4802016E04FF400200121FFF707
:102A400035FE4FF400200EE04FF480100121FFF717
:102A50002DFE4FF4801006E04FF400300121FFF707
:102A600025FE4FF400300021BDE88040FFF71EBE78
:102A700080BD00000088084018BF0120704700009A
:102A8000C1F342121423022A08BF1023012A08BFEF
:102A90000C2301F01F02C35A090A4FF0010C0088F1
:102AA0000CFA01F1084023FA02F118BF0120084096
:102AB0007047000070B582B0044600680D4640F2D1
:102AC0002441FFF7DDFF002841D0206840F2244177
:102AD000002200F03FF8206801880191818801916F
:102AE00040F22441FFF754FFA069A689FFF77AF965
:102AF0006169301A60810D70E07A616904F1240522
:102B00004870A07A6169887028464FF0FF3102F062
:102B1000B5F940B96169206A6289033101F05CFF4F
:102B2000284602F057F90121A06921720021FFF720
:102B3000C7F8A069A189FFF77DF9A0690121FFF716
:102B4000BFF8206840F22441012200F003F802B0EF
:102B500070BD0000C1F3421301F01F0C1421022BC1
:102B600008BF1021012B4FF0010308BF0C21002AE0
:102B700003FA0CF243580CBF23EA02021A434250F4
:102B80007047000070B586B00446008A0D46C988BB
:102B900020F4405008432082A0894EF6F3110840EB
:102BA000A9882A896B89084310431843A081A08A09
:102BB000A98920F44070084301AEA0823046FFF797
:102BC00099FD43F6000106F10800C4F201018C42B0
:102BD00008BF06F10C0000681922B4F90C1050432C
:102BE0002A680123B1F1FF3FC8BF022302FA03F1B3
:102BF000B0FBF1F048F21F51C5F2EB11A0FB01232D
:102C00005A096FF0630302FB0300B4F90C3003268A
:102C1000B3F1FF3FC8BF042600FA06F000F132000E
:102C2000A0FB01014FF00700C8BF0F2000EA5110C0
:102C300040EA0210208106B070BD00006FF35F21F2
:102C400081807047FEE70000002804BF0020704725
:102C5000C1B209B101200CE010F47F4102D0090A91
:102C6000092006E010F47F0107BF010E1920090CAE
:102C7000112046F68022C0F60002515C08447047DD
:102C8000F1B12DE9F041ADF5816D0E4604460846DF
:102C90007B21FDF709FB054630467D21FDF73FFB13
:102CA000002D18BF00280DD103202070012000271F
:102CB000002F0DF5816DBDE8F04118BF0020704771
:102CC00000207047A842EFD3401B461CB6F5806F2A
:102CD00003D9032020700220E9E70DF107002946FF
:102CE0003246FDF7D5FA0021815500F033FB90B351
:102CF0001DA1804600F0FCFA0028074618BF0127F6
:102D00002DD001690646204602F018FE0C280ED090
:102D1000052500BF642002F0CBFB3169204602F09C
:102D20000DFE0C281CBF013D5FEA0560F2D146F69E
:102D30008A51C0F60001404600F0D6FA30B140F2A8
:102D40003841C2F20001102200F02EFE404600F091
:102D50006FFA0420ACE700F0BBFA0320A7E7404677
:102D600000F066FA0420A2E7696400002DE9F0474C
:102D7000ADF5806D00284FF0000742D09246002A42
:102D80003FD0A3F101081D4688453AD20446042DE0
:102D90000ED8A1EB05080026A719384651462A4649
:102DA000FDF7A1FA68B301364645F5D9002728E0BA
:102DB00000206F4647F820500130B0F5807FF9D1F0
:102DC000B8F1000F08D0AAF10100424610F8013F07
:102DD00047F82320013AF9D16018A0EB05094C45CA
:102DE0000DD800BF204651462A46FDF77CFA38B17F
:102DF00014F8080057F8200004444C45F2D9002488
:102E0000274638460DF5806DBDE8F08780B500F0A7
:102E1000B9FEFEF799FC00F0A7FC4EF6FC50CEF28E
:102E20000000016841F08071016041F20001CEF2C2
:102E3000000100204860086840F0010201200A609B
:102E400080BD0000A0B10368002B08BF7047D0E927
:102E500001C1614508D200BF5A5C202A04D8013163
:102E60008C458160F8D16146614504BF01398160BC
:102E7000704700002DE9F04381B040F22039C2F2E2
:102E800000090E46D9F800108046282017468847CA
:102E9000044640B120462821FDF7DDF90220002F2D
:102EA00008BF0120E060B8F1000F18BF002E07D165
:102EB000204600F0BDF90024204601B0BDE8F083B3
:102EC000002CF5D03046FDF7F9F9D9F80010451C73
:102ED0002846884730B131462A460746FDF7A2F911
:102EE0001FB9E5E70027002FE2D0E068810520F454
:102EF000007504D4206A10B1D9F804108847D8F8B6
:102F000008002762E56030B1014600680028FBD167
:102F10000C606160D0E7C8F80840CDE7002818BF12
:102F2000002900D170478268002A04BF8160704781
:102F300010461268002AFBD101604860704700000B
:102F4000002818BF002900D170472DE9F04381B057
:102F500014466AB3054608468846FDF7AFF940F2C5
:102F60002039C2F20009D9F80010471C38468847BA
:102F700030B141463A460646FDF754F916B917E016
:102F80000026AEB1E068810520F4007704D4206A01
:102F900010B1D9F804108847A8682662E76030B1FC
:102FA000014600680028FBD10C60616000E0AC6065
:102FB00001B0BDE8F04370472DE9F04381B040F225
:102FC0002039C2F200090E46D9F8001080462820A8
:102FD0001F4615468847044638B320462821FDF78A
:102FE0003AF9082000224FF6FF73E060CFF6C07276
:102FF000C4F2DF1328463946C4E90657FDF716FD2B
:1030000068B90023CCF2E013284639460022FDF7C8
:10301000F2FC38B928463946FDF74CFD04E06FF064
:10302000004001E04FF000406061B8F1000F18BFB0
:10303000002E07D1204600F0FBF80024204601B006
:10304000BDE8F083002CF5D03046FDF737F9D9F80C
:103050000010471C3846884730B131463A4605468D
:10306000FDF7E0F81DB9E5E70025002DE2D0E068A6
:10307000810520F4007604D4206A10B1D9F8041038
:103080008847D8F808002562E66030B1014600683C
:103090000028FBD10C606160D0E7C8F80840CDE79C
:1030A0002DE9F04740F2203AC2F2000A8946DAF8E8
:1030B000001080462820174688470446E0B1204685
:1030C0002821FDF7C8F81020E06077B13846FDF7F9
:1030D000F5F8DAF80010461C3046884728B1394622
:1030E00032460546FDF79EF800E0002525611DB932
:1030F000204600F09DF80024B8F1000F18BFB9F188
:10310000000F05D1204600F093F80020BDE8F087BD
:10311000002CF7D04846FDF7D1F8DAF80010451C2E
:103120002846884730B149462A460746FDF77AF8CF
:103130001FB9E7E70027002FE4D0E068810520F4FD
:10314000007504D4206A10B1DAF804108847D8F862
:1031500008002762E56040B1014600680028FBD105
:1031600020460C606160BDE8F0872046C8F8084042
:10317000BDE8F08710B540F22030C2F200000168CF
:1031800028208847002808BF10BD28210446FDF7E5
:1031900062F820462021E16010BD000070B50D46A8
:1031A00040F22031C2F20001096806462820884713
:1031B000044638B320462821FDF74DF808200022A8
:1031C0004FF6FF73E060CFF6C072C4F2DF133046F3
:1031D0002946C4E90665FDF729FC68B90023CCF24D
:1031E000E013304629460022FDF705FC38B9304689
:1031F0002946FDF75FFC04E06FF0004001E04FF06E
:1032000000406061204670BD10B540F22030C2F22F
:103210000000016828208847002808BF10BD282129
:103220000446FDF718F820464021E16010BD00007B
:10323000002808BF704770B540F220360446C2F23D
:10324000000603E0716828468847CCB1607B2546BC
:103250002468C00704D1A868002818BFFFF7E8FF5A
:10326000687BC00703D1286908B171688847687B0B
:103270008007E7D4286A0028E4D071688847E1E72E
:10328000BDE8704070470000024600284FF0000083
:103290000ED0002948BF704702F10800002200BF8D
:1032A0000068013942F10003002818BF002BF7D154
:1032B0007047000048B100F108014FF0FF3000BF37
:1032C000096801300029FBD17047002070470000D9
:1032D00041F68C0041F69001C2F20000C2F20001FA
:1032E0000068096808447047002200F02DB900000A
:1032F000B0B54FF0000460B10D4651B184683CB1E7
:10330000216A2846FCF7E1FF18B12468002CF7D1A8
:1033100000242046B0BD000000280FBF0020007B25
:103320002038B0FA80F018BF4009704700280FBF5E
:103330000020007B4038B0FA80F018BF4009704789
:1033400000280FBF0020007B1038B0FA80F018BFB3
:103350004009704700210022AFF300802DE9F04FB3
:1033600087B041F68C0841F690090C4605460026C8
:10337000C2F20008C2F2000900280696CDE90466F0
:10338000CDE90266CDE90066C8F80060C9F80060C2
:1033900069D0284693460095FCF790FF0130CDE9AF
:1033A000010640F22030C2F20000D0E9001280682D
:1033B000CDE90412069028208847002852D0282101
:1033C0000646FCF748FF0098002178B1029A6AB9D6
:1033D0000199052909D332A103224FF0030AFCF712
:1033E0008FFF002808BFCDF808A0694699B10B6887
:1033F0008BB1D1E90120904208D200BF1F5C202F81
:1034000004D8013082428860F8D11046904204BF4F
:103410000138886000E00021304600F05BFE10B308
:10342000BBF1000F18D0009880B1DDE90121914275
:1034300008D200BF435C202B04D801318A4202919C
:10344000F8D11146914204BF01390291DDE9012111
:10345000914208D2405C30B9ECB10098029908441E
:10346000206018E0002616B13046FFF7E1FE4FF06D
:10347000000685B1DDE90101421E28BF16468142E2
:1034800038BF0E46002C1CBFA8192060C8F8005099
:10349000C9F800600026304607B0BDE8F08F00BFD5
:1034A000EFBBBF00002100F05FBF000002460068D4
:1034B000002804BF0020704770B556683EB100294F
:1034C0004FF000030FD49568B54202D30BE00029FA
:1034D00006D4936819440131B14203D9136933B159
:1034E000002300E00344BDE8704018467047B1F186
:1034F000804F05D3B1F1FF3FF2DD6FF0004400E0F3
:103500004C00136A23B121461646984778B913E058
:10351000916920461646884770B1B2683168013219
:103520000546FCF77FFE3068F16988472846B16898
:10353000C6E900044318D6E73068F16988470023DC
:1035400033607360CFE700002DE9F04700284FF0AB
:10355000000A4FD0894600294CD0D0F808A07AB193
:10356000BAF1000F44D0DAF820104846FCF7ADFE5F
:1035700000283FD0DAF800A0BAF1000FF3D137E00D
:10358000BAF1000F34D009F1010806E0012088B338
:10359000DAF800A0BAF1000F2AD0DAF82040002CA7
:1035A000F4D0A14520D099F800603046FCF734FEF5
:1035B000217807460846FCF72FFE874210D1651C8C
:1035C000444600BF86B114F8016B3046FCF724FE78
:1035D00015F8011B07460846FCF71EFE8742F1D08E
:1035E000381A0028D4D105E000200028D0D101E00D
:1035F0004FF0000A5046BDE8F08700002DE9F04387
:10360000ADF2945D0DF254550F46DDF8B0850446D9
:10361000284640211E469146FCF71DFE402F04D14E
:103620000DF254502146402210E009DD2046394673
:10363000424602F0EFF90DF254504146142205E0E3
:10364000012F05DB0DF2545021463A46FCF7EAFD06
:1036500000200DF2145100BF2A5C82F036020A5499
:1036600001304028F8D1DDF81405DDF818150DF10A
:10367000540CDDF81C25DDF820358CE80F00DDF852
:103680002405DDF82815DDF83425CDE91901DDF82C
:103690002C05DDF83015DDF838350DF16C0CDDF852
:1036A0004075DDF83C458CE89F00DDF84405DDF809
:1036B0004815DDF85025DDF84C35012E2492CDE972
:1036C0002213219005DB15A8403049463246FCF70D
:1036D000A9FD06F1400115A8424602F09BF9002021
:1036E0000DF2D4412A5C82F05C020A540130402879
:1036F000F8D1DDF8D404DDF8D814DDF8DC24DDF8E9
:10370000E0348DE80F00DDF8E404DDF8E814DDF8BE
:10371000F424CDE90401DDF8EC040DF1180CDDF81A
:10372000F014DDF8F834DDF80075DDF8FC648CE8A1
:10373000CF00DDF81025DDF80405DDF808150F923F
:103740000CAA6C46DDF80C350BC204F14000414672
:103750001422FCF767FD20465421424602F05AF934
:103760000DF2945DBDE8F08380B584B041F614128B
:1037700016204FF48071C2F20002CDE900210290C0
:1037800040F6882041F685724FF0640CC2F20000CA
:103790000AA1C0F600020023CDF80CC001F042FEE1
:1037A00000281CBF04B080BD40F68820C2F2000093
:1037B00004B0BDE8804001F0E9BE00BF696F5F74EE
:1037C00061736B002DE9F047814600284FF003003C
:1037D00018BF002901D1BDE8F0871C4692468846F3
:1037E000FFF712FD20B30746FFF7C4FC00B3054600
:1037F00074B1AAF1010600BF16F8010FFDF74DF9EB
:10380000FFF7CCFC01462846FFF788FB013CF3D1CB
:1038100046F69851C0F6000138462A46FFF790FB5D
:10382000484641463A46FFF78BFB0120BDE8F0874A
:103830000220BDE8F0870000F0B581B00546002801
:103840004FF0030018BF002901D101B0F0BD1646AA
:103850000C46FFF7D9FC78B146F69851C0F6000146
:1038600032460746FFF706FB284621463A46FFF751
:1038700067FB012001B0F0BD022001B0F0BD0000E7
:103880002DE9F041054600284FF0030018BF00293C
:1038900001D1BDE8F08117461E468846FFF7B4FC0B
:1038A00080B146F69851C0F600013A4633460446C8
:1038B000FFF782FB284641462246FFF741FB0120E5
:1038C000BDE8F0810220BDE8F0810000F0B581B0D4
:1038D000054600284FF0030018BF002901D101B0B0
:1038E000F0BD002AFBD016460C46FFF78DFC78B1E0
:1038F00046F69851C0F6000132460746FFF7D0FB66
:10390000284621463A46FFF71BFB012001B0F0BDD7
:10391000022001B0F0BD0000002808BF704710B5BC
:103920000446006818B1FFF783FC00202060E068BF
:1039300018B102F013FB0020E060BDE810407047B2
:1039400010B50446FFF760FC206050B106A108A244
:10395000FFF7A6FB206807A107A2FFF7A1FB012044
:1039600010BD022010BD00BF76657273696F6E00D6
:10397000312E30006964000031000000002804BFCF
:103980000320704710B50446006840B1FFF78AFD78
:1039900038B1E060FCF792FC2082012010BD0320CA
:1039A00010BD022010BD00002DE9F04F83B081460C
:1039B00000284FF0010000F0BE800C46002900F006
:1039C000BA801646002A00F0B6804FF000080025A5
:1039D00009E0042040F00400042840F0AF800135E5
:1039E000B54200F0A78005EB450054F820100029EF
:1039F000F5D004EB800A9AF80B000028EFD0484677
:103A0000FFF772FC0028E4D007469AF80A00052860
:103A10003BD8DFE800F016030A3C0329DAF804007B
:103A200000284ED0796901704BE0DAF804A0BAF1B1
:103A3000000F46D0D7E90601FDF73CF88AF80000F0
:103A40003FE0DAF8040000B3BAF80800E8B13846FD
:103A5000FFF76CFCC8B1DAF80410BAF80820384651
:103A6000FFF7A2FF88B92CE03846FFF755FC60B19C
:103A700038460294FFF71EFC1FFA80FBBBF10A0FC9
:103A800021D901204FF000084CE00120A2E7DAF82C
:103A90000400B0B13846FFF753FC90B1D7F810B02E
:103AA0005846FCF70BFC07463F28DAF8040028BF0D
:103AB0003F2759463A46FCF7B5FBDAF8040000F810
:103AC0000780002086E7BBF1000F22D0CDE90096E9
:103AD00000264FF000090BE02069FCF7F7FDDAF84B
:103AE000041009F101098855D94506F1010616D2DD
:103AF00038463146FFF7C8FB0028804618BF4FF014
:103B000001080AD00446FFF71BFC0028E4D16069D5
:103B1000E5E705204FF0010804E0012000E0052062
:103B2000DDE90096029CB8F1000F4FF0000818BFC5
:103B300000204FE7002003B0BDE8F08F012003B064
:103B4000BDE8F08F41F2883001F0B2FCFAE70000E6
:103B5000B0B546F6146446F60C60C0F60004C0F634
:103B60000000A04209D246F60C65C0F6000500BF71
:103B700055F8040B8047A542FAD3BDE8B040FFF7E3
:103B8000E1BF000010B540F61C14C2F2000420464C
:103B9000FEF744FA04F14800FEF740FA04F1900001
:103BA000BDE81040FEF73ABA8446002200200BE040
:103BB0006FF02F0119440844032A02F1010218BFD3
:103BC0000001042A08BF70471CF80230A3F130013D
:103BD0000A29EDD3A3F14101062903D26FF0360182
:103BE000E8E700BFA3F16101052984BF0020704709
:103BF0006FF05601DEE70000CB68DA087C2A84BF4C
:103C0000002070472DE9F047D1E901720133BA4233
:103C1000CB6080F0C9800B689E5C7B2E40F0C48036
:103C200001328A6073B1BA4208D200BF9E5C202E76
:103C300004D8013297428A60F8D13A46BA4204BFAA
:103C4000013A8A608A68BA4280F0AC809B5C7D2B26
:103C50000CD10025D1E90223013BCB604023C0E910
:103C60000253501C88600120BDE8F087BA4280F002
:103C70009980013A4FF00008002500268A6000BFB5
:103C80000F46096982462820884700286FD02821DE
:103C90000446FCF7E0FAA146002D1EBF34606660C2
:103CA000A946B8683B6839460130B86073B14A68C4
:103CB000904207D21E5C202E04D8013082428860D8
:103CC000F8D11046904204BF01388860204600F0C9
:103CD0007BF8002851D03E683946504686B1D1E97C
:103CE00001329A4208D200BFB55C202D04D80132BF
:103CF00093428A60F8D11A469A4204BF013A8A6018
:103D0000D1E90126236996422362C4F8108030D29B
:103D10000B689D5D3A2D2CD1701C88606BB1904270
:103D200007D21E5C202E04D8013082428860F8D170
:103D30001046904204BF01388860204600F0CAF95E
:103D400058B339463F6850467FB1D1E901329A42B3
:103D500007D2BE5C202E04D8013293428A60F8D18B
:103D60001A469A4204BF013A8A60002202E0022207
:103D700006E002224D46264604E002224D46264633
:103D8000394650468AB9D1E901329A420DD20F68BC
:103D9000BF5C2C2F3FF474AF0EE0B0FA80F0400906
:103DA0004200EBE7501E8860002515B12846FFF75A
:103DB0003FFA0020BDE8F0879A42F6D20B689A5C81
:103DC0007D2A3FF447AFF0E72DE9F04F83B08A46F4
:103DD0000968DAF808204FF000098E18B04618F884
:103DE000012B222A40F05981DAF80420A8EB0103C4
:103DF00093424FF0000538BF0125012793421BD2A3
:103E00000023C3460DE000BF222C17D0013706EB7C
:103E1000070BABEB010595424FF0000538BF0125BC
:103E200024D2F45D5C2CEFD17C1C35196D1A9542BF
:103E30001AD201332746E9E7C34617E0E90713D052
:103E4000F15D222910D19919ABEB0101DAF81020AC
:103E50000131044608469047814649462046B9F15B
:103E6000000F18BF012102E04FF0000900210029D6
:103E700000F01381022F4D46C0F21C8106EB070CA7
:103E800040F2FF3E4D4606E008F1010805F8011B2F
:103E9000E04580F00F8198F800105C29F4D1ABEB7D
:103EA0000803012BC0F2F58098F801200021A2F14F
:103EB0002204532C00F23B800826DFE804F02A3865
:103EC00038383838383838383838382A3838383880
:103ED0003838383838383838383838383838383862
:103EE0003838383838383838383838383838383852
:103EF00038383838383838382A3838383838333855
:103F0000383832383838383838382C3838382E384D
:103F1000303C164606E00A2604E00D2602E009269B
:103F200000E00C2605F8016B0221884401210029DC
:103F30007FF4AEAFB1E0062BC0F2A880CDF808A0A8
:103F400008F1020100224FF0000A0BE06FF02F068B
:103F500033449A44032A02F1010218BF4FEA0A1AB5
:103F6000042A14D08B5CA3F130070A2FEED3A3F1FF
:103F70004107062F02D26FF03606E9E7A3F1610789
:103F8000052F02D86FF05606E2E74FF0000A2AEA42
:103F90000E01B1F55C4F76D0B1F5584F1BD108F149
:103FA0000601ABEB0102062A17DB09785C2914D164
:103FB00098F80710752910D1064608F108006446E4
:103FC000FFF7F2FDA0F5604111F5806F4ED24FF082
:103FD000000A002151E0062105E04FF0000A00210F
:103FE000002950D00C21BAF1800FCDF804C007D3BE
:103FF000BAF5006F29D24FF0C00C4FF0020E03E06B
:104000004FF0000C4FF0010EBEF1010253464FF08D
:1040100002070CD0D3B2EE18544600BFA30967F3D1
:104020009F14013A06F8014914061C46F6D103F024
:104030007F02BAF17F0F88BF43EA0C02DDE901CAB3
:104040002A70754440F2FF3E20E0BAF5803F04D26A
:104050004FF0E00C4FF0030ED6E74FEA1A42102A59
:1040600011D84FF0F00C4FF0040ECDE76FF39F2006
:104070006AF3932000F5803A01213046A44640F2CD
:10408000FF3E0029AED1DDF808A0002100297FF411
:104090004CAF002100297FF4FBAEB9F1000F03D033
:1040A000DAF8141048468847DAF80000A8EB000157
:1040B00000200AE000212970DAF800201021C0E970
:1040C0000319ABEB0200411C0120CAF8081003B031
:1040D000BDE8F08F2DE9F04792B0002900F03F8154
:1040E0000F688A46002F00F03A81DAE901568146CE
:1040F00006F10408A84509D846F6F851B819C0F6E3
:10410000000104220424FCF7FBF820B3741DAC4228
:1041100008D846F6ED51B819C0F600010522FCF7A3
:10412000EFF800B3A84509D846F6F351B819C0F620
:1041300000010422FCF7E4F8002856D0AE4280F0DB
:104140000E81B85D222816D14846514612B0BDE80E
:10415000F047FFF739BEC9F80C40CAF808800120C3
:1041600012B0BDE8F0870120C9F80C00CAF8084079
:1041700012B0BDE8F087AE4280F0F180B85D2D2826
:104180003ED0303809283BD9AE4280F0E880B85D97
:104190005B2840F08280DAF80C00C1087C2900F22C
:1041A000DE800130CAF80C00B85D5B2840F0D28098
:1041B000701CCAF808005046FEF744FEDAE9011008
:1041C000884280F0C480DAF80020125C5D2A7ED13B
:1041D0000026DAE902010139CAF80C102021013069
:1041E000C9E90261CAF80800B9E70220C9F80C0061
:1041F0000120C9F81400CAF8088012B0BDE8F087A1
:10420000B9190D270020AA1B01AE4FF00103C0F21F
:104210000047119038BF024607E003FA04F43C421D
:104220000ED0355401303F280DD082420CD00D5CA9
:10423000A5F130040A2CF4D3A5F12B041A2CECD9E7
:10424000652DEED000E03F200021315411A9304609
:1042500002F0BAFB119CA64200F0818000224FF6CA
:10426000FF7380460F46CFF6C072C4F2DF13C9E970
:104270000687FCF7DBFB68B90023CCF2E01340466D
:1042800039460022FCF7B7FB98B940463946FCF79F
:1042900011FC10E06FF000400DE0AE425FD2B85D5F
:1042A0007B285CD14846514612B0BDE8F047FFF785
:1042B000A3BC4FF00040C9F814000820C9F80C0056
:1042C000DAF80800A11B0844CAF8080047E788424A
:1042D0003DD2013800260024CAF80800DAF8101090
:1042E00028208847D8B128210746FBF7B4FF3D4670
:1042F000002E1EBF27607C603546DAF808000130CA
:10430000CAF808005046FEF79DFD38465146FFF7B3
:10431000E1FE30B15046FEF795FD012002E000209D
:1043200002E000202E463C46A8B1DAE9011088429E
:1043300011D2DAF80020125C2C2ACFD088420AD29F
:10434000DAF80010085C5D283FF443AF03E0013861
:10435000CAF80800002616B13046FEF769FF0020B3
:1043600012B0BDE8F0870000F0B589B00D460446F4
:1043700068462421FBF76FFF40F22036C2F20006A8
:1043800031684FF480704FF48077884796E80E00CC
:10439000CDE900070595CDE90612089378B3694683
:1043A000204600F0E5F850B3009C2CB1029D601946
:1043B000FBF784FF28440290B26842B10298411C86
:1043C00020469047D8B100214DF8241BF0BD02983B
:1043D00031680130884790B1029ADDE9001301325B
:1043E000934238BF1A460446FBF71CFF029800218F
:1043F0002154716800988847204609B0F0BD0098A4
:1044000008B171688847002009B0F0BD2DE9F04F70
:1044100081B005460028084600F07F800027002470
:10442000E95D22291BD8DFE801F01D1212121212D9
:104430001212171717121717121212121212121243
:104440001212121212121212121212121700202934
:1044500038BF05340137E3E701340137E0E75C2971
:10446000F5D1F9E7E619F11CFFF720F8002800F074
:10447000688082464FF02208002C80F8008000F00F
:1044800064802978080600F055806E1C5C250FF2C8
:10449000D8094FF0220BD04607E008F10100017067
:1044A00016F8011B80460A0644D0C8B2202803D360
:1044B000222801D05C28F0D188F8015016F8012C90
:1044C00008F10200A2F108011A2911D8DFE801F071
:1044D0000E211A141F231414141414141414141475
:1044E000141414141414141414141C006221D6E7A8
:1044F0005C2A01D10570D3E7494601F0FDFC08F1C3
:104500000600CDE76E21CAE780F800B0C8E7662153
:10451000C5E77421C3E77221C1E70321FEF7C6FF97
:10452000014600284FF000001BD0887042F2222084
:10453000088015E00AEB040038442221A0F801109D
:104540000EE0002001B0BDE8F08F0AF1010029461D
:104550003246FBF767FE0AEB04003844A0F80180FE
:10456000012001B0BDE8F08F7525303478000000DF
:104570002DE9F04F89B0054600284FF0000000F00B
:10458000D8810C46002900F0D4812A7B511E3F2996
:1045900000F25180DFE811F040005E01CD01110111
:1045A000CD01CD01CD012201CD01CD01CD01CD0146
:1045B000CD01CD01CD016E01CD01CD01CD01CD01EA
:1045C000CD01CD01CD01CD01CD01CD01CD01CD017B
:1045D000CD01CD01CD017501CD01CD01CD01CD01C3
:1045E000CD01CD01CD01CD01CD01CD01CD01CD015B
:1045F000CD01CD01CD01CD01CD01CD01CD01CD014B
:10460000CD01CD01CD01CD01CD01CD01CD01CD013A
:10461000CD01CD01CD01650020460621FEF746FF04
:10462000002800F07C816521818046F26611C7F286
:104630006C3101607CE1802A40F07B812869002890
:1046400000F06D81FBF73AFE461C20463146FEF72E
:104650002DFF002800F0638129693246FBF7E2FD57
:1046600066E160690226AD68002808BF0126711C5A
:104670002046FEF71BFF002800F051817B210170CE
:10468000E16862690131002AE1601CBF0A214170C2
:10469000A068002D3044A06073D04FF03A0B4FF06B
:1046A00000084FF00A094FF02C0A09276069A0B1F1
:1046B000E1682046FEF7FAFE002800F03081E2684B
:1046C0002AB100214754E26801319142FAD3A1682E
:1046D00000281144A16000F02281286A2146FFF7DA
:1046E00095FE002800F01B81206828B1A6683044A0
:1046F000FBF7E4FD3044A06060690226002808BF93
:10470000012620463146FEF7D1FE002800F0078141
:1047100080F800B06169002918BF4770A068214681
:104720003044A0602846FFF723FF002800F0F78000
:10473000206828B1A6683044FBF7C0FD3044A06073
:1047400066692868002E18BF0126002818BF0136A8
:10475000711C2046FEF7AAFE002800F0E0802968C0
:10476000002918BF00F801AB6169002918BF00F8E3
:10477000019B80F80080A0682D683044002DA06067
:1047800094D1606900281ABFE068411C02212046CC
:10479000FEF78CFE002800F0C280616959B1E16823
:1047A000012908D0002109224254E3680131013B6C
:1047B0009942F9D308447D21ACE020460521FEF75B
:1047C00075FE014600284FF0000000F0B28008712D
:1047D00047F26E50C6F66C400860A9E0D5E906675E
:1047E0000DF10A0854A1404632463B4601F084FBD5
:1047F000814653A16A464046FBF79CFD012806D13D
:10480000DDE9000132463B46FCF72BF938B94DA1F2
:104810000DF10A0032463B4601F06EFB8146B9F1CC
:10482000190F7CD809F101012046FEF73FFE002850
:1048300075D0B9F1000F4FF0000174D0421EA8F1FD
:1048400001034D4613F8017F013D02F8017FF9D1C4
:104850004A4669E020460521FEF728FE0146002869
:104860004FF0000065D0087147F27420C6F2755011
:1048700008605DE02869214609B0BDE8F04FFFF708
:10488000C5BDAD6820460121FEF710FE002846D0C8
:104890005B210170D4E9020100F1010001F1010185
:1048A000C4E9020185B34FF02C0900274FF020081E
:1048B0000EE0014601F8019B6269002A1CBF811CC1
:1048C00080F801800F70A0683044A0602D68DDB1D1
:1048D00028462146FFF74CFE08B3206828B1A66899
:1048E0003044FBF7EBFC3044A06028680028EDD092
:1048F00060690226002808BF0126711C2046FEF7C9
:10490000D5FD0028D5D10AE020460221FEF7CEFDD4
:1049100028B15D210180E0680138E06008E00020F6
:1049200009B0BDE8F08F00228154A0684844A0601F
:10493000012009B0BDE8F08F25312E313567000028
:10494000256C670025312E313767000080B50021C6
:10495000C1800181026881881046FBF77CFC80BD24
:10496000F0B581B004460089E388984205D9A08853
:104970002389E688C01A304402E0E0882389C01AFF
:1049800085B2AA4238BF1546ADB1A0882289801AE7
:1049900086B2AE4211D2206822890F4602440846F0
:1049A00011463246FBF73EFCB8192168AE1B324671
:1049B000FBF738FC0BE000250AE02068228902445E
:1049C000084611462A46FBF72DFC20894619268108
:1049D000284601B0F0BD00002DE9F04381B0054646
:1049E000C0882B891446984203D22889EA88801A05
:1049F00004E0A888EA882B89801A18441FFA80F9F5
:104A00004C4503D96A89002A08BF0446A6B2BEB144
:104A1000A888EA88801A87B2B74213D22868EA8841
:104A2000884610443A46FBF7FDFB286808EB07016F
:104A3000F71B3A46FBF7F6FB4E45EF800DD815E025
:104A4000002413E02868EA8810443246FBF7EAFBAA
:104A5000E8884E452044E88008D9688930B1E88864
:104A6000A988B0FBF1F202FB11002881A0B201B0CD
:104A7000BDE8F083B0B546F60C6446F60860C0F6B3
:104A80000004C0F60000A04228BFB0BD051F00BF53
:104A900055F8040F8047281DA042F9D3B0BD00008F
:104AA00080B5FBF73FFB41F6EC61C2F200010A88DA
:104AB00001320A80BDE88040FBF738BB80B5FBF7C8
:104AC00031FB41F6EC61C2F200010A88013A13B2EF
:104AD000002B0A8003DDBDE88040FBF727BB0022E6
:104AE0000A80FBF723FB41F6D860C2F200000068A1
:104AF000002808BF80BDBDE8804000F08FBA0000EC
:104B000080B5092001F08AF840F2DC20C2F20000F2
:104B1000006844F6D351C1F26201A0FB01014FF0DD
:104B2000FF3000EB91110020B0EB116F0DD14EF270
:104B30001002CEF2000251604EF62351CEF2000177
:104B4000F0230B70906007201060BDE88040FFF7F5
:104B500091BF000041F6DC61C2F20001096839B181
:104B600080B588470028BDE8804008BF704700BF77
:104B7000FEE7000070B5043222F0070E4BF6EF643A
:104B8000AEF1400C6FF04302CDF6AD640EEB0205C2
:104B90000432161D6C60F9D100224FF080744EF87B
:104BA000080C60464EE908124EE906224EE904233D
:104BB0004EF8044C70BD000080B5FBF7B3FA41F627
:104BC000E461C2F200010A7801320A70BDE8804057
:104BD000FBF7ACBA80B5FBF7A5FA41F6E461C2F287
:104BE00000010A78013A0A70BDE88040FBF79EBADE
:104BF000002200F001B800002DE9F04F83B00D460F
:104C00000446029200F080FC0746FBF78BFA618CA9
:104C1000228C8346914202D1029800286ED0608C8B
:104C2000218C88425CD1019504F1280507F1140913
:104C300007F14C0A002603E0608C218C88424ED19B
:104C4000029800284FF00000386357D094F809808C
:104C5000384600F0C9FCB8F1000F15D0B8F1010FCB
:104C6000284618D10068A8420ED097F8351090F861
:104C700021209142F6D24168C1F80090B961C0F894
:104C80000490786107E000BFE06AC0F80090B86166
:104C9000C4F82C907D61029801280ADB00F016FD13
:104CA00006465046002102AA00F088FD504600F05A
:104CB000DDFD5846FBF73AFA00F0B0F9386BC0BB9F
:104CC000FBF730FA029983460129B5DB00F0FEFCC0
:104CD0000299861B881B20EAE0700290ACE7019DD8
:104CE000E269A38C013042F823505A1C93B28B42E4
:104CF00081B228BF00228142A28407D05846FBF728
:104D000015FA6FF0020003B0BDE8F08F54F8141FDD
:104D1000A142E08109D0A1F1140000F0D1FB584676
:104D2000FBF704FA00F07AF902E05846FBF7FEF9C7
:104D3000002003B0BDE8F08F10B5042A1AD310F09C
:104D4000030317D1CBB24FF00134102A03FB04FE4A
:104D500012D3A0F1100300BF103A43F810EF0F2A4E
:104D6000C3E901EEC3F80CE0F6D803F1100C042AF5
:104D700005D20EE084460CE08446042A09D3ACF147
:104D8000040300BF043A032A43F804EFFAD803F1FE
:104D9000040C002A08BF10BDCBB204466046114681
:104DA0001A46FBF751FA204610BD0000B0B5144674
:104DB0000A460321054600F0FBF805F11400012125
:104DC000C0F2FF010022C5E905000020C5E9071275
:104DD0006C72B0BDB0B5044600F096FB0546FBF71B
:104DE000A1F9216A8D4206D04FF0FF342C63FBF706
:104DF0009DF92046B0BDE27F013A1306E27703D069
:104E0000FBF794F90020B0BD224612F81E3F91F83E
:104E10003550AB4205D005460846022100F008FA9D
:104E20002846214651F8142F8A4216D0E17F4B1CA8
:104E3000D9B29942A2F1140192F821202162A277FD
:104E400010D1E3770446084600F03AFB2046FBF712
:104E50006DF900F0E3F80020B0BDA18B01318AB2FA
:104E60008A4204D0FBF762F96FF00200B0BDA18363
:104E700000212162FF21A177C2E700002DE9F04364
:104E800081B00546009100F03FFB0446FBF74AF96C
:104E9000296A0022A14222630FD0AA8BD2B1511EEF
:104EA000A983E97F94F835200131CBB28B422C6283
:104EB000AA7707D06FF0020506E0E97F0131CAB298
:104EC0008A42F7D1E9770025FBF730F9284601B08F
:104ED000BDE8F083009A5AB32646804616F8350F8F
:104EE00091F83520904204D208460221324600F063
:104EF0009FF995F80990204605F1140700F074FB1E
:104F0000B9F1000F18D0B9F1010F404624D139464C
:104F10000968B94219D0327891F821309A42F7D213
:104F20004A6804F114031360A2614B60616113E0ED
:104F30006FF001052563C7E7A86904F1140101605A
:104F4000A061A9616761404606E0A96904F1140205
:104F50000A60A161AA616761009901290ADB04F175
:104F60004C056A462846002100F028FC284600F03F
:104F70007DFC4046FBF7DAF800F050F8256B002D79
:104F8000A4D10025FBF7CEF89EE7000010B504463B
:104F900000202072FBF7C6F854F80C1F62684A60C4
:104FA00062681160C4E90044BDE81040FBF7BEB878
:104FB000F0B581B00E4640F234611546044600203B
:104FC000C2F200010A5CB24204D010307028F9D15C
:104FD000002700E00F18FFF763FD0437384600BFD5
:104FE0000068B842FCD1FFF769FD46F080002072EE
:104FF00020462946082200F0ABF8FBF793F8396801
:1050000044F80C1F4C603C60676001B0BDE8F040A4
:10501000FBF78CB8007AC00970470000B0B5FBF709
:1050200081F841F6EC61C2F20001098819B1BDE8CE
:10503000B040FBF77BB841F6F871C2F20001096895
:1050400005460846FDF700FE01464A1E41F6F86196
:10505000C2F2000141F6D86C51F83210C2F2000CD5
:10506000DCF80030A1F1140428469C42DFD041F660
:10507000D560C2F20000027041F6E460CCF8004056
:10508000C2F20000027803F11C0001F1080112B124
:10509000FBF74FF801E0FBF74CF82846BDE8B040BD
:1050A000FBF744B810B50446FBF73CF894F834100D
:1050B00094F8352001F0F001013184F8341041F604
:1050C000F861C2F2000101EBC2014A6841F6F87CC6
:1050D00004F11403C2F2000C1360A2614B60A26BD6
:1050E000DCF80030616143EA0201CCF80010BDE851
:1050F0001040FBF71BB80000B0B50546FBF712F8EF
:10510000294651F8142F4B6853604B6849601A6068
:1051100091F8212041F6F8630960C2F2000353F8C8
:10512000324003EBC202944203D0BDE8B040FAF72C
:10513000FDBF41F6F872C2F20002A96B136823EAC0
:1051400001011160BDE8B040FAF7F0BF7047000000
:10515000002A08BF704710B5C2F10103421C00BF0E
:105160000C7802F8014C44B101330131012B02F1FA
:105170000102F5D1BDE810407047002BFAD059422A
:1051800004461046FBF767F82046BDE8104070471C
:1051900041F6EC61C2F200010020088041F6F8619E
:1051A000C2F200010A180A500830B0F5807F526040
:1051B000F8D141F6D560C2F200001F21017041F61E
:1051C000D860C2F200000021016041F6F870C2F21E
:1051D0000000016041F6F060C2F20000C0E900008A
:1051E0007047000080B541F6F870C2F20000006818
:1051F000FDF72AFD41F6F861C2F2000101EBC000A3
:1052000050F8080C41F6D862A0F11401C2F2000275
:1052100008301160BDE88040FAF7B9BF42F284005F
:10522000C2F20000C0E900007047000070470000B3
:1052300070B5044631B301291AD0022920D1154690
:10524000FAF770FF94F8341001F00F01012945D1ED
:1052500006462046FFF750FF2878012184F83500E4
:1052600001FA00F0A0632046FFF71CFF30463CE047
:105270002046FFF7CFFE012802D1204600F03AF881
:10528000002070BD94F83600012184F8350001FA41
:1052900000F0A063022084F83400FAF743FF2246AE
:1052A000A16952F8143F05465960A16904F14C0008
:1052B0000B60A261126000F01DFB2846FAF736FF72
:1052C0002046FFF7EFFE41F6D860C2F2000000680A
:1052D0000028D5D0FFF7A2FE002070BD297801225A
:1052E00084F8351002FA01F1A163FAF71FFF0020DC
:1052F00070BD0000B0B5044690F8340010F00F0007
:1053000004D004282BD02046FFF7F6FEFAF70AFF58
:10531000A16F19B10546204688472846FAF706FFCF
:1053200004F14C0000F070FA042084F834002046A8
:10533000FFF770FE012804D12046FFF727FE00206A
:10534000B0BDFAF7EFFE41F6F061C2F200010A6863
:1053500044F8142F54600C606160FAF7E7FE0020F7
:10536000B0BD000070B541F6D860C2F2000005681B
:10537000FAF7D8FE0446FAF7D5FEA96F19B106462A
:10538000284688473046FAF7D1FE2846FFF7B4FE94
:10539000042085F8340005F14C0000F035FA284669
:1053A000FFF738FE012803D12846FFF7EFFD09E09B
:1053B00041F6F060C2F20000016845F8141F4D602C
:1053C00005606860FFF72AFE2046BDE87040FAF7E6
:1053D000ADBE0000FEE7000010B584B041F6FC72DF
:1053E0008021C2F2000241F694041F20CDE9002181
:1053F000C2F2000445F2D5324FF0200C029007A112
:10540000C0F6000220460023CDF80CC000F00AF8D8
:10541000204604B0BDE8104000F0B8B87469646C70
:10542000650000002DE9F04782B00DF1280A16460C
:105430000A46DDF834909AE8800501211D460446AD
:10544000FFF7B6FD04F11400C4E905003846232136
:105450004246C4E90865C4E90A78FFF76DFC04F127
:1054600020030FCB1A4445F26533043AC0F600031B
:10547000FFF780FB45F22D62E061002704F14C004C
:10548000C0F600022146234684F836A084F835A0F1
:10549000A763C4E91199276384F83470C4E91E77BF
:1054A0000097019700F0C8F9002002B0BDE8F0872E
:1054B00080B500F007F900F02DF8002080BD000055
:1054C00090F8341001F00F0102291CBF4FF0FF309B
:1054D0007047B0B50446FAF725FE2246A16952F896
:1054E000143F05465960A16904F14C000B60A261AC
:1054F000126000F0FFF92846FAF718FE2046FFF781
:10550000D1FD0020B0BD000041F6D860C2F200001D
:1055100000687047F0B581B00090FAF703FE41F6DD
:10552000D861C2F200010C68054694F8341001F00D
:105530000F01012913D1FAF7F5FD06462046FFF7C2
:10554000DBFD94F8340000F0F000023084F8340001
:1055500004F14C0000F0CEF93046FAF7E7FD04F113
:105560004C066A4630460021002700F027F93046F5
:1055700000F07CF92846FAF7D9FDFFF74FFD206BC4
:10558000023008BF2763002001B0F0BDB0B504466B
:1055900090F83600012184F8350001FA00F0A0638C
:1055A000022084F83400FAF7BDFD2246A16952F8C2
:1055B000143F05465960A16904F14C000B60A261DB
:1055C000126000F097F92846FAF7B0FD2046FFF781
:1055D00069FD41F6D860C2F200000068002818BFDB
:1055E000FFF71CFD0020B0BDB0B5044690F83400B4
:1055F00000F00F0001281CBF4FF0FF30B0BDFAF7DC
:1056000091FD05462046FFF777FD94F8340000F041
:10561000F000023084F8340004F14C0000F06AF924
:105620002846FAF783FD0020B0BD000080B5024691
:10563000816952F8143F6FF0010C59608169C0F81C
:1056400030C00B6082611260FFF72CFDBDE8804026
:10565000FFF7E4BC80B5FAF765FD41F6D861C2F208
:105660000001096891F8342002F00F02012A25D1C7
:105670000A4652F814CF53689C451FD08B69CCF86A
:1056800004308B69C3F800C001F11403C1E905328D
:1056900091F835C041F6F863C2F2000303EBCC0386
:1056A000D3F804C0CCF80020C1F818C05A604B6190
:1056B000FAF73CFDFFF7B2FC002080BDFAF736FD9B
:1056C000002080BD40EAE0707047000042F2800098
:1056D000C2F200000068704780B542F28000C2F25A
:1056E0000000016801310160FFF70EFF816C013994
:1056F000816403D0BDE8804000F008B8416C81644B
:10570000FFF7A8FFBDE88040AFF300802DE9F0432C
:1057100083B001AECDE90166FFF7D8FF0546FAF781
:1057200001FD42F28407C2F200073C688046BC4299
:105730003ED04FF6FE79C7F6FF7902E03C68BC42E6
:1057400036D06069281A484532D8D4E9001048603C
:1057500060686460016014F80B0C246081075CBF12
:1057600000F0FC0004F80B0C019844602060D4E9C0
:105770000210019466608847FFF7A8FF019905466B
:10578000B142DBD0D4E90010486060686460016019
:1057900014F80B1C246001F003000328CED1A4F1FF
:1057A000140001F0FE0104F80B1C00F05FF8C5E7DF
:1057B0004046FAF7BBFC03B0BDE8F08370B5144671
:1057C0000E460546FAF7AEFC042E19D8DFE806F0BF
:1057D00003160C1106002168696211E0697AC90795
:1057E0000CBF002101210AE0697A01F0FD01697214
:1057F00006E0697A41F00201697201E0696A21609C
:10580000FAF794FC002070BD10B50446FAF78AFC44
:105810002246A16952F8143F5960A169A2610B6048
:10582000617A126001F0FE016172FAF77FFC204696
:10583000FFF7ACFB002010BD2DE9F04115460A46EC
:10584000DDE906870A211C460646FFF7B1FB07F093
:10585000FE007072002006F11401C6E90511C6E9C8
:105860000754C6E90980BDE8F08100002DE9F04148
:105870000446FAF757FC264656F8141F804672680D
:1058800016F80B0C4A60726800F0FE00116036607A
:10589000766006F80B0CFFF719FF42F284053169B8
:1058A000C2F200056A684FF6FE730144C7F6FF7343
:1058B000716100BF2846954205D005686F697F1A5F
:1058C000F8D09F42F6D842F28C01C2F200010A6879
:1058D000036801320A60617A5E6063610660A061FC
:1058E00041F0010060724046FAF720FC0020BDE85C
:1058F000F081000010B50446407AC00704BF4FF0A5
:10590000FF3010BDFAF70EFC54F8141F62684A60AD
:1059100062686460116014F80B1C246001F0FE01E1
:1059200004F80B1CFAF702FC002010BD00207047A1
:1059300000207047002070470020704770B5B2B05B
:1059400002AE0D46044630464021FAF784FC19A108
:1059500030462A4600F0D0FA3046FAF7AFFC46F659
:10596000AB4212AD86B2C0F600021DA328468021CC
:10597000009600F0A7FA46F64F520026C0F6000245
:10598000204629464FF4FA730096FBF747FE58B9B4
:1059900046F66352C0F6000202A920464FF4FA739D
:1059A0000096FBF73BFE10B10D2032B070BD0C200D
:1059B00032B070BD7B226964223A20222573222CEA
:1059C00022636F6465223A203230302C226D736777
:1059D000223A202273756363657373227D00000091
:1059E000247379732F324974733577713861332F8B
:1059F0006C6F745F6465766963652F7468696E6740
:105A00002F70726F70657274792F7365745F726531
:105A1000706C79002DE9F04FD9B0054601F109000D
:105A20000E46CF00C11700EB91616FF39E108B11F2
:105A3000002801924FF00102C8BF02EBA113B6EBA0
:105A4000831F4FEA8318029304DAA819A8EB060112
:105A5000FAF701FC4AF68930CEF6CD70089042F292
:105A60000130C6F2457007908020A85505EB08006C
:105A7000390A029A4EF2F0194DF6FE4A45F2764E78
:105A800000F8021C390CCCF2D239C9F6BA0AC1F2BC
:105A9000320E00F8031C390E012A00F8017C00F8D0
:105AA000041CC0F28680002109AF15E00798039915
:105AB000204407900898DDF810A070440890DDF8A5
:105AC00014E0DDF81890029801319A44C644E1448C
:105AD000814205F140056CD000220023039114E0BF
