:020000040800F2
:10000000F83F0020010100083D280008C901000850
:1000100009230008A51900086D420008000000002F
:1000200000000000000000000000000099370008F8
:10003000211C000800000000530100081D390008C1
:100040001B0100081B0100081B0100081B01000820
:100050001B0100081B0100081B0100081B01000810
:100060001B0100081B0100081B0100081B01000800
:100070001B0100081B0100081B0100081B010008F0
:100080001B0100081B0100081B0100081B010008E0
:100090001B0100081B0100081B0100081B010008D0
:1000A0001B0100081B0100081B0100081B010008C0
:1000B0001B010008113A00081B0100081B01000881
:1000C0001B0100081B0100081B0100081B010008A0
:1000D0001B010008ED3C0008013D0008153D00082B
:1000E0001B0100081B0100081B010008DFF80CD0F1
:1000F00000F0CAFE00480047FD0F0008F83F00204E
:100100000648804706480047FEE7FEE7FEE7FEE7B1
:10011000FEE7FEE7FEE7FEE7FEE7FEE72D39000813
:10012000ED000008EFF3108072B6704780F310887E
:100130007047324A1368012B04D04FF0010313605B
:100140002F4A10602F4A11602F484FF080510160F4
:100150007047EFF3108272B62848016891B14FF0F2
:10016000000101602648016829B1EFF3098121E906
:10017000F00F00680160234909680968B1E8F00FD1
:1001800081F3098882F310884EF0040E70471D49F0
:1001900008601B494FF00000086018494FF001004B
:1001A00008601A481A49D0F8002041EA02010160AB
:1001B00015484FF08051016016480068006880F3D0
:1001C000088861B662B670471EF0040F0CBFEFF3EB
:1001D0000880EFF3098020E9F00F40F804ED1EF0ED
:1001E000040F0CBF80F3088880F3098800B509F07C
:1001F00067F85DF804EB4EF0040E70475C2B0020AE
:10020000C0290020C829002004ED00E020ED00E016
:100210000000FFFF08ED00E0A0F14101192900D81E
:100220002030704740EA01039B0703D009E008C96A
:10023000121F08C0042AFAD203E011F8013B00F8AB
:10024000013B521EF9D27047D2B201E000F8012BF7
:10025000491EFBD270470022F6E710B513460A4646
:1002600004461946FFF7F0FF204610BD421E12F863
:10027000013F002BFBD111F8013B02F8013B002BA1
:10028000F9D1704730B505462A460B4612F8010BE6
:1002900013F8014B08B1A042F8D01CB1002802D0DD
:1002A0006D1CF1E7284630BD10B5044604E00B781C
:1002B00000F8013B03B1491C521EF8D2204610BD84
:1002C000CAB2401E10F8011F8A4202D00029F9D19B
:1002D00000207047421C10F8011B0029FBD1801A36
:1002E000704710B5002200E0521C835C8C5CA34276
:1002F00001D1002BF8D1D8B2E1B2401A10BD30B50F
:1003000004460020034600E05B1C934203D2E05CFD
:10031000CD5C401BF8D030BD30B50546002003460B
:1003200000E05B1C934205D2EC5CC85C201A01D152
:10033000002CF6D130BD0022CBB20178994200D119
:100340000246401C0029F8D11046704770B5064699
:100350000CF028FE046805460A220021304600F011
:1003600097FC2C6070BD2DE9FE4F804681EA0300AA
:10037000C00F0C46009021F0004123F00045B8EB7F
:100380000200A94105D24046214690461C460B4634
:10039000024623F00040104347D0270DC7F30A0060
:1003A000C3F30A510290401A019040286BDAC3F35C
:1003B000130040F4801B0098924620B10023D2EB3A
:1003C000030A63EB0B0B01985946C0F140025046FB
:1003D00000F009FA06460D4650465946019A00F0CB
:1003E00021FA10EB08006141002487EA115284EAE7
:1003F000E7731A4340D0009A62B3019A012A4FEA88
:10040000075215DC001B61EB02014FF0004202EACB
:100410000752CDE90042001C41F5801132462B46BF
:1004200000F0B4FC03B0BDE8F08F40462146F9E788
:10043000001B61EB0201001C41F5801300185B41B9
:100440002018A2F5001747EB030140EAD570B61952
:100450006D4111E06D084FEA360645EAC0754FEA76
:100460000752001B61EB0201001C41F58011490895
:100470004FEA30000019514132462B4603B0BDE827
:10048000F04F00F074BC0098012240000023D0EB34
:10049000020263EBE073009821464FEAE074B8EB88
:1004A000000061EB0401E9E783F000435BE781F0C2
:1004B000004158E72DE9FE4F81EA030404F00044AF
:1004C00021F0004100944FF0000B23F0004350EA6C
:1004D00001045ED052EA03045BD0C3F30A54C1F3B3
:1004E0000A552C44A4F2F3340194A0FB0254C1F346
:1004F000130141F48011C3F3130343F4801301FB90
:10050000024400FB034E840A970A44EA815447EAF6
:100510008357A4FB076802958D0A05FB07854FEA00
:10052000932C04FB0C542705029D4FEA065847EA1A
:100530001637B5EB08056EEB070C870E920E47EAEF
:10054000811742EA8312A7FB0201B6EB0B0164EBB1
:1005500000042B0D43EA0C335E1844EB1C50DA46C2
:100560005146E7FB0201C5F313044FEA0B3343EA9C
:1005700014534FEA0432019C43EA0603A4F10C042D
:100580000294009CCDE900B400F000FC03B0BDE88B
:10059000F08F00200146F9E72DE9F04D81EA0304D0
:1005A00004F0004B21F0004514464FF0000A23F000
:1005B000004150EA050220D054EA01021DD0C5F3E3
:1005C0000A570246C5F31303C1F31300C1F30A56D9
:1005D00040F4801543F48013A7EB0608101BD646A1
:1005E00008F2FD3873EB050002D308F1010801E0C1
:1005F00092185B41B8F1000F03DA00200146BDE814
:10060000F08D00204FF48011064684460EE0171B43
:1006100073EB050705D3121B63EB050306434CEA96
:10062000010C49084FEA300092185B4150EA01077B
:10063000EDD152EA030012D082EA040083EA0501F8
:10064000084305D0101BAB4106D20122002306E06F
:1006500000224FF0004302E06FF0010253101AEB4A
:1006600006004CEB085110EB0A0041EB0B01BDE812
:10067000F04D00F07CBB30B5041E71F1000404DBCA
:100680004FF00044404264EB0101141E73F100047A
:1006900005DB1C464FF00043524263EB0403101A83
:1006A0008B4101D2012030BD002030BD30B5041E89
:1006B00071F1000404DB4FF00044404264EB01019F
:1006C000141E73F1000405DB1C464FF00043524238
:1006D00063EB0403801A994101D2012030BD002050
:1006E00030BD70B5C1F30A5201F000450024C1F3DA
:1006F000130140F2FF3341F480119A4201DA0020E5
:1007000070BD40F233439A42A2F2334203DC5242BC
:1007100000F078F800E090402C43F1D0404270BDEA
:1007200001F0004330B421F0004150EA010206D04C
:100730000A0DA2F56072C1F31301002A02DC30BC7D
:1007400000207047440F44EAC104C100E01830BCE7
:1007500000EBC25000F0D4BA30B50B460146002081
:100760002022012409E021FA02F59D4205D303FA73
:1007700002F5491B04FA02F52844151EA2F10102F4
:10078000F1DC30BD2DE9F05F0546002092469B4626
:1007900088460646814640241BE028464146474697
:1007A000224600F02FF853465A46C01A914110D302
:1007B00011461846224600F016F82D1A67EB01087C
:1007C0004F4622460120002100F00DF817EB0009EA
:1007D0004E41201EA4F10104DFDC484631462A4682
:1007E0004346BDE8F09F202A04DB203A00FA02F1DC
:1007F000002070479140C2F1200320FA03F319430F
:1008000090407047202A04DB203A21FA02F00021B0
:10081000704721FA02F3D040C2F120029140084310
:1008200019467047202A06DBCB17203A41FA02F01E
:1008300043EAE07306E041FA02F3D040C2F120023D
:1008400091400843194670472DE9FF4F087883B05F
:100850009946FF2805D0491C2D2804D000240020EB
:1008600008E000200BE00124F9E700EB800003EB37
:100870004000491C0B78FF2BF7D104B14042002304
:100880000293147819461D462D2C01D02B2C04D12F
:10089000521C2D2C13D000240294AA461478FF2C4D
:1008A0000FD00A25A3FB057801FB05814FF0000C52
:1008B00003FB0C11521CE3194AEB0101EEE7012482
:1008C000EAE7814453EA010002D019F5C87F06DA4D
:1008D00003980021C0E9001107B0BDE8F08F0025A2
:1008E000AE4E2F46DFF8B882184600F04FFBCDE938
:1008F0000001B9F1000002DAC9F1000400E0044689
:100900000023A74A1AEB030B42EB045A12E0E0075C
:1009100007D02A46334638464146FFF7CBFD074607
:1009200088462A46334610461946FFF7C3FD05465A
:100930000E466410002CEAD1DDE90001B9F1000F88
:100940005A46534606DAFFF727FE3A464346FFF774
:1009500023FE05E0FFF7AEFD3A464346FFF7AAFD4A
:10096000029A0AB181F00041039AC2E90001B3E79B
:100970002DE9FF4F1F468DB0D7E901464FF0FF38F4
:100980002E2045464FF000090B90B9696D1C0E985A
:100990008847396A824688470028F6D1BAF1FF3F76
:1009A0000AD024F4D064002E11DDBAF12B0F08D048
:1009B000BAF12D0F0BD102E0404611B08DE744F49F
:1009C0008064B9696D1C0E9888478246761E694618
:1009D000600501D52D2000E02B208DF8000001F1ED
:1009E000010B0DF1200809E0B9696D1C0E988847CC
:1009F00082460F9844F40074761E0560002E02DDD6
:100A0000BAF1300FF0D00B998A453ED144F0800402
:100A100006E00F99681CA9F1010944F4007408600C
:100A2000B9696D1C761E0E98884782463028F0D032
:100A30002BE00B998A4505D1200603D444F08004AD
:100A4000761E18E050460CF0D9FB08B30DF11302E6
:100A5000761EAAF1300044F40074934506D20BF8D8
:100A6000010B200607D5A9F1010003E0200602D4FE
:100A700009F101008146A00502D50F99681C0860A4
:100A8000B9696D1C0E9888478246002ED1DC53E070
:100A9000002E51DDBAF1650F02D0BAF1450F4BD1EE
:100AA000A00549D5B9696D1C24F44074761E0E98D2
:100AB00088478246002E0CDD2B2804D0BAF12D0F7A
:100AC00007D144F48074B9696D1C0E98884782463A
:100AD000761EE00501D52D2100E02B2108F8011B31
:100AE000CDF82C8021E00DF12901761E44F400742C
:100AF00088450CD2AAF1300010F0FF0088F8000001
:100B000002D10B99884509D908F1010806E0E005F2
:100B100001D5244801E042F20F708146B9696D1C8D
:100B20000E98884782460F980560002E04DD5046D7
:100B30000CF064FB0028D6D1F9690E988847FF2095
:100B40008BF8000088F800000020069007904B46C4
:100B50006A4608A906A8FFF777FEA00502D46FF041
:100B600001002AE714F0240F0AD0E00714D1DDE9D0
:100B700006123868031D3B600068C0E900120BE0F4
:100B8000DDE90601FFF7CCFD0146E00704D1386836
:100B9000021D3A600068016028460EE7000014401C
:100BA0000000F03FF1D8FFFF426842B1016811F840
:100BB000013B23B1521EC0E90012184670470121C3
:100BC000C160881E704742685AB1C368016843B962
:100BD00083688B4205D0491E521CC0E900120020D8
:100BE00070474FF0FF3070470FB40B0010B58AB05C
:100BF0000FA900910E994FF00004234ACC60214CBC
:100C0000CDE9064200D004236FF00042CDE9013265
:100C10001E4A089202466B460020FFF7A9FE0AB062
:100C200010BC5DF814FBF0B585B007464FF0FF30FF
:100C30000091CDE901011E46002015460C460490A6
:100C40003B466A46314604A8FFF7CEFF04990346A7
:100C5000601825B109B1024600E022462A60002949
:100C60000ED0002B02DD0099814209D00094001BB8
:100C7000CDE901043B466A46314604A8FFF7B4FFBC
:100C800005B0F0BDA90B0008C70B0008C10E000895
:100C90002DE9F04791460F4680460446002614F899
:100CA000015B2DB100F008F90068405DC007F6D186
:100CB0002B2D02D02D2D18D0641E4A4639462046D1
:100CC00000F015F927B13968A14201D1C7F80080B9
:100CD00071054FF002040BD54042002803DD0CF0F3
:100CE00061F90460A007BDE8F08746F48066E4E798
:100CF0000028F8DA0CF056F904606FF00040F2E7D3
:100D00000029A8BF7047401C490008BF20F001001F
:100D1000704710B4B0FA80FC00FA0CF050EA0104FD
:100D200004BF10BC704749B1CCF1200421FA04F48F
:100D300011FA0CF118BF012121430843A3EB0C0168
:100D4000CB1D4FEA00614FEA102042BF002010BCCB
:100D5000704700EBC35010440029A4BF10BC70477B
:100D6000401C490008BF20F0010010BC704710B5BE
:100D7000141E73F1000408DA401C41F100019218BE
:100D80005B411A4301D120F0010010BD2DE9F04D67
:100D900092469B4611B1B1FA81F202E0B0FA80F2BC
:100DA00020329046FFF71FFD04460F4640EA0A0036
:100DB00041EA0B0153465A46084313D0114653EA01
:100DC000010019D0C8F140025046FFF71BFD05464F
:100DD0000E46504659464246FFF705FD084305D0EA
:100DE000012004E020463946BDE8F08D002005438F
:100DF00046EAE0762C4337430A986305E40AA0EB01
:100E000008000022FD0A44EA47540A3002D50020B7
:100E10000146E9E7010510196941DDE908450019B6
:100E20006941BDE8F04DA2E7C1F30A52C1F31301D5
:100E300040F2FF3341F480119A4202DA0020014669
:100E4000704740F233439A42A2F2334202DC5242EC
:100E5000FFF7D8BCFFF7C7BC30B5041E71F1000422
:100E600004DB4FF00044404264EB0101141E73F1B7
:100E7000000405DB1C464FF00043524263EB0403C1
:100E8000994208BF904230BD1CB5094800900948FE
:100E900001900546009C06E0E06840F0010394E8FC
:100EA000070098471034AC42F6D3FFF723F900004F
:100EB00088FE0008A8FE000800487047B8DA00085D
:100EC00010B50446FFF7F8FF0068005D00F0010070
:100ED00010BD3A2800D2303820F02002412A01D338
:100EE000A2F13700884201D34FF0FF3070472DE95F
:100EF000F05F82460078002715468B460AF1010410
:100F0000B946302801D09DB113E014F8010B012738
:100F1000782803D0582801D045B10AE00DB1102D32
:100F200007D10027102514F8010B02E0082500E086
:100F30000A250026B0460EE005FB080005FB06F179
:100F4000012701EB10461FFA80F8B6F5803F00D369
:100F5000B94614F8010B2946FFF7BBFF0028EBDA6E
:100F6000BBF1000F05D00FB1641E00E05446CBF872
:100F70000040B9F1000F06D00CF014F80221016016
:100F8000C81EBDE8F09F48EA0640FAE70EB540F2F9
:100F9000334202920022CDE900221346FFF7F6FE0B
:100FA00003B000BD70B58C1810F8015B15F0070395
:100FB00001D110F8013B2A1106D110F8012B03E0F2
:100FC00010F8016B01F8016B5B1EF9D12B0705D4FA
:100FD0000023521E0DD401F8013BFAE710F8013B43
:100FE000CB1A921C03E013F8015B01F8015B521E5F
:100FF000F9D5A142D8D3002070BD000080B509F01A
:1010000063FF002080BD000010B5CEB0DDF844C104
:10101000DDF840C14C904B91ADF82A2149934C9892
:1010200030B1FFE7519818B1FFE74B9820B9FFE7BF
:1010300001208DF8370198E04C98406820B9FFE70F
:1010400005208DF8370190E05098002814D4FFE770
:1010500050980F2810DCFFE74C9840685099090120
:10106000405840B1FFE74C984068509909014058FA
:101070000BF09CFFFFE7FFE752A80890519A089BEE
:1010800009A84FF480710BF073FF4FF0FF30079009
:101090005098002807D4FFE750980F2803DCFFE79B
:1010A0005098079016E000200690FFE706980F285A
:1010B0000FDCFFE74C98406806990901405818B9C1
:1010C000FFE70698079004E0FFE7069801300690D6
:1010D000ECE7FFE70798013020B9FFE706208DF81D
:1010E000370142E009A8FFF7F5F8013005900598AF
:1010F0000BF08AFF0490049820B9FFE707208DF8D1
:10110000370132E00498059A09A9FFF7CDF84C9809
:10111000406807990901405840B1FFE74C98406882
:101120000799090140580BF041FFFFE74C98D0F8B0
:1011300004E007980EEB00110401049800904B980E
:101140000190BDF82A01ADF8080049980390DDF838
:1011500000C00198029A039B4EF804C0CB608A60DD
:10116000486004208DF83701FFE79DF837014EB045
:1011700010BD000082B001900198009000990320FA
:10118000087002B07047000082B001900198009092
:1011900000990120087002B07047000080B586B049
:1011A000059005980490049828B1FFE70498806999
:1011B000007808B9FFE750E00498816900200190A9
:1011C0000870049803F0D0FB0198ADF80E00FFE71B
:1011D000BDF80E1000200F2900900BDCFFE70498EB
:1011E0008068BDF80E1050F83100002818BF0120AB
:1011F0000090FFE70098C00758B3FFE704988168A4
:101200000069BDF80E2051F83210FFF73BF802904C
:101210000298B8B1FFE704988068BDF80E1000EBA3
:10122000C100406850B1FFE704988168BDF80E2006
:1012300001EBC2014A6802999047FFE7049803F066
:1012400041FB0AE0FFE7BDF80E000130ADF80E00EB
:10125000BEE7049903200870FFE706B080BD0000D8
:1012600080B584B00390039802900298007D102806
:1012700007DBFFE702990020087502990320087038
:1012800037E002994868097D0901405838B9FFE7FD
:1012900002990020087502990320087029E002983D
:1012A0004168027D01EB0213120189585A681B89BB
:1012B000EE464FF0000CCEF800C000F02FF8A8B9B1
:1012C000FFE702994868097D00EB0110C06840B152
:1012D000FFE702994868097D00EB0110C06880476C
:1012E000FFE70299087D0130087500E0FFE7FFE79E
:1012F000FFE704B080BD000080B582B00190019886
:10130000009000980022114603F0FCFA00980BF0C0
:10131000EFFA00990220087002B080BD80B5CCB011
:10132000DDF838C14A9049914892ADF81E314A988B
:1013300003F0C8FA0DF11E0004904FF48071039180
:10134000FEF789FF03990498499B4EF6F752C0F6C1
:1013500000020BF0DFFD04984A990591FEF7BAFFF1
:1013600004990246059892B205F0F0FE03F00AFBDC
:101370000690FFE703F006FB0699401ABDF81E1120
:10138000884230D2FFE74A9880690078012826D148
:10139000FFE74A9803F0E8FA4A98006902904898F3
:1013A0000190FEF797FF019A034602984FF480716F
:1013B00003F0A4FB90B1FFE74E9840B1FFE74E98D1
:1013C0004A9909694FF48072FEF72CFFFFE74A98AB
:1013D00003F078FA00208DF82F0108E0FFE70A20DB
:1013E00003F088FAC6E701208DF82F01FFE79DF88A
:1013F0002F014CB080BD000080B582B00190FFE7A6
:1014000040F21010C2F2000000F072F84FF47A704F
:1014100008F068FFF4E7000080B58AB069466420F0
:10142000C8600A2088604FF48050486041F2540040
:10143000C2F20000086040F6D470C2F200004EF61E
:10144000E621C0F6000141F2F932C0F600020023A5
:1014500008F01CFF0990099838B9FFE740F6D470EE
:10146000C2F2000008F0A0FFFFE7694602200790E3
:1014700048604EF66020086042F6E030C2F200009C
:1014800005904EF6D821C0F600014CF23152C0F65C
:1014900000020023069309F037F9059809F054F982
:1014A000069B0798694648604DF2C040C0F20100B3
:1014B000086042F60C40C2F2000008904EF6DF21B0
:1014C000C0F600014CF25952C0F6000209F01CF9B6
:1014D000089809F039F90AB080BD000082B0019087
:1014E0000198009000990320087002B07047000036
:1014F00080B582B00190019808B9FFE720E001981B
:1015000000788DF803009DF8030007280BDCFFE747
:101510009DF8031040F20430C2F2000000EBC1005D
:10152000406808B9FFE70BE09DF8031040F2043073
:10153000C2F2000000EBC100416801988847FFE754
:1015400002B080BD8CB0DDF830C00A9009910892DD
:10155000079300200190069005900490039002905C
:10156000049005900690FFE706980C99884280F059
:101570008680FFE700200390FFE706990C9A002081
:101580009142009009D2FFE707980699405C203805
:10159000B0FA80F040090090FFE70098C00738B12A
:1015A000FFE7069801300690039801300390E4E7C6
:1015B00006980C99884201D1FFE760E00C980699E3
:1015C000401A02280ED3FFE707980699405C0D28C1
:1015D00008D1FFE707990698084440780A2801D106
:1015E000FFE748E007980699405C0A2801D1FFE729
:1015F00041E0039820B1FFE76FF02B000B90D2E0A1
:1016000007980699405C3D280AD1FFE7049801300D
:101610000490032804D3FFE76FF02B000B90C2E087
:1016200007980699405C7F280BDCFFE7079806992E
:10163000415C4EF2FA30C0F60000405C7F2804D1D5
:10164000FFE76FF02B000B90ADE007980699415C27
:101650004EF2FA30C0F60000405C3F2807DCFFE79E
:10166000049820B1FFE76FF02B000B909BE00598EA
:1016700001300590FFE706980130069074E7059861
:1016800028B9FFE70899002008600B908BE00599C6
:10169000C80800EB4000400001F0070101EB4102E7
:1016A000072101EB420100EBD10005900499059858
:1016B000401A05900A9828B1FFE7099805998842D1
:1016C00007D2FFE70598089908606FF029000B9092
:1016D00069E0032004900020039005900A9802908E
:1016E000FFE70698002856D0FFE7079800780D28F6
:1016F0000AD0FFE7079800780A2805D0FFE7079887
:101700000078202801D1FFE73EE0079801784EF2EB
:10171000FA30C0F60000435C04994A1E402B08BF13
:10172000114604910399079A1278805C00F03F00FB
:1017300040EA81100390059801300590042822D1D9
:10174000FFE700200590049838B1FFE7BDF80E00D0
:1017500002994A1C02920870FFE70498022807D3F6
:10176000FFE70398000A02994A1C02920870FFE7FB
:101770000498032806D3FFE7039802994A1C0292B3
:101780000870FFE7FFE7FFE7069801380690079823
:1017900001300790A5E702980A99401A0899086055
:1017A00000200B90FFE70B980CB070478CB0DDF871
:1017B00030C00A9009910892079300200690059086
:1017C00004900390029001900C9828B9FFE70899C3
:1017D000002008600B90E2E00C984AF6AB21CAF6B4
:1017E000AA21A0FB01235808012101EB5301B2F10A
:1017F000553F88BF084605900598B0F1804F08D343
:10180000FFE708994FF0FF3008606FF029000B9058
:10181000C5E0059880000590099805990131884236
:1018200003D3FFE70A9840B9FFE70598013008990C
:1018300008606FF029000B90B1E00C984AF6AB21DC
:10184000CAF6AA21A0FB0110400800EB4000059059
:10185000002006900A980190FFE7069805998842B3
:1018600040D2FFE70798411C079100780490079841
:10187000411C0791007803900798411C079100785C
:1018800002900498C0F385014EF27A40C0F6000041
:10189000415C019A531C0193117004990901039A48
:1018A00001EB121101F03F01415C019A531C0193BD
:1018B000117003998900029A01EB921101F03F0126
:1018C000415C019A531C01931170029901F03F0190
:1018D000405C01994A1C01920870FFE706980330AA
:1018E0000690BAE706980C9988424ED2FFE707980F
:1018F000411C079100780490069801300C998842A9
:1019000006D2FFE70798411C07910078009002E09B
:1019100000200090FFE7009803900498C0F3850131
:101920004EF27A40C0F60000415C019A531C0193CC
:10193000117004990901039A01EB121101F03F01A2
:10194000405C01994A1C01920870069801300C997C
:1019500088420ED2FFE7039800F00F014EF27A4062
:10196000C0F6000010F8210001994A1C019208708D
:1019700005E00199481C01903D200870FFE701999E
:10198000481C01903D200870FFE701980A99401A11
:10199000089908600199002008700B90FFE70B98E8
:1019A0000CB07047FFE7FEE782B001908DF803109E
:1019B0009DF8030030B1FFE70199086840F001008D
:1019C000086006E0019908684FF6FE721040086052
:1019D000FFE702B07047000081B0009000990868EE
:1019E0004FF6FE72104008600099002008600099D0
:1019F0004860009988600099C86000980821C4F286
:101A00000201884208D1FFE70421C4F202010868FC
:101A100040F00F000860B9E000981C21C4F20201F8
:101A2000884208D1FFE70421C4F20201086840F0AF
:101A3000F0000860A9E000983021C4F20201884259
:101A400008D1FFE70421C4F20201086840F4706085
:101A5000086099E000984421C4F20201884208D14C
:101A6000FFE70421C4F20201086840F470400860F6
:101A700089E000985821C4F20201884208D1FFE7AA
:101A80000421C4F20201086840F47020086079E083
:101A900000986C21C4F20201884208D1FFE70421BA
:101AA000C4F20201086840F47000086069E0009820
:101AB0008021C4F20201884208D1FFE70421C4F268
:101AC0000201086840F07060086059E0009840F238
:101AD0000841C4F20201884209D1FFE740F2044103
:101AE000C4F20201086840F00F00086047E0009867
:101AF00040F21C41C4F20201884209D1FFE740F2E2
:101B00000441C4F20201086840F0F000086035E0CA
:101B1000009840F23041C4F20201884209D1FFE747
:101B200040F20441C4F20201086840F470600860A9
:101B300023E0009840F24441C4F20201884209D1F6
:101B4000FFE740F20441C4F20201086840F470402B
:101B5000086011E0009840F25841C4F20201884246
:101B600009D1FFE740F20441C4F20201086840F4E1
:101B700070200860FFE7FFE7FFE7FFE7FFE7FFE709
:101B8000FFE7FFE7FFE7FFE7FFE7FFE701B0704789
:101B900081B000900098406880B201B070470000AA
:101BA00080B583B0029001910020009002980068F7
:101BB0000090009847F6F071884300900199D1F8A1
:101BC00020E08868D1F810C04B698A6940EA0E00AD
:101BD00040EA0C0018431043CA6910434A6A104394
:101BE000896A0143009808430090009802990860B0
:101BF0000198C0680299486001980068029988605D
:101C0000019840680299C86003B080BD82B001901D
:101C1000ADF80210BDF802000199486002B07047AB
:101C20007047000088B0079006910020059004904E
:101C300003900290019000900698C07800F00F0089
:101C400005900698C078C006002806D5FFE70698DC
:101C50008178059808430590FFE7069800780028EA
:101C60004BD0FFE707980068019000200390FFE742
:101C7000039807283DD8FFE7039901208840029088
:101C800006980088029908400490049802998842B6
:101C90002AD1FFE703988000029002990F20884024
:101CA000009000990198884301900598029900FAE4
:101CB00001F10198084301900698C078282806D1C0
:101CC000FFE7039901208840079948610BE00698D7
:101CD000C078482806D1FFE703990120884007997A
:101CE0000861FFE7FFE7FFE7FFE703980130039094
:101CF000BEE7019807990860FFE706980088B0F5ED
:101D0000807F50DBFFE70798406801900020039038
:101D1000FFE70398072842D8FFE7039800F108017E
:101D2000012088400290069800880299084004909B
:101D30000498029988422DD1FFE703988000029011
:101D400002990F20884000900099019888430190E3
:101D50000598029900FA01F101980843019006984C
:101D6000C078282808D1FFE7039800F10801012076
:101D7000884007994861FFE70698C078482808D14D
:101D8000FFE7039800F108010120884007990861E6
:101D9000FFE7FFE7FFE7039801300390B9E70198F9
:101DA00007994860FFE708B07047000082B00190D3
:101DB000ADF8021000208DF8010001988068BDF890
:101DC0000210084204D0FFE701208DF8010003E073
:101DD00000208DF80100FFE79DF8010002B0704778
:101DE00082B00190ADF80210BDF80200019948617F
:101DF00002B0704782B00190ADF80210BDF8020049
:101E00000199086102B0704782B00190ADF80210EC
:101E10008DF801209DF8010028B1FFE7BDF8020010
:101E20000199086104E0BDF8020001994861FFE7EB
:101E300002B0704786B00590049100200390029094
:101E400001908DF803000598808A02900598008B18
:101E5000019001980004019002980199084320F034
:101E60007F400390039804990840884204D1FFE71B
:101E700001208DF8030003E000208DF80300FFE748
:101E80009DF8030006B0704782B001908DF80310F2
:101E90009DF8030030B1FFE70199088840F0010088
:101EA000088005E00199088820F001000880FFE71C
:101EB00002B0704782B001908DF803109DF80300C6
:101EC00030B1FFE70199088840F48070088005E090
:101ED0000199088820F480700880FFE702B07047FD
:101EE00082B001908DF803109DF8030030B1FFE738
:101EF0000199088840F40070088005E0019908887D
:101F000020F400700880FFE702B0704785B00490AD
:101F1000039100208DF80B00019000900498009030
:101F20000398000F0190039820F07F4003900198E0
:101F300020B1FFE700981430009006E0BDF80E00D5
:101F40000390009818300090FFE70098006803990C
:101F5000084204D0FFE701208DF80B0003E00020C9
:101F60008DF80B00FFE79DF80B0005B070470000EF
:101F700080B58CB00B900A9100200190ADF826003E
:101F8000ADF824000420ADF8220041F20020C0F298
:101F90007A0007900B988088ADF82600BDF82600DF
:101FA00020F03F00ADF8260002A801F0C5FA019824
:101FB0000499079107994DF68362C4F21B32A1FB85
:101FC0000221890CADF82410BDF82420BDF826109C
:101FD0001143ADF82610BDF826100B9A91800B9A8C
:101FE000118821F001011180ADF826000A980068DF
:101FF00048F2A061C0F2010188421ED8FFE70798AD
:102000000A9909684900B0FBF1F0ADF82200BDF86B
:102010002200032804DCFFE70420ADF82200FFE7DC
:10202000BDF82210BDF826000843ADF82600BDF823
:10203000240001300B99088446E00A98C0884BF6CA
:10204000FF7188420AD1FFE707980A99096801EBF6
:102050004101B0FBF1F0ADF822000FE007980A99BA
:10206000096819225143B0FBF1F0ADF82200BDF828
:10207000220040F48040ADF82200FFE7BDF82200C6
:10208000000538B9FFE7BDF8220040F00100ADF8C7
:102090002200FFE7BDF82200BDF82610084340F4F7
:1020A0000040ADF82600BDF824004FF49671484377
:1020B00044F6BB11C0F20C21A0FB0101012000EB92
:1020C000D1000B990884FFE7BDF826000B9988839F
:1020D0000B99088840F0010008800B980088ADF843
:1020E0002600BDF826004FF6F5310840ADF8260071
:1020F0000A99888849890143BDF826000843ADF84C
:102100002600BDF826000B9908800A99888909895C
:1021100008430B9908810CB080BD000082B001908B
:102120008DF803108DF802209DF8020038B1FFE70A
:102130009DF8030040F001008DF8030006E09DF8D3
:10214000030000F0FE008DF80300FFE79DF8030098
:102150000199088202B0704782B001908DF8031097
:102160009DF803000199088202B0704780B582B0E3
:102170008DF807008DF80610FFE745F20040C4F225
:1021800000004FF40031FFF7C1FE08B1FFE7F4E7AC
:1021900045F20040C4F200000121FFF78BFEFFE78B
:1021A00045F20040C4F200000121C0F20301FFF734
:1021B00041FE08B9FFE7F3E745F20040C4F2000032
:1021C00078210022FFF7AAFFFFE745F20040C4F2A2
:1021D00000008221C0F20701FFF72CFE08B9FFE7DB
:1021E000F3E79DF8071045F20040C4F20000FFF746
:1021F000B3FFFFE745F20040C4F200008421C0F2C3
:102200000701FFF717FE08B9FFE7F3E79DF806108F
:1022100045F20040C4F20000FFF79EFFFFE745F2E1
:102220000040C4F200008421C0F20701FFF702FE63
:1022300008B9FFE7F3E745F20040C4F200000121CE
:10224000FFF74EFE02B080BD80B584B00390FFE77B
:1022500000208DF80B00FFE79DF80B00002841DC03
:10226000FFE79DF80B0000EB400142F6A810C2F218
:10227000000000EB8100807900F01000012811D1EE
:10228000FFE79DF80B0000EB400142F6A810C2F2F8
:10229000000000EB810250F821009188D279FFF70D
:1022A000B3FD18E09DF80B0000EB400242F6A810C9
:1022B000C2F20000019000EB820150F822008988F0
:1022C000FFF774FD01999DF80B2002EB420201EB30
:1022D00082010872FFE7FFE79DF80B0001308DF8DF
:1022E0000B00B9E7642007F0FDFFB1E783B002906F
:1022F000019102980090009900200875009A02212F
:10230000117003B070470000FFE7FEE780B584B0AE
:102310000390ADF80A108DF80920039840F60001EB
:10232000C4F20101884205D1FFE70420012101F038
:10233000CBF838E0039840F60041C4F2010188422E
:1023400005D1FFE70820012101F0BEF82AE003983B
:1023500041F20001C4F20101884205D1FFE71020DB
:10236000012101F0B1F81CE0039841F20041C4F2F0
:102370000101884205D1FFE72020012101F0A4F8E6
:102380000EE0039841F60001C4F20101884205D134
:10239000FFE74020012101F097F800E013E0FFE79C
:1023A000FFE7FFE7FFE7BDF80A00ADF804009DF87E
:1023B00009008DF8070003208DF80600039801A995
:1023C000FFF730FCFFE704B080BD000080B58AB0A5
:1023D0004FF4001000900121049101F059F8009889
:1023E0000021029101F054F80098049901F034F8AA
:1023F0000499082001F068F81C208DF82700C020FF
:10240000ADF8240003208DF8260040F60040C4F209
:102410000100019009A9FFF705FC0198049A4021E9
:10242000FFF7F2FC0198049A8021FFF7EDFC029877
:10243000ADF8180041F68020C0F2060005904BF67A
:10244000FF70ADF81A004FF48060ADF81E004FF435
:102450008040ADF820003020ADF81C0045F200406F
:10246000C4F20000039005A9FFF782FD03980499C8
:10247000FFF70AFD0AB080BD80B592B01190002030
:10248000ADF84200ADF84000ADF83E00119843F2BF
:102490000001C4F2010188421BD1FFE704200121A1
:1024A000069101F011F806994FF4805001F00CF8F4
:1024B0008020ADF842004020ADF840002020ADF86B
:1024C0003E0040F60000C4F201000E900D900C900A
:1024D00026E0119843F60001C4F2000188421ED1A3
:1024E000FFE708200121049100F0EEFF04994FF46A
:1024F0008040059000F0E8FF05984FF40041ADF8EA
:102500004210ADF840004FF40050ADF83E0040F6E8
:102510000040C4F201000E900D900C90FFE7FFE721
:1025200040F60000C4F20100019010220292114610
:10253000FFF7ECFE0C98BDF83E1018220092FFF752
:10254000E5FE009A0E98BDF84210FFF7DFFE0D98E9
:10255000BDF840104822FFF7D9FE4FF48270ADF865
:1025600020000020ADF81E00ADF82200ADF82C00D0
:102570003021ADF82A10ADF82400ADF826004FF454
:102580000070ADF828000720ADF82E0011980DF16D
:102590001E0101F0CDF811980121039101F086F898
:1025A00001980299039AFFF72FFC12B080BD00003A
:1025B00080B5AEB02D9000202B902D988089ADF87D
:1025C000AA002D9800680E9044F20041C4F2000168
:1025D000884233D0FFE70E9844F60001C4F20001B0
:1025E00088424DD0FFE70E9843F60001C4F2010186
:1025F000884268D1FFE74FF4804001210C9100F040
:1026000063FF0C99084600F00BFF40F60000C4F28F
:1026100001000D904FF400711822FFF777FE0D981E
:102620004FF480610422FFF771FE25208DF8A6008B
:1026300043F60400C4F201002B9045E04FF4003053
:102640000121099100F008FF0999084600F0E8FE11
:1026500040F60000C4F201000A9004210B911822F8
:10266000FFF754FE0A980B9A0821FFF74FFE262029
:102670008DF8A60044F20440C4F200002B9023E041
:102680004FF480200121079100F0E6FE07990846EB
:1026900000F0C6FE40F60040C4F2010008904FF47E
:1026A00080611822FFF732FE08984FF4006104227F
:1026B000FFF72CFE27208DF8A60044F60400C4F294
:1026C00000002B9000E0B7E02D98006801F07EFB41
:1026D0002D984068259000200590ADF89800ADF841
:1026E0009A00ADF89C00ADF8A0000C20ADF89E005B
:1026F0002D98006825A901F0FFFC2D98006840F294
:1027000024410122069201F0ADFC059A2D98006843
:1027100040F2266101F0A6FC069A2D98006840F26E
:10272000255101F09FFC4FF4A06000F0DDF8059901
:1027300006988DF8A7108DF8A8108DF8A9000DF156
:10274000A60000F07DF82D98806998B3FFE72D98DA
:10275000006840F225510022039201F083FC2D987D
:102760008069FFF739F903982D9949691B911C90ED
:10277000BDF8AA101D911E9080211F9120902190DC
:10278000202122914FF40051239124902B981A90EC
:102790002D9880691AA9FFF703FA2D980068402147
:1027A0000122049201F0F8FA04992D988069FFF74C
:1027B000FBF8FFE72D98C06970B3FFE72D98C0695B
:1027C000FFF70AF92D98006804300F902D980069E2
:1027D0001090102011902D98C08912900020139015
:1027E0008021019114911590169017904FF400518B
:1027F000189119902D98C0690FA9FFF7D1F9019987
:102800002D9800680122029201F0C6FA02992D98D3
:10281000C069FFF7C9F8FFE72D9800680121009112
:1028200001F0A4FA009A2D9824304EF65E21C0F6ED
:10283000000107F015F9FFE72EB080BD70470000DA
:1028400084B003900020029001900F200090039824
:10285000C078B8B3FFE74EF60C50CEF20000006827
:10286000C043C0F3022002900298C0F1040001901E
:1028700000980299C84000900398407801998840D8
:1028800002900398807800990140029808430290D2
:102890000298000102900298039909784EF20042D2
:1028A000CEF2000288540398027802F01F01012042
:1028B00088401C2101EAD2014EF20012CEF2000241
:1028C00088500EE00398027802F01F010120884032
:1028D0001C2101EAD2014EF28012CEF20002885091
:1028E000FFE704B07047000081B00090009800211D
:1028F000C0F2FA5108434EF60C51CEF200010860C6
:1029000001B0704781B000208DF80200FFE79DF80C
:102910000200072823DCFFE700208DF80300FFE713
:102920009DF803007F2813DCFFE79DF8021040F6B6
:102930005000C2F2000000EBC1119DF803200020FE
:102940008854FFE79DF8030001308DF80300E7E7A6
:10295000FFE79DF8020001308DF80200D7E701B0D3
:102960007047000082B08DF807008DF806108DF8D2
:1029700005208DF804309DF80700802801DBFFE773
:1029800064E09DF80600402801DBFFE75EE09DF86B
:1029900007009DF805100844812807DBFFE79DF834
:1029A0000700C0F180008DF80500FFE79DF80600E4
:1029B0009DF804100844412807DBFFE79DF8060056
:1029C000C0F140008DF80400FFE79DF806008DF887
:1029D0000200FFE79DF802009DF806109DF8042014
:1029E0001144884232DAFFE79DF807008DF80300B2
:1029F000FFE79DF803009DF807109DF8052011449E
:102A000088421CDAFFE79DF8021001F0070201205E
:102A100000FA02F36FF0700000EA011140F6500076
:102A2000C2F2000001449DF80320885C984388545A
:102A3000FFE79DF8030001308DF80300D9E7FFE7B9
:102A40009DF8020001308DF80200C3E702B0704724
:102A500080B5FFF7BBFC80BD80B5FFF7F9FFAE2066
:102A600000F05AFAD52000F057FA802000F054FA0E
:102A7000A82000F051FA3F2000F04EFAD32000F0D9
:102A80004BFA002000F048FA402000F045FAA1205F
:102A900000F042FAC82000F03FFADA2000F03CFAD9
:102AA000122000F039FA812000F036FACF2000F031
:102AB00033FAD92000F030FAF12000F02DFADB20B3
:102AC00000F02AFA302000F027FAA42000F024FABF
:102AD000A62000F021FA8D2000F01EFA142000F04C
:102AE0001BFAAF2000F018FA80BD000080B582B05C
:102AF0008DF807008DF806109DF8070040F0B00033
:102B000000F00AFA9DF806000009103000F004FAFF
:102B10009DF8060000F00F0000F0FEF902B080BD45
:102B200080B582B08DF807008DF806108DF805206D
:102B30008DF804309DF80400082815D1FFE79DF8B2
:102B400007009DF806109DF805304DF60A52C0F6B4
:102B5000000202EB0312A2F500726B461A60082213
:102B6000102300F01FF81BE09DF80400062816D182
:102B7000FFE79DF807009DF806109DF8052002EB81
:102B800042034DF6D022C0F6000202EB4302C03AE7
:102B90006B461A600622082300F004F8FFE7FFE7FF
:102BA00002B080BD80B582B0DDF810C08DF807009E
:102BB0008DF806108DF805208DF804309DF807007B
:102BC000802801DBFFE798E09DF80600402801DB44
:102BD000FFE792E09DF807009DF806109DF805209C
:102BE0009DF80430FFF7BEFE00208DF80200FFE7DD
:102BF0009DF802009DF80410013901EB517201218A
:102C000001EBE201884278DAFFE700208DF803004B
:102C1000FFE79DF803009DF80510884266DAFFE79C
:102C20009DF807009DF803100844802801DBFFE7AA
:102C30005CE09DF806109DF8020000EBD10008282A
:102C400001DBFFE759E004999DF802009DF805308B
:102C50009DF8032000FB0323CB5C9DF8061001F0D8
:102C6000070C03FA0CF300EBD10140F65000C2F25E
:102C7000000000EBC1119DF807000244885C184376
:102C800088549DF806109DF8020000EBD100013039
:102C9000082801DBFFE723E004999DF802009DF876
:102CA00005209DF8033000FB02328A5C9DF8061077
:102CB00001F0070CCCF1080C22FA0CF200EBD10168
:102CC00040F65000C2F2000000EBC1109DF8071062
:102CD0001944014491F88000104381F88000FFE717
:102CE0009DF8030001308DF8030092E7FFE79DF89F
:102CF000020001308DF802007AE702B080BD0000CA
:102D000080B584B08DF80F008DF80E1002928DF80A
:102D1000073000208DF80600FFE702989DF80610A6
:102D2000405CB8B1FFE79DF80F009DF806C09DF824
:102D300007300CFB03009DF80E10029A12F80C20CD
:102D4000C0B2FFF7EDFEFFE79DF8060001308DF8F9
:102D50000600E2E704B080BD80B582B00190FFF7C5
:102D60007BFEFFE700F034F84FF47A7007F0BAFA10
:102D7000F8E7000080B586B00023059369464FF45C
:102D80007A70C8600A2088604FF40070486040F68E
:102D9000D040C2F20000086040F65040C2F200008D
:102DA0004EF6D321C0F6000142F65952C0F6000299
:102DB00007F06CFA0590059838B9FFE740F65040E7
:102DC000C2F2000007F0F0FAFFE706B080BD000095
:102DD00080B586B0FFF796FD40F29070C2F2000019
:102DE0000190002102914022039206F0DFFD01983C
:102DF0004EF6C821C0F600010AF0A6F8019A029921
:102E000008230846FFF77CFF01980299039A06F011
:102E1000CDFD40F21010C2F200000078014604918E
:102E2000052847D80499DFE801F0030E19242F3A4A
:102E300040F29070C2F200004EF6AC21C0F60001E4
:102E40000AF082F836E040F29070C2F200004EF6CE
:102E5000BA21C0F600010AF077F82BE040F290703A
:102E6000C2F200004EF68221C0F600010AF06CF8B2
:102E700020E040F29070C2F200004EF67421C0F6DD
:102E800000010AF061F815E040F29070C2F2000013
:102E90004EF69021C0F600010AF056F80AE040F222
:102EA0009070C2F200004EF69E21C0F600010AF0BA
:102EB0004BF8FFE740F29072C2F2000200201021AE
:102EC0000823FFF71DFF00F003F806B080BD0000E7
:102ED00080B582B000208DF80700FFE79DF807005D
:102EE000072817DCFFE79DF807000021FFF7FEFD2C
:102EF0009DF8071040F65000C2F2000000EBC11030
:102F0000802100F015F8FFE79DF8070001308DF8EB
:102F10000700E3E702B080BD80B582B08DF80700FE
:102F20009DF807100020FFF721F902B080BD0000D6
:102F300080B582B001908DF80310FFE745F20040A4
:102F4000C4F200004FF40031FEF7E0FF08B1FFE7E4
:102F5000F4E745F20040C4F200000121FEF7AAFFA9
:102F6000FFE745F20040C4F200000121C0F2030176
:102F7000FEF760FF08B9FFE7F3E745F20040C4F24F
:102F8000000078210022FFF7C9F8FFE745F2004072
:102F9000C4F200008221C0F20701FEF74BFF08B91E
:102FA000FFE7F3E745F20040C4F200004021FFF7DD
:102FB000D3F8FFE745F20040C4F200008421C0F2DC
:102FC0000701FEF737FF08B9FFE7F3E700208DF8A8
:102FD0000200FFE79DF802009DF8031088421EDA08
:102FE000FFE701989DF80210415C45F20040C4F2F1
:102FF0000000FFF7B1F8FFE745F20040C4F200001F
:103000008421C0F20701FEF715FF08B9FFE7F3E7D7
:10301000FFE79DF8020001308DF80200DAE745F283
:103020000040C4F200000121FEF75AFF02B080BD4B
:1030300080B58EB00C9000208DF807008DF806004A
:103040000C98FDF747F98DF805000C9828B1FFE7BB
:103050009DF805001B2804DCFFE701208DF83700F0
:10306000E5E0FFE79DF807009DF80510884212DAB9
:10307000FFE70C989DF80720805C02A988540C9902
:103080009DF8072000208854FFE79DF807000130D5
:103090008DF80700E6E79DF8072002A90020885474
:1030A0008DF807008DF80600FFE79DF807009DF8F2
:1030B0000510884280F2B380FFE79DF8071002A850
:1030C000405C2038014600911F2800F2938000994F
:1030D000DFE801F0209090609050709090909010F8
:1030E0009090903090909090909090909090909040
:1030F000908090400C989DF8061008444EF6385188
:10310000C0F60001FDF7B2F89DF8060003308DF817
:1031100006007DE00C989DF8061008444EF62351F9
:10312000C0F60001FDF7A2F89DF8060003308DF807
:1031300006006DE00C989DF8061008444EF64051CC
:10314000C0F60001FDF792F89DF8060003308DF8F7
:1031500006005DE00C989DF8061008444EF64451B8
:10316000C0F60001FDF782F89DF8060003308DF8E7
:1031700006004DE00C989DF8061008444EF63051BC
:10318000C0F60001FDF772F89DF8060003308DF8D7
:1031900006003DE00C989DF8061008444EF62C51B0
:1031A000C0F60001FDF762F89DF8060003308DF8C7
:1031B00006002DE00C989DF8061008444EF6345198
:1031C000C0F60001FDF752F89DF8060003308DF8B7
:1031D00006001DE00C989DF8061008444EF63C5180
:1031E000C0F60001FDF742F89DF8060003308DF8A7
:1031F00006000DE09DF8071002A8405C0C999DF8B0
:10320000062088549DF8060001308DF80600FFE77F
:10321000FFE79DF8070001308DF8070045E70C999E
:103220009DF80620002088548DF83700FFE79DF8B0
:1032300037000EB080BD0000B0B5D8B08C468646D1
:103240005F985E995D9C5C9CCDF858E1CDF854C1C7
:1032500054925393ADF84A118DF8490100205190D2
:103260005698B0B1FFE7559898B1FFE7549845F2EA
:103270009541C5F6415188420BD3FFE7539840B1C1
:10328000FFE75D9828B1FFE7BDF84A01772804DC25
:10329000FFE701208DF85F01BDE021A80E904021DD
:1032A0000C91FCF7D8FF53980D90FDF713F80C998B
:1032B0000D9B02460E98EC46CCF8002051AAFEF772
:1032C00041F90FA84821FCF7C6FF9DF84901C00746
:1032D000A0B1FFE7549B5598569A69468A604860AA
:1032E0004EF62750C0F6000008604EF66852C0F651
:1032F00000020FA8482109F00DFE17E0549B5598D5
:103300005C9ADDF858C16946C1F80CC08A60486013
:103310004EF62750C0F6000008604EF64852C0F640
:1033200000020FA8482109F0F5FDFFE731A80A9037
:1033300040210991FCF78FFF21A80890FCF7CAFFF4
:1033400006900FA80790FCF7C5FF0699079ADDF8CD
:1033500028C003460898EE46CEF800C003F094FA61
:1033600009990020519041A80B90FCF774FF0A982E
:10337000FCF7B0FF09990A9B02460B98EC46CCF883
:10338000002051AAFEF712FA0B98FFF751FE9DF8A4
:103390004901C007E0B1FFE75D98BDF84A11569BAF
:1033A000559ADDF850E1EC4641ACCCF80C404EF6B5
:1033B0002754C0F60004CCF80840CCF804E0CCF860
:1033C00000204EF6C452C0F6000209F0A3FD1EE034
:1033D0005D98BDF84A11569B559ADDF870E1549CF2
:1033E000EC4641ADCCF810504EF62755C0F600051E
:1033F000CCF80C50CCF80840CCF804E0CCF8002015
:103400004EF67D52C0F6000209F084FDFFE7002071
:103410008DF85F01FFE79DF85F0158B0B0BD000077
:1034200082B001908DF803109DF8030048B1FFE7CA
:10343000019A41F21401C4F20201086810430860C5
:1034400008E0019A41F21401C4F2020108689043B5
:103450000860FFE702B0704782B001908DF803105A
:103460009DF8030048B1FFE7019A41F21C01C4F244
:10347000020108681043086008E0019A41F21C014B
:10348000C4F20201086890430860FFE702B0704789
:1034900082B001908DF803109DF8030048B1FFE75A
:1034A000019A41F21001C4F2020108681043086059
:1034B00008E0019A41F21001C4F202010868904349
:1034C0000860FFE702B0704782B001908DF80310EA
:1034D0009DF8030048B1FFE7019A41F21801C4F2D8
:1034E000020108681043086008E0019A41F21801DF
:1034F000C4F20201086890430860FFE702B0704719
:1035000082B001908DF803109DF8030048B1FFE7E9
:10351000019A41F20C01C4F20201086810430860EC
:1035200008E0019A41F20C01C4F2020108689043DC
:103530000860FFE702B0704786B005900020049055
:1035400003900290019041F20400C4F2020000686E
:1035500000F00C0004900498009040B1FFE7009840
:1035600004280BD0FFE7009808280ED047E0059903
:1035700041F20020C0F27A00086047E0059941F26C
:103580000020C0F27A00086040E041F20400C4F27A
:103590000200016801F470110391006800F48030AA
:1035A00002900399022000EB91400390029848B9E1
:1035B000FFE7039840F60011C0F23D01484305992A
:1035C00008601BE041F20400C4F2020000688003BE
:1035D000002809D5FFE7039840F60011C0F23D012D
:1035E00048430599086008E0039841F20021C0F2C1
:1035F0007A01484305990860FFE7FFE706E005996F
:1036000041F20020C0F27A000860FFE741F20400B6
:10361000C4F20200016801F0F00104910499090963
:103620000491049A4DF6C021C0F600018A5C019213
:10363000059B1A68DDF804C022FA0CF25A60026891
:1036400002F4E0620492049A120A0492049A8A5CD8
:103650000192059B5A68DDF804C022FA0CF29A60C8
:10366000026802F460520492049AD20A0492049A04
:10367000895C0191059A5168019BD940D16000682D
:1036800000F4404004900498800B049004994DF697
:10369000BC20C0F60000405C01900599C868019A02
:1036A000B0FBF2F0086106B07047000082B00190F4
:1036B0008DF803109DF8030030B1FFE701990888E9
:1036C00040F04000088005E00199088820F04000A3
:1036D0000880FFE702B0704782B00190ADF8021099
:1036E00000208DF8010001980089BDF80210084003
:1036F000000420B1FFE701208DF8010003E0002065
:103700008DF80100FFE79DF8010002B0704700004E
:1037100081B000900098808901B0704782B001901C
:10372000ADF80210BDF802000199888102B070471F
:1037300083B0029001910020ADF802000298008849
:10374000ADF80200BDF8020000F44150ADF80200EF
:10375000019908884A8810438A881043CA88104310
:103760000A8910434A8910438A891043C989014351
:10377000BDF802000843ADF80200BDF8020002994E
:1037800008800299888B20F4006088830198008A61
:103790000299088203B070477047000080B500F0BE
:1037A00001F880BD84B000200390029041F2000136
:1037B000C4F20201086840F480300860FFE741F27B
:1037C0000000C4F20200006800F400300290039888
:1037D00001300390FFE702990020019039B9FFE71B
:1037E0000398B0F5A06018BF01200190FFE7019891
:1037F000C0070028E3D1FFE741F20000C4F2020055
:1038000000688003002803D5FFE70120029002E052
:1038100000200290FFE70298012851D1FFE742F211
:103820000001C4F20201086840F010000860086856
:1038300020F003000860086840F00200086041F2D0
:103840000401C4F202010091086808600868086079
:10385000086840F480600860086820F47C10086004
:10386000086840F4E810086041F20001C4F2020167
:10387000086840F080700860FFE741F20000C4F281
:10388000020000688001002801D4FFE7F5E741F25B
:103890000401C4F20201086820F00300086008680F
:1038A00040F002000860FFE741F20400C4F20200A9
:1038B000006800F00C00082801D0FFE7F4E700E002
:1038C000FFE704B07047000080B582B00090009818
:1038D0000138B0F1807F03D3FFE70120019019E0A8
:1038E000009801384EF21401CEF2000108604FF04A
:1038F000FF300F2100F0BCFC4EF21801CEF20001A7
:10390000002008604EF21002CEF200020721116082
:103910000190FFE7019802B080BD000080B505F07E
:1039200033FD06F011FE05F041FD80BD80B541F28A
:103930000002C4F20202106840F00100106041F27F
:103940000401C4F2020108680023CFF6FF03184007
:10395000086010684FF6FF73CFF6F66318401060EA
:10396000106820F480201060086820F4FE000860D1
:1039700041F20801C4F202014FF41F000860FFF792
:103980000DFF4EF60851CEF200014FF000600860C6
:1039900080BD000080B588B0022001900121039114
:1039A000FFF75AFD42F20F70ADF81A0041F61F40C2
:1039B000ADF816000020ADF81C00ADF8180040F27C
:1039C0000040C4F2000002900DF1160100F0ECF886
:1039D0000298039A114600F0CDF84FF4A060FEF76C
:1039E00083FF019903981D228DF812208DF8131082
:1039F0008DF814108DF815000DF11200FEF720FF60
:103A00000298039900F072F8039808B080BD000096
:103A100080B584B040F20040C4F20000012100F003
:103A20007BF8002853D0FFE740F21010C2F20000EC
:103A30000078022843DCFFE740F6D062C2F20002C1
:103A40001078411C11703D2838DBFFE740F2101060
:103A5000C2F20000039000F5A8700190FCF73AFC58
:103A6000039A0146019802F598720292FCF7F3FB63
:103A70000298039A43F23561C3F63701C2F8541134
:103A800043F23121C3F23341C2F85011FCF722FC5A
:103A900001460298FCF7DFFB039946F26D10C6F66B
:103AA0006960C1F8300142F63810C2F200004EF6EB
:103AB000F921C0F6000105F0B9FEFFE7FFE740F28B
:103AC0000040C4F20000012100F004F8FFE704B058
:103AD00080BD000082B00190ADF80210BDF8020078
:103AE000C0430199088202B07047000082B0019083
:103AF0008DF803109DF8030030B1FFE701990888A5
:103B000040F00100088005E00199088820F00100DC
:103B10000880FFE702B0704783B00290ADF806104E
:103B200000208DF80500ADF80200ADF80000029805
:103B3000008ABDF806100840ADF80200029880899E
:103B4000BDF806100840ADF80000BDF8020040B115
:103B5000FFE7BDF8000020B1FFE701208DF8050068
:103B600003E000208DF80500FFE79DF8050003B095
:103B70007047000082B00190ADF802108DF801206E
:103B80009DF8010038B1FFE7BDF80220019988894E
:103B90001043888106E0BDF802200199888990438E
:103BA0008881FFE702B0704783B002900191002046
:103BB000ADF8020002980088ADF80200029842F6C3
:103BC0000041C4F20101884225D0FFE7029843F288
:103BD0000041C4F2010188421DD0FFE70298B0F114
:103BE000804F18D0FFE7029840F20041C4F2000174
:103BF000884210D0FFE7029840F60001C4F20001AD
:103C0000884208D0FFE7029840F60041C4F2000164
:103C100088420ED1FFE7BDF8020020F07000ADF839
:103C2000020001984188BDF802000843ADF8020087
:103C3000FFE7029841F20001C4F20001884216D069
:103C4000FFE7029841F20041C4F2000188420ED021
:103C5000FFE7BDF8020020F44070ADF802000198C3
:103C6000C188BDF802000843ADF80200FFE7BDF8C7
:103C7000020002990880019880880299888501983D
:103C8000008802990885029842F60041C4F20101B9
:103C9000884220D0FFE7029843F20041C4F20101BC
:103CA000884218D0FFE7029844F20001C4F20101F3
:103CB000884210D0FFE7029844F20041C4F20101AB
:103CC000884208D0FFE7029844F60001C4F20101DF
:103CD000884205D1FFE70198007A02990886FFE73C
:103CE00002990120888203B07047000080B540F23D
:103CF0002860C2F20000012100F04AF980BD0000F6
:103D000080B540F22860C2F200004830022100F085
:103D10003FF980BD80B540F22860C2F200009030CB
:103D2000032100F035F980BD83B00290ADF8061094
:103D30000020ADF80400ADF80200BDF8060040F622
:103D40006A11884201D1FFE7FFE79DF80700ADF84F
:103D50000400BDF8041001208840ADF80200BDF851
:103D60000200C0430299088003B0704782B00190FE
:103D70008DF803109DF8030030B1FFE701998889A1
:103D800040F40050888105E00199888920F40050B2
:103D90008881FFE702B0704782B00190ADF8021051
:103DA0008DF801209DF8010038B1FFE7BDF8022031
:103DB0000199888A1043888206E0BDF802200199A3
:103DC000888A90438882FFE702B0704780B586B04A
:103DD0000590059843F60001C4F2010188420BD119
:103DE000FFE74FF4804004900121FFF789FB04981E
:103DF0000021FFF785FB4FE0059844F20041C4F233
:103E0000000188420BD1FFE74FF4003003900121FD
:103E1000FFF73EFB03980021FFF73AFB3BE00598D4
:103E200044F60001C4F2000188420BD1FFE74FF4D1
:103E3000802002900121FFF72BFB02980021FFF761
:103E400027FB27E0059844F60041C4F200018842B0
:103E50000BD1FFE74FF4002001900121FFF718FB81
:103E600001980021FFF714FB13E0059845F20001CB
:103E7000C4F2000188420BD1FFE74FF4801000909C
:103E80000121FFF705FB00980021FFF701FBFFE789
:103E9000FFE7FFE7FFE7FFE706B080BD82B00190D4
:103EA000ADF8021000208DF80100BDF80200B0F559
:103EB000007F01D1FFE7FFE701980088BDF80210FD
:103EC0000840000420B1FFE701208DF8010003E065
:103ED00000208DF80100FFE79DF8010002B0704757
:103EE00086B00590ADF8121000200390029001906A
:103EF0008DF80300BDF8120040F66A11884201D126
:103F0000FFE7FFE79DF8120040090190BDF812009D
:103F100000F01F0002900299012088400290019851
:103F2000012806D1FFE70598818902980840029090
:103F300010E00198022806D1FFE70598018A02984F
:103F40000840029005E00598818A02980840029096
:103F5000FFE7FFE79DF813000390039901208840D5
:103F6000039005980188039808400390029838B19F
:103F7000FFE7039820B1FFE701208DF8030003E07D
:103F800000208DF80300FFE79DF8030006B070479E
:103F900080B588B007908DF81B100798006840F234
:103FA0002441FFF79DFF00285AD0FFE707980068DB
:103FB00040F224410391002200F054F8039907983D
:103FC0000068008805900798006880880590079829
:103FD0000068FFF7A9FE48F2A060C0F2010004905B
:103FE000FFE70498411E049108B1FFE7F9E707983D
:103FF000818902918069FDF7CBFD01460298401A44
:1040000007994881079824304FF0FF3105F0D2FD21
:1040100058B9FFE7079A5169106A528904F0DCFF2A
:104020000798243005F03CFDFFE707990120019037
:104030000872079880690021FDF7B6FC0799886926
:104040008989FDF7E3FD019907988069FDF7ACFCCC
:10405000019A0798006840F2244100F003F8FFE756
:1040600008B080BD86B00590ADF812108DF8112013
:1040700000200390029001900090BDF8120040F6DD
:104080006A11884201D1FFE7FFE7059800909DF88B
:10409000120040090390BDF8120000F01F000290CA
:1040A00002990120884001900398012804D1FFE77C
:1040B00000980C3000900CE00398022804D1FFE730
:1040C00000981030009003E0009814300090FFE753
:1040D000FFE79DF8110030B1FFE7019A00990868E9
:1040E0001043086005E0019A009908689043086051
:1040F000FFE706B07047000080B58CB00B900A91C6
:104100000020099008900790069005900A988089F1
:1041100008B1FFE7FFE70B9805900B98008A09901C
:1041200009984CF6FF71084009900A98C1880998CF
:104130000843099009980B9908820B988089099087
:1041400009984EF6F311084009900A9988880A895F
:1041500010434989014309980843099009980B992C
:1041600088810B98808A099009984FF6FF41084092
:1041700009900A98818909980843099009980B9930
:1041800088826846FFF7D8F9059843F60001C4F223
:104190000101884203D1FFE70398089002E00298EA
:1041A0000890FFE70B988089000400280AD5FFE7F4
:1041B0000898192148430A9909684900B0FBF1F0B1
:1041C000079009E00898192148430A99096889006D
:1041D000B0FBF1F00790FFE7079848F21F51C5F2D6
:1041E000EB11A0FB01016FF00F0000EA51000990F4
:1041F000079A09980009642100FB112006900B988A
:1042000080890004002810D5FFE70699322000EBD2
:10421000C10048F21F51C5F2EB11A0FB0110C0F321
:1042200042110998084309900FE00699322000EBEB
:10423000011048F21F51C5F2EB11A0FB0110C0F3B1
:104240004311099808430990FFE709980B990881E1
:104250000CB080BD82B00190ADF80210BDF8020034
:104260006FF35F200199888002B07047FFE7FEE797
:1042700082B08DF8070000919DF9070000280AD44C
:10428000FFE7009800019DF907104EF20042CEF2C0
:10429000000288540BE0009800019DF8071001F01F
:1042A0000F014EF61452CEF200028854FFE702B01E
:1042B00070470000BFF34F8F4EF60C51CEF2000155
:1042C000086800F4E0600422C0F2FA52104308606B
:1042D000BFF34F8FFFE700BFFDE7000082B0009003
:1042E000009818B9FFE70020019033E09DF8000026
:1042F00050B1FFE79DF800104EF2FA20C0F6000022
:10430000405C0130019025E09DF8010050B1FFE7CD
:104310009DF801104EF2FA20C0F60000405C093012
:10432000019017E09DF8020050B1FFE79DF80210E0
:104330004EF2FA20C0F60000405C1130019009E016
:104340009DF803104EF2FA20C0F60000405C1930D0
:104350000190FFE7019802B07047000080B588B077
:1043600084460D980C98DDF82CE0DDF828E0CDF8B7
:104370001CC00691059204938DF80F000798143025
:1043800005F098F80598079908620498079948621B
:104390000A98079988620B980799C8620799886AF2
:1043A000CA6A232105F002FB079B186A596A9A6AB8
:1043B000DB6A1A44043A4AF2C913C0F6000304F057
:1043C000A5FF0799C8619DF80F00079981F836008D
:1043D0009DF80F00079981F8350007980021029198
:1043E00081630D98079A50640D98079A9064079816
:1043F0000163079880F83410079881670798C167B0
:10440000079B03F14C006A46516011604AF23D423D
:10441000C0F60002194606F077F9029808B080BD90
:1044200080B586B084460898CDF814C004910392F4
:1044300002938DF807009DF80700059948720599C9
:10444000487A00F0FE00487204980599C861039804
:10445000059908620599002088620299059A5162BF
:104460000090FFE7009800280CDCFFE70598009912
:1044700000EBC100143005F025F8FFE7009801308B
:104480000090EFE706B080BD80B582B001900020BB
:104490000090FFE7009800280CDCFFE701980099E6
:1044A00000EBC100143005F0DBF8FFE700980130A5
:1044B0000090EFE702B080BD80B582B00190FBF7BD
:1044C00031FE00900198806F20B1FFE70198816F65
:1044D0008847FFE70098FBF729FE02B080BD000087
:1044E00080B58CB00A9009910892079300208DF84E
:1044F0001B000A982030059001208DF80C000A98C6
:10450000C0B9FFE74FF2C950C0F600006946086025
:104510004FF22750C0F600004FF2E822C0F600022A
:104520004FF2D353C0F600034FF4147107F07AF939
:10453000FFE7FEE70A9890F83400C007C0B9FFE72C
:104540004FF2C950C0F60000694608604FF227508C
:10455000C0F600004FF2E822C0F600024FF2E1532D
:10456000C0F6000340F2512107F05CF9FFE7FEE7D7
:104570000998089908440A99096988420AD9FFE705
:104580004FF2C610C0F6000007F074F905208DF850
:104590002F00C8E00598806820B1FFE70598816882
:1045A0008847FFE79DF82400C007C0B1FFE70A98DD
:1045B00009994A1C0992079A531C07936B461A6083
:1045C00001231A4602F034FE8DF81B009DF81B00F3
:1045D00008B1FFE791E0089801380890FFE70A98D2
:1045E000012106F04DFE8DF81B009DF81B0008B15F
:1045F000FFE782E0AD208DF80E00FFE70898022863
:1046000060D3FFE79DF80C00C00710B3FFE70A98DE
:1046100009990DF10E020292013202F029FC029A70
:104620000A9890F83500C1070420002918BF05201A
:104630008DF80D00079800789DF80D1050540798DC
:1046400040789DF80D101144487000208DF80C0042
:104650000BE001208DF80D00079800788DF80F0011
:10466000079840788DF81000FFE70598D0F804C04F
:104670009DF80D108A1C694600230B600DF10E0198
:10468000E0478DF81B009DF81B0038B1FFE74FF2A3
:104690009920C0F6000007F0EDF82EE00A9808F027
:1046A00069FB8DF81B009DF81B0008B1FFE724E0B3
:1046B000089802380890099802300990079802304B
:1046C00007909BE70A98002106F0DAFD8DF81B00A1
:1046D0009DF81B0080B9FFE7089801280CD1FFE77F
:1046E0000A980999079A6B461A6001231A4602F044
:1046F0009FFD8DF81B00FFE7FFE79DF81B0028B129
:10470000FFE70A98002106F0BBFDFFE70598C068A7
:1047100020B1FFE70598C1688847FFE79DF81B00B7
:104720008DF82F00FFE79DF82F000CB080BD000032
:1047300080B588B007900691059200208DF813008F
:104740000DF10B0001900120009001980099FF22CB
:10475000FBF77AFD05980390039840B1FFE70798AF
:104760000699039A01F032FA8DF81300FFE70598D5
:104770000399401A03909DF81300A0B9FFE703982E
:1047800088B1FFE701980699059A1144039AFBF74F
:1047900049FD0798059908440199009A01F016FA15
:1047A0008DF81300FFE79DF8130008B080BD0000EE
:1047B00080B588B0079006914FF0FF30059000213A
:1047C0000491039107986B4659604AF68572C0F6CA
:1047D00000021A6004AA03AB06F08CFB039878B1C0
:1047E000FFE707986A460121516044F65901C0F677
:1047F00000011160022106AA05AB06F07BFBFFE772
:10480000049830B3FFE70598013010BBFFE7049828
:10481000012808D8FFE742F2E800C2F20000007861
:10482000C00770B1FFE707986B460121596044F655
:104830005902C0F600021A6006AA05AB06F05AFB40
:1048400006E042F2E801C2F2000101200870FFE731
:10485000FFE7059808B080BD86B0049003910292EE
:10486000039801900298009004980078C00708B35C
:10487000FFE7049800690199096888421AD9FFE79F
:104880000498807801280DD0FFE7049880780228EA
:1048900010D1FFE742F2E800C2F200000078C00742
:1048A00040B9FFE7049840690099086001208DF83D
:1048B000170003E000208DF81700FFE79DF81700B0
:1048C00006B0704780B582B00190019881690020E0
:1048D00008700198C068006A04F0F8FA019800694D
:1048E0004FF48071FBF7B7FC0198C06807F048FEF1
:1048F00002B080BD80B582B00190019805F0F2FC55
:1049000002B080BD85B0049003910292049808B96A
:10491000FFE727E0049940F22860C2F20000C86077
:10492000039818B1FFE70398019005E040F21000EA
:10493000C2F200000190FFE70198049948600298D4
:1049400018B1FFE70298009005E040F28020C2F223
:1049500000000090FFE70098049988600499002007
:104960000875FFE705B0704780B582B001900199E6
:10497000C8680969006A4FF4807204F0B7FA02B09F
:1049800080BD000080B505F0D9FD80BD80B5ADF5D6
:10499000886DCDF83804CDF83414DDF83404CDF842
:1049A0003004DDF83804CDF82C04DDF8300400289C
:1049B00000F09B80FFE7DDF830047B21FBF780FCF3
:1049C000CDF82804DDF830047D21FBF7B4FCCDF8E8
:1049D0002404DDF8280458B1FFE7DDF8240438B1D9
:1049E000FFE7DDF82404DDF82814884208D2FFE749
:1049F000DDF82C140320087001208DF83F0478E0C6
:104A0000DDF82404DDF82814401A0130CDF8200424
:104A1000DDF82004B0F5806F08D9FFE7DDF82C142D
:104A20000320087002208DF83F0462E0DDF82814AE
:104A3000DDF820240DF11F000190FBF735FC0198F3
:104A4000DDF820240021815400F05AFA06900698DF
:104A500038B9FFE700F0E4F9059003208DF83F0432
:104A600047E006984FF26851C0F6000100F0ECF9FB
:104A700004900498D0B1FFE705208DF80F00FFE700
:104A8000DDF82C040499096906F038FB0C280CD0D9
:104A9000FFE79DF80F00411E8DF80F1008B9FFE7E2
:104AA00003E06420FFF726FFEAE706E0069800F03F
:104AB00035F904208DF83F041BE006984EF61A6184
:104AC000C0F6000100F0B4F90290029848B1FFE787
:104AD000029842F2F831C2F20001102202F04CF8C2
:104AE000FFE7069800F01AF9FFE700208DF83F0471
:104AF000FFE79DF83F040DF5886D80BD80B5ADF5ED
:104B0000866DCDF82804CDF82414CDF82024CDF8F6
:104B10001C34DDF8280478B1FFE7DDF8200458B133
:104B2000FFE7DDF81C0438B1FFE7DDF82404DDF809
:104B30001C14884204D2FFE70020CDF82C0497E033
:104B4000DDF82804CDF81804DDF82004CDF81404AD
:104B5000DDF81C0404282ED8FFE70020CDF810044F
:104B6000FFE7DDF81004DDF82414DDF81C24891AB1
:104B700088421CD8FFE7DDF81804DDF8101408445B
:104B8000DDF81414DDF81C24FBF7B9FB40B9FFE78E
:104B9000DDF81804DDF810140844CDF82C0467E0A3
:104BA000FFE7DDF810040130CDF81004D9E700204C
:104BB000CDF82C045CE000200390FFE70398FF2869
:104BC0000BD8FFE7DDF81C04039A04A941F8220082
:104BD000FFE7039801300390F0E700200290FFE721
:104BE0000298DDF81C140139884210D2FFE7DDF885
:104BF0001C14029AD0430844DDF814148A5C04A9FA
:104C000041F82200FFE7029801300290E8E7DDF862
:104C10001804DDF824140844DDF81C14401A01902F
:104C2000FFE7DDF81804019988421DD8FFE7DDF899
:104C30001804DDF81414DDF81C24FBF760FB28B918
:104C4000FFE7DDF81804CDF82C0411E0DDF81804B6
:104C5000DDF81C14014411F8012C04A951F82210AC
:104C60000844CDF81804DCE70020CDF82C04FFE759
:104C7000DDF82C040DF5866D80BD000080B507F0D1
:104C800053FF02F04FFAFCF7C7FBFEF773F801F091
:104C900017FF00F0FFFCFEF77DFE012080BD000045
:104CA00083B00190019820B1FFE70198006818B91E
:104CB000FFE7002002902EE0FFE70199002000901E
:104CC00091B1FFE70198426881680020914200900D
:104CD0000AD2FFE7019908688968415C0020212910
:104CE000B8BF01200090FFE70098C00728B1FFE798
:104CF0000199886801308860DFE701984168806821
:104D0000884205D1FFE70199886801388860FFE78C
:104D100001980290FFE7029803B0704780B582B017
:104D2000019000200090FFE70198002840D0FFE7A5
:104D30000198006800900198407BC00748B9FFE7E0
:104D40000198806828B1FFE701988068FFF7E6FFC7
:104D5000FFE70198407BC00768B9FFE70198006949
:104D600048B1FFE740F2FC30C2F200004168019810
:104D700000698847FFE70198407B800700280DD431
:104D8000FFE70198006A48B1FFE740F2FC30C2F249
:104D9000000041680198006A8847FFE740F2FC3054
:104DA000C2F2000041680198884700980190BBE773
:104DB00002B080BD80B584B0029001910198B0F13D
:104DC000FF3F03DCFFE70020039005E00298019914
:104DD00001F088F90390FFE7039804B080BD00005C
:104DE00084B00290002001900090029818B9FFE76B
:104DF0000020039010E0029880680190FFE701987E
:104E000038B1FFE7009801300090019800680190E8
:104E1000F5E700980390FFE7039804B0704700009F
:104E200042F2EC01C2F20001086849680844704788
:104E300080B582B00190009101980099002201F0A4
:104E4000C3FA02B080BD000080B582B0019000912D
:104E500001980099012201F0B7FA02B080BD00006C
:104E600082B00090009818B9FFE70020019007E099
:104E70000098007B2038B0FA80F040090190FFE7ED
:104E8000019802B07047000082B00090009818B9F5
:104E9000FFE70020019007E00098007B4038B0FA5F
:104EA00080F040090190FFE7019802B070470000D0
:104EB00082B00090009818B9FFE70020019007E049
:104EC0000098007B1038B0FA80F040090190FFE7AD
:104ED000019802B07047000080B582B0019001983F
:104EE0000168282088470090009828B1FFE70098C3
:104EF0002821FBF7B0F9FFE7009802B080BD000061
:104F000080B582B0019001980022114600F002F8AD
:104F100002B080BD80B590B00E900D910C92002033
:104F200001900B900A9009900890079006900590C8
:104F3000049042F2EC01C2F20001086048600E9851
:104F400008B9FFE745E00E9805900E98FBF7C2F907
:104F5000013006900020079040F2FC30C2F20000C1
:104F60000168426883680B930A920991FFF7B4FFC6
:104F70000490049808B9FFE72BE00498009005A876
:104F800007F0CCF8FFF78CFE0146009802F08AFE8D
:104F900008B9FFE71DE00C9878B1FFE705A8FFF717
:104FA0007FFE06990798884205D2FFE70598079982
:104FB000405C08B1FFE70CE0FFE70D9830B1FFE778
:104FC0000598079908440D990860FFE704980F9029
:104FD00032E0049820B1FFE70498FFF79FFEFFE757
:104FE0000E9830B3FFE70E980290002003900699C8
:104FF0000798884203D2FFE70798039007E00698D6
:1050000020B1FFE7069801380390FFE7FFE70D980E
:1050100030B1FFE70298039908440D990860FFE753
:1050200042F2EC01C2F200010298039A4A60086061
:10503000FFE700200F90FFE70F9810B080BD000041
:1050400080B586B004900391049818B1FFE70398E7
:1050500018B9FFE70120059033E0049803998842CE
:1050600003D1FFE7002005902BE0FFE704980078CC
:10507000FBF7D2F8029003980078FBF7CDF80146D1
:10508000029888420FD1FFE70498007818B9FFE72B
:105090000020059015E0FFE7049801300490039884
:1050A00001300390E2E704980078FBF7B5F801902F
:1050B00003980078FBF7B0F801460198401A059074
:1050C000FFE7059806B080BD80B586B004900391D7
:1050D000029204984078C007D0B1FFE704980078A6
:1050E000032815D1FFE70498817800F110024EF6ED
:1050F0006E70C0F6000000F0E3FC049801F01CFFA5
:1051000008B9FFE703E001208DF8170016E011E071
:105110000498007801280CD1FFE70498006B0DF18A
:1051200007010622052307F0AFFE01208DF81700C6
:1051300004E0FFE700208DF81700FFE79DF8170057
:1051400006B080BD80B584B00390029101920398AF
:105150000078C00770B1FFE703988078032809D171
:10516000FFE742F2E801C2F200010120087000F0FE
:105170008FFFFFE7002004B080BD000080B584B041
:1051800003900291019203980078C007A8B9FFE745
:1051900002980090039841684EF6F460C0F6000053
:1051A00000F08EFC009908680130086003984068A0
:1051B0004FF0FF3100F0BEFEFFE7002004B080BDDD
:1051C00080B590B00E900D9100208DF813000E98D0
:1051D0000290FFE70E980D9988423AD2FFE70E98A9
:1051E00020300D99884203D2FFE72020019004E08F
:1051F0000D980E99401A0190FFE70E98019A05A9A3
:1052000000F0CEFC00200390FFE70398019988424C
:105210001AD2FFE79DF81300FF280BD0FFE7039990
:1052200005A8405CFF2805D1FFE70E9803990844C4
:105230000290FFE7039905A8405C8DF81300FFE793
:10524000039801300390E0E7FFE70E9820300E90BE
:10525000C0E79DF81300FF2803D1FFE702980F90E5
:1052600002E00D980F90FFE70F9810B080BD00008E
:1052700080B592B010900F910E920D9300208DF892
:1052800033008DF817001098406904900F98FBF7D1
:1052900021F821280BD3FFE74EF6F670C0F6000088
:1052A000202100F00DFC04208DF84700E5E04FF0D0
:1052B000FF300B900A90099008900790069045F2F5
:1052C0004B60C3F2340007900F98FBF703F88DF89A
:1052D00028000D980B909DF828100B980844183062
:1052E00008900898B0F57F6F0AD9FFE74FF25E008B
:1052F000C0F6000000F0E4FB06208DF84700BCE09B
:105300000498013050B9FFE71098089901F056FF52
:1053100004900130002800F0A780FFE79DF83300DB
:1053200048B9FFE7109808990DF1170207F01CFA29
:105330008DF83300FFE79DF83300002841D1FFE7E7
:10534000FF208DF80B0006A800F11001002001904D
:10535000082200F009FA099009980F999DF8282071
:1053600000F002FA0146019809910390FFE70398C3
:10537000411E039140B1FFE709980DF10B01012295
:1053800000F0F2F90990F2E70E9909980B9A00F0F3
:10539000EBF9099000200390FFE70398411E039169
:1053A00040B1FFE709980DF10B01012200F0DCF993
:1053B0000990F2E7049806A907F03CFD8DF8330048
:1053C000FFE79DF8330008BBFFE7049818300F99FA
:1053D0009DF82820FFF7ACF98DF833009DF81700F1
:1053E000C00760B9FFE710984068049A9DF828103C
:1053F00011440B9A1144183107F006FAFFE70F9891
:105400009DF82810049A07F0CFF8FFE79DF83300C5
:1054100060B9FFE704999DF82800084418300E99F8
:105420000B9AFFF785F98DF83300FFE79DF83300FD
:1054300048B9FFE7049806A90622022307F024FDD5
:105440008DF83300FFE79DF8330060B9FFE79DF862
:105450001700C00738B1FFE742F2E801C2F20001CD
:1054600001200870FFE703E006208DF83300FFE716
:105470009DF833008DF84700FFE79DF8470012B014
:1054800080BD000080B596B0149013918DF84B202C
:1054900000208DF84A00139870B9FFE7149802A90C
:1054A00000F040FC18B1FFE702A8139003E00420CD
:1054B0008DF8570071E0FFE79DF84B00C00788B9F1
:1054C000FFE71398006B0DF143010622032307F059
:1054D000DBFC8DF84A0042F26001C2F200010120BB
:1054E000087038E01398006B0DF143010622042385
:1054F00007F0CAFC8DF84A0042F26000C2F20000D8
:105500000078C00700BBFFE79DF84A00E0B9FFE75D
:10551000149858B1FFE714980190FAF7DBFE0146A2
:1055200001984FF0FF3207F03FF80CE0139848B1B4
:10553000FFE7139901F1100089784FF0FF3207F06F
:1055400033F8FFE7FFE7FFE742F26001C2F2000134
:1055500000200870FFE71398006B012161F30B0036
:1055600011909DF84A0098B9FFE711980DF1430199
:10557000042203F02BFC01280AD1FFE711980DF15A
:1055800043010422022307F07FFC8DF84A00FFE765
:105590009DF84A008DF85700FFE79DF8570016B0B8
:1055A00080BD000083B00290019101980A2815D1B6
:1055B000FFE7029800684CF6CD42CCF6CC42A0FB47
:1055C0000231C90801EB8101A0EB41000090029972
:1055D0000868A0FB0220C008086009E00298006883
:1055E00000F00F0000900299086800090860FFE7CA
:1055F000009803B07047000080B592B011901091F0
:105600000F9211980078C007002840D0FFE711984A
:105610008078022805D0FFE711988078032836D1DA
:10562000FFE71198406801300DF1030104220323C4
:1056300007F02AFC4FF0FF300D90FFE7119801A909
:1056400000F034FE0D900130D0B1FFE701A803F067
:10565000A5F89DF80500C00788B1FFE79DF8040094
:10566000022805D0FFE79DF80400032807D1FFE7D3
:1056700001A801F061FC08B1FFE7FFE7FFE7DDE704
:10568000119840684FF0FF3100F054FCFFE7002014
:1056900012B080BD4EF6FC51CEF20001086840F019
:1056A0008070086041F20401CEF200010020086021
:1056B00041F20001CEF20001086840F001000860EC
:1056C0007047000080B584B0002002908DF8030080
:1056D00042F26100C2F200000078C00720B1FFE78B
:1056E00000208DF80F003BE001A802A900F03EFA6F
:1056F0008DF803009DF8030038B9FFE7019802997F
:1057000000F058F88DF80300FFE79DF8030088B912
:10571000FFE742F26101C2F20001012008704EF67B
:105720009960C0F600004EF6BF61C0F6000100F0BF
:10573000C7F90AE04EF67660C0F600004EF6BF618B
:10574000C0F6000100F0BCF9FFE74EF62D60C0F690
:10575000000000F0B5F99DF803008DF80F00FFE799
:105760009DF80F0004B080BD84B0039002910192B7
:10577000029800900398C0430390FFE70198411EF0
:10578000019190B1FFE79DF80C0000994A1C00922E
:10579000097841404EF2BC40C0F6000050F82100AC
:1057A000039980EA11200390E8E70398C04304B00E
:1057B0007047000080B586B00490039100208DF8FA
:1057C0000B00049810B9FFE7FFE7FEE742F27510FF
:1057D000C2F200000078C00720B1FFE700208DF87A
:1057E000170050E000200190FFE7019803280ED831
:1057F000FFE7019A42F67031C2F200014FF0FF302C
:1058000041F83200FFE7019801300190EDE70020F8
:105810000190FFE701980F280FD8FFE7019942F2A6
:105820006400C2F2000000EBC1014FF0FF3048609D
:10583000FFE7019801300190ECE742F2E401C2F287
:10584000000100200860049842F25801C2F20001F1
:105850000860039842F25C01C2F20001086000F0A7
:10586000D9F88DF80B009DF80B0038B9FFE742F22C
:105870007511C2F2000101200870FFE79DF80B00CE
:105880008DF81700FFE79DF8170006B080BD0000F7
:1058900080B58AB000208DF8270042F25800C2F28D
:1058A0000000006810B9FFE7FFE7FEE742F25C0086
:1058B000C2F20000006810B9FFE7FFE7FEE700F062
:1058C00023F942F2E400C2F2000000680890FFE70A
:1058D000089842F2E401C2F20001096801F5804132
:1058E000884212D2FFE708984FF0FF3100F022FB08
:1058F0008DF827009DF8270008B1FFE759E0FFE782
:10590000089800F580500890E2E700200790FFE734
:10591000079842F25C01C2F200010968884247D24E
:10592000FFE742F25800C2F200000068079901EB5D
:10593000410100EB8100806878B9FFE742F258002E
:10594000C2F200000068079901EB410100EB810001
:105950004068FAF7BFFC06900CE042F25800C2F231
:1059600000000068079901EB410100EB81008068AD
:105970000690FFE74FF0FF30059042F25800C2F268
:1059800000000168079800EB400201EB820051F82B
:1059900022104268069B6846FFF76AFC9DF82700C4
:1059A00008B1FFE705E0FFE7079801300790AFE790
:1059B000FFE700F0B1F89DF827000AB080BD0000B5
:1059C00080B586B00490039102920193002000906C
:1059D00042F27510C2F200000078C00748B9FFE734
:1059E0004EF63E70C0F6000000F06AF80020059008
:1059F0000DE000F089F804980399029A019B00F0E9
:105A00009FFB009000F088F800980590FFE705984C
:105A100006B080BD80B598B000238DF85F3002934A
:105A200042F27411C2F200010120087069464B6015
:105A300045F27D10C0F60000086003A802AA1946CE
:105A400005F058FA0298042809D1FFE74EF6B9701C
:105A5000C0F6000000F034F8FFF71AFFFFE700F08F
:105A600053F8694600234B6045F24510C0F600002C
:105A7000086003A819461A4605F03CFAFFE745F20C
:105A8000C903C0F6000309A80022114600F004F97A
:105A900042F2E800C2F200000078C00718B1FFE748
:105AA00000F0F6FAEBE742F27411C2F200010020B6
:105AB000087000F031F89DF85F0018B080BD00005C
:105AC00083B080B583B0079306920591029005A834
:105AD00001904EF62560C0F6000000F099F802999A
