:020000040800F2
:10000000804A0020010100084D200008C9010008B5
:10001000711C0008F9160008D92F00080000000024
:10002000000000000000000000000000A1290008FE
:10003000751800080000000053010008A5290008F9
:100040001B0100081B0100081B0100081B01000820
:100050001B0100081B0100081B0100081B01000810
:100060001B0100081B0100081B0100081B01000800
:100070001B0100081B0100081B0100081B010008F0
:100080001B0100081B0100081B0100081B010008E0
:100090001B0100081B0100081B0100081B010008D0
:1000A0001B0100081B0100081B0100081B010008C0
:1000B0001B0100082D2B00081B0100081B01000874
:1000C0001B0100081B0100081B0100081B010008A0
:1000D0001B010008F52C0008052D0008152D00084F
:1000E0001B0100081B0100081B010008DFF80CD0F1
:1000F00000F0CAFE00480047E50F0008804A0020D3
:100100000648804706480047FEE7FEE7FEE7FEE7B1
:10011000FEE7FEE7FEE7FEE7FEE7FEE7B929000897
:10012000ED000008EFF3108072B6704780F310887E
:100130007047324A1368012B04D04FF0010313605B
:100140002F4A10602F4A11602F484FF080510160F4
:100150007047EFF3108272B62848016891B14FF0F2
:10016000000101602648016829B1EFF3098121E906
:10017000F00F00680160234909680968B1E8F00FD1
:1001800081F3098882F310884EF0040E70471D49F0
:1001900008601B494FF00000086018494FF001004B
:1001A00008601A481A49D0F8002041EA02010160AB
:1001B00015484FF08051016016480068006880F3D0
:1001C000088861B662B670471EF0040F0CBFEFF3EB
:1001D0000880EFF3098020E9F00F40F804ED1EF0ED
:1001E000040F0CBF80F3088880F3098800B506F07F
:1001F000D5FA5DF804EB4EF0040E70470033002092
:10020000643100206C31002004ED00E020ED00E0BE
:100210000000FFFF08ED00E0A0F14101192900D81E
:100220002030704740EA01039B0703D009E008C96A
:10023000121F08C0042AFAD203E011F8013B00F8AB
:10024000013B521EF9D27047D2B201E000F8012BF7
:10025000491EFBD270470022F6E710B513460A4646
:1002600004461946FFF7F0FF204610BD30B505469D
:100270002A460B4612F8010B13F8014B08B1A042B5
:10028000F8D01CB1002802D06D1CF1E7284630BD23
:1002900010B5044604E00B7800F8013B03B1491C9B
:1002A000521EF8D2204610BDCAB2401E10F8011FDF
:1002B0008A4202D00029F9D100207047421C10F870
:1002C000011B0029FBD1801A704710B5002200E005
:1002D000521C835C8C5CA34201D1002BF8D1D8B2B4
:1002E000E1B2401A10BD30B504460020034600E0DC
:1002F0005B1C934203D2E05CCD5C401BF8D030BD68
:1003000030B505460020034600E05B1C934205D251
:10031000EC5CC85C201A01D1002CF6D130BD002263
:10032000CBB20178994200D10246401C0029F8D195
:10033000104670472DE9FF4F087883B09946FF2893
:1003400005D0491C2D2804D00024002008E00020FE
:100350000BE00124F9E700EB800003EB4000491CAF
:100360000B78FF2BF7D104B140420023029314789D
:1003700019461D462D2C01D02B2C04D1521C2D2C9E
:1003800013D000240294AA461478FF2C0FD00A251B
:10039000A3FB057801FB05814FF0000C03FB0C115A
:1003A000521CE3194AEB0101EEE70124EAE781441C
:1003B00053EA010002D019F5C87F06DA039800213C
:1003C000C0E9001107B0BDE8F08F0025AE4E2F4602
:1003D000DFF8B882184600F01BFDCDE90001B9F145
:1003E000000002DAC9F1000400E004460023A74A35
:1003F0001AEB030B42EB045A12E0E00707D02A463F
:1004000033463846414600F0F9F9074688462A4601
:1004100033461046194600F0F1F905460E466410C1
:10042000002CEAD1DDE90001B9F1000F5A4653462C
:1004300006DA00F055FA3A46434600F051FA05E074
:1004400000F0DCF93A46434600F0D8F9029A0AB1C6
:1004500081F00041039AC2E90001B3E72DE9FF4FA3
:100460001F468DB0D7E901464FF0FF382E20454694
:100470004FF000090B90B9696D1C0E988847396AD6
:10048000824688470028F6D1BAF1FF3F0AD024F40B
:10049000D064002E11DDBAF12B0F08D0BAF12D0F68
:1004A0000BD102E0404611B08DE744F48064B96995
:1004B0006D1C0E9888478246761E6946600501D5F8
:1004C0002D2000E02B208DF8000001F1010B0DF133
:1004D000200809E0B9696D1C0E98884782460F987C
:1004E00044F40074761E0560002E02DDBAF1300F70
:1004F000F0D00B998A453ED144F0800406E00F9974
:10050000681CA9F1010944F400740860B9696D1C04
:10051000761E0E98884782463028F0D02BE00B9943
:100520008A4505D1200603D444F08004761E18E0E5
:10053000504609F021FE08B30DF11302761EAAF110
:10054000300044F40074934506D20BF8010B2006EA
:1005500007D5A9F1010003E0200602D409F101004A
:100560008146A00502D50F99681C0860B9696D1C09
:100570000E9888478246002ED1DC53E0002E51DDD4
:10058000BAF1650F02D0BAF1450F4BD1A00549D59C
:10059000B9696D1C24F44074761E0E988847824613
:1005A000002E0CDD2B2804D0BAF12D0F07D144F416
:1005B0008074B9696D1C0E9888478246761EE005E6
:1005C00001D52D2100E02B2108F8011BCDF82C804E
:1005D00021E00DF12901761E44F4007488450CD207
:1005E000AAF1300010F0FF0088F8000002D10B994A
:1005F000884509D908F1010806E0E00501D524483D
:1006000001E042F20F708146B9696D1C0E9888476F
:1006100082460F980560002E04DD504609F0ACFDBF
:100620000028D6D1F9690E988847FF208BF8000082
:1006300088F800000020069007904B466A4608A9FB
:1006400006A8FFF777FEA00502D46FF001002AE7A5
:1006500014F0240F0AD0E00714D1DDE9061238683F
:10066000031D3B600068C0E900120BE0DDE90601F4
:1006700000F0FAF90146E00704D13868021D3A603B
:100680000068016028460EE7000014400000F03FBB
:10069000F1D8FFFF70B5064609F042FC0468054634
:1006A0000A220021304600F0E7FA2C6070BD2DE9E7
:1006B000FE4F804681EA0300C00F0C46009021F0F7
:1006C000004123F00045B8EB0200A94105D24046A5
:1006D000214690461C460B46024623F0004010433C
:1006E00047D0270DC7F30A00C3F30A510290401AFE
:1006F000019040286BDAC3F3130040F4801B00988C
:10070000924620B10023D2EB030A63EB0B0B019856
:100710005946C0F14002504600F009FA06460D461F
:1007200050465946019A00F021FA10EB0800614149
:10073000002487EA115284EAE7731A4340D0009AF2
:1007400062B3019A012A4FEA075215DC001B61EBE4
:1007500002014FF0004202EA0752CDE90042001CBC
:1007600041F5801132462B4600F004FB03B0BDE892
:10077000F08F40462146F9E7001B61EB0201001CA7
:1007800041F5801300185B412018A2F5001747EBD4
:10079000030140EAD570B6196D4111E06D084FEACA
:1007A000360645EAC0754FEA0752001B61EB0201AD
:1007B000001C41F5801149084FEA300000195141F1
:1007C00032462B4603B0BDE8F04F00F0C4BA0098A3
:1007D000012240000023D0EB020263EBE07300989B
:1007E00021464FEAE074B8EB000061EB0401E9E751
:1007F00083F000435BE781F0004158E72DE9FE4FAD
:1008000081EA030404F0004421F0004100944FF019
:10081000000B23F0004350EA01045ED052EA0304C7
:100820005BD0C3F30A54C1F30A552C44A4F2F33449
:100830000194A0FB0254C1F3130141F48011C3F3EE
:10084000130343F4801301FB024400FB034E840AAC
:10085000970A44EA815447EA8357A4FB0768029544
:100860008D0A05FB07854FEA932C04FB0C542705E2
:10087000029D4FEA065847EA1637B5EB08056EEBBE
:10088000070C870E920E47EA811742EA8312A7FBF4
:100890000201B6EB0B0164EB00042B0D43EA0C33B1
:1008A0005E1844EB1C50DA465146E7FB0201C5F3E3
:1008B00013044FEA0B3343EA14534FEA0432019C0A
:1008C00043EA0603A4F10C040294009CCDE900B4B1
:1008D00000F050FA03B0BDE8F08F00200146F9E7C0
:1008E0002DE9F04D81EA030404F0004B21F00045AE
:1008F00014464FF0000A23F0004150EA050220D0D0
:1009000054EA01021DD0C5F30A570246C5F313038A
:10091000C1F31300C1F30A5640F4801543F4801369
:10092000A7EB0608101BD64608F2FD3873EB05004E
:1009300002D308F1010801E092185B41B8F1000F01
:1009400003DA00200146BDE8F08D00204FF480114D
:10095000064684460EE0171B73EB050705D3121BF2
:1009600063EB050306434CEA010C49084FEA3000EB
:1009700092185B4150EA0107EDD152EA030012D010
:1009800082EA040083EA0501084305D0101BAB414D
:1009900006D20122002306E000224FF0004302E0CD
:1009A0006FF0010253101AEB06004CEB085110EBEC
:1009B0000A0041EB0B01BDE8F04D00F0CCB930B5B9
:1009C000041E71F1000404DB4FF00044404264EB6C
:1009D0000101141E73F1000405DB1C464FF00043B7
:1009E000524263EB0403801A994101D3012030BDC8
:1009F000002030BD30B5041E71F1000404DB4FF05F
:100A00000044404264EB0101141E73F1000405DB55
:100A10001C464FF00043524263EB0403101A8B4113
:100A200001D3012030BD002030BD70B5C1F30A52A2
:100A300001F000450024C1F3130140F2FF3341F4FB
:100A400080119A4201DA002070BD40F233439A428D
:100A5000A2F2334203DC524200F078F800E090400A
:100A60002C43F1D0404270BD01F0004330B421F07E
:100A7000004150EA010206D00A0DA2F56072C1F3EE
:100A80001301002A02DC30BC00207047440F44EA06
:100A9000C104C100E01830BC00EBC25000F024B922
:100AA00030B50B46014600202022012409E021FA3E
:100AB00002F59D4205D303FA02F5491B04FA02F53B
:100AC0002844151EA2F10102F1DC30BD2DE9F05FD2
:100AD0000546002092469B468846064681464024AD
:100AE0001BE0284641464746224600F02FF8534671
:100AF0005A46C01A914110D311461846224600F0BA
:100B000016F82D1A67EB01084F46224601200021F6
:100B100000F00DF817EB00094E41201EA4F101046E
:100B2000DFDC484631462A464346BDE8F09F202A8E
:100B300004DB203A00FA02F1002070479140C2F134
:100B4000200320FA03F3194390407047202A04DB66
:100B5000203A21FA02F00021704721FA02F3D04036
:100B6000C2F120029140084319467047202A06DB53
:100B7000CB17203A41FA02F043EAE07306E041FA6B
:100B800002F3D040C2F12002914008431946704759
:100B9000426842B1016811F8013B23B1521EC0E91D
:100BA0000012184670470121C160881E70474268D4
:100BB0005AB1C368016843B983688B4205D0491EA6
:100BC000521CC0E90012002070474FF0FF30704700
:100BD0000FB40B0010B58AB00FA900910E994FF019
:100BE0000004234ACC60214CCDE9064200D0042306
:100BF0006FF00042CDE901321E4A089202466B4670
:100C00000020FFF72BFC0AB010BC5DF814FBF0B518
:100C100085B007464FF0FF300091CDE901011E4637
:100C2000002015460C4604903B466A46314604A80F
:100C3000FFF7CEFF04990346601825B109B10246BB
:100C400000E022462A6000290ED0002B02DD009928
:100C5000814209D00094001BCDE901043B466A465D
:100C6000314604A8FFF7B4FF05B0F0BD910B0008B2
:100C7000AF0B0008C10E00082DE9F04791460F4662
:100C800080460446002614F8015B2DB100F014F9EB
:100C90000068405DC007F6D12B2D02D02D2D18D055
:100CA000641E4A463946204600F013F927B13968D8
:100CB000A14201D1C7F8008071054FF002040BD5A5
:100CC0004042002803DD09F02BF90460A007BDE8CD
:100CD000F08746F48066E4E70028F8DA09F020F9A6
:100CE00004606FF00040F2E70029A8BF7047401C85
:100CF000490008BF20F00100704710B4B0FA80FC32
:100D000000FA0CF050EA010404BF10BC704749B16E
:100D1000CCF1200421FA04F411FA0CF118BF0121DE
:100D200021430843A3EB0C01CB1D4FEA00614FEABE
:100D3000102042BF002010BC704700EBC35010448D
:100D40000029A4BF10BC7047401C490008BF20F018
:100D5000010010BC704710B5141E73F1000408DACE
:100D6000401C41F1000192185B411A4301D120F06F
:100D7000010010BD2DE9F04D92469B4611B1B1FA2C
:100D800081F202E0B0FA80F220329046FFF7CFFE07
:100D900004460F4640EA0A0041EA0B0153465A4610
:100DA000084313D0114653EA010019D0C8F140029C
:100DB0005046FFF7CBFE05460E4650465946424682
:100DC000FFF7B5FE084305D0012004E02046394670
:100DD000BDE8F08D0020054346EAE0762C4337431A
:100DE0000A986305E40AA0EB08000022FD0A44EA21
:100DF00047540A3002D500200146E9E701051019E1
:100E00006941DDE9084500196941BDE8F04DA2E7F7
:100E10000EB540F2334202920022CDE90022134681
:100E2000FFF7A8FF03B000BDC1F30A52C1F31301DD
:100E300040F2FF3341F480119A4202DA0020014669
:100E4000704740F233439A42A2F2334202DC5242EC
:100E5000FFF77CBEFFF76BBE30B5041E71F10004D6
:100E600004DB4FF00044404264EB0101141E73F1B7
:100E7000000405DB1C464FF00043524263EB0403C1
:100E8000994208BF904230BD1CB5094800900948FE
:100E900001900546009C06E0E06840F0010394E8FC
:100EA000070098471034AC42F6D3FFF723F900004F
:100EB00000C6000820C600080048704734AA000891
:100EC00010B50446FFF7F8FF0068005D00F0010070
:100ED00010BD2DE9F05F82460078002715468B464D
:100EE0000AF10104B946302801D09DB113E014F88D
:100EF000010B0127782803D0582801D045B10AE01A
:100F00000DB1102D07D10027102514F8010B02E0B8
:100F1000082500E00A250026B0460EE005FB080083
:100F200005FB06F1012701EB10461FFA80F8B6F524
:100F3000803F00D3B94614F8010B294600F018F899
:100F40000028EBDABBF1000F05D00FB1641E00E002
:100F50005446CBF80040B9F1000F06D008F0E0FF8E
:100F600002210160C81EBDE8F09F48EA0640FAE78A
:100F70003A2800D2303820F02002412A01D3A2F1D1
:100F80003700884201D34FF0FF30704770B58C189E
:100F900010F8015B15F0070301D110F8013B2A118D
:100FA00006D110F8012B03E010F8016B01F8016B7A
:100FB0005B1EF9D12B0705D40023521E0DD401F876
:100FC000013BFAE710F8013BCB1A921C03E013F83F
:100FD000015B01F8015B521EF9D5A142D8D3002074
:100FE00070BD000010B584B0FFF79CF805F0ACFBB5
:100FF00005F096FF05F0FCFF05F0B4FF42F65842FD
:101000004FF48061C2F2000243F258040A20CDE995
:101010000021C2F200044CF2E75145F2C1324FF018
:10102000140C0290C0F60001C0F600022046002316
:10103000CDF80CC006F0E0F8204606F091F905F076
:10104000DFFF06F0B3F805F0B7FF002004B010BDD5
:101050002DE9F047C2B0044600294FF0010018BF47
:10106000002C02D142B0BDE8F08715464B9A002A09
:10107000F8D06068A0B14A9F8A46A94698460F2FCB
:1010800012D83901405818B1154608F04DFF2A46CC
:101090004CAB02A84FF48071019308F027FF16E0D3
:1010A000052042B0BDE8F0874CAB02A84FF4807138
:1010B000019308F01BFF6068002700BF016831B191
:1010C0000137102F00F11000F8D14FF0FF37781CD6
:1010D00021D002A8FFF7F2F8461C304608F052FF74
:1010E000E8B102A932460546FFF7D2F860683E0132
:1010F0008059002818BF08F017FF606800EB07113F
:1011000085510420C1F804A0A1F80890C1F80C8012
:1011100042B0BDE8F087062042B0BDE8F087072066
:1011200042B0BDE8F0870000032101707047000065
:10113000012101707047000070B5D8B10446806984
:101140000178002908BF70BD00250570D4E90301AE
:101150004FF48072006A05F027FAA66856F8351039
:1011600031B12069FFF782F828B90135102DF5D18A
:101170000320207070BD014606EBC50042680AB12D
:1011800020469047A06900210170E068006A05F0E0
:1011900001FA20694FF48071FFF75DF8E068BDE85F
:1011A000704008F06FBC0000027D102A04D30021BB
:1011B000017503210170704710B582B043681101B9
:1011C000595869B103EB02135A681B894FF0000CA0
:1011D0000446CDF800C000F031F838B102B010BDBF
:1011E000002101750321017002B010BD6168227DEC
:1011F000204601EB0211C96809B188472046017DEC
:101200000131017502B010BD10B5044680B140F245
:101210003C60C2F2000040F2100140F28022C2F2B3
:101220000001C2F20002E0600020C4E90112207552
:10123000204608F05BFC0220207010BD2DE9F0472D
:10124000C0B0044680699A4600230370E068914666
:10125000006A884605F09EF920694FF48071FEF718
:10126000FAFFE06808F00EFC6F4638464FF48071D4
:10127000FEF7F1FF35A238464FF48071434608F07F
:1012800007FE3846FFF71AF8010410D086B2002591
:10129000E0688021006801F0B7FD0028F8D0E06820
:1012A000795D006801F094FE0135B542F0D1DDF8BA
:1012B000208100BFE0684021006801F0A5FD002802
:1012C000F8D006F0EDF8074603E000BF0A2005F06D
:1012D000D9FF06F0E5F8C01B504533D2A06900786D
:1012E0000128F3D1D4E903014FF48072006A05F0BC
:1012F0005BF926694846FEF7E1FF034630464FF4A6
:1013000080714A4601F070FF0028DFD0B8F1000F6D
:1013100005D0216940464FF48072FEF783FFA06933
:1013200000210170E068006A05F034F920694FF48B
:101330008071FEF790FFE06808F0A4FB002040B049
:10134000BDE8F087012040B0BDE8F08725730000BC
:1013500040F21014C2F20004204600F067F84FF487
:101360007A7005F08FFFF7E770B584B041F2EC7248
:101370000A204FF48051C2F20002CDE90021029010
:1013800041F26C7041F251326425C2F200001EA19C
:10139000C0F600020023039505F02EFF28B941F2A4
:1013A0006C70C2F2000005F0DBFF43F28434C2F23D
:1013B000000449F65D2202264EF6602515A1C0F60E
:1013C000000220460023CDE9005606F01FF9204612
:1013D00006F036F943F2B0344DF2C045C2F20004D3
:1013E00049F67122C0F201050CA1C0F600022046A8
:1013F0000023CDE9005606F009F9204604B0BDE807
:10140000704006F01DB900BF61745F746872656159
:101410006400000074696D657231000074696D6567
:1014200072320000032101707047000060B1017842
:10143000072988BF704740F20432C2F2000202EB73
:10144000C101496801B10847704700002DE9F04F1C
:10145000DDF824A0BAF1000F52D04BF23C384FF027
:10146000000CC0F600084FF000094FF0000E05E038
:1014700009F101090BF1010ED64547D20EF1010B1E
:10148000DA4588BFD346ABEB0E0403EB0E0500260E
:10149000AF5D202F06D10136B442F9D1DA4506D12D
:1014A00093E000BF0EEB060BDA4500F08E80AAEB4E
:1014B0000B07022F08D313F80B700D2F04D103EB89
:1014C0000B077F780A2FD5D013F80B400A2CD1D008
:1014D00096B93D2C04D1BCF1010F0DD80CF1010CD3
:1014E00067B2002F08D418F804607F2E04D03F2E76
:1014F000BED8BCF1000FBBD06FF02B00BDE8F08F61
:101500004FF000094FF0000C4FF0000EB9F1000F42
:101510005FD04FEAD90409F0070504EB440405EB5A
:101520004505072606EB4505CCEB440707EBD5043C
:1015300000286FF0290C4FD0A1424DD3BEF1000F0F
:1015400082463FD04BF23C3C40F209090321002483
:10155000C0F6000C4FF00108C0F240098246002797
:1015600007E000BF2546BEF1010E03F101032C4642
:1015700028D01D78A5F10A06162E04D808FA06F61A
:1015800016EA090FEED11CF805603D2D06F03F0567
:1015900007F1010708BF0139042F45EA8415E2D19C
:1015A00000294FEA84141CBF260C0AF8016B02299B
:1015B00024BF240A0AF8014B0027032928BF0AF890
:1015C000015BD0E7AAEB000404E0DE46B9F1000FAE
:1015D0009FD100244FF0000C60461460BDE8F08FEE
:1015E0002DE9F043DDF81CC0BCF1000F15D04AF620
:1015F000AB25CAF6AA25ACFB0556740804EB440ECD
:10160000BCEB0E054FF0010518BF05EB5604B4F115
:10161000804F06D34FF0FF300BE000201060BDE894
:10162000F08300284FEA840418BFA14206D844F092
:10163000010010606FF02900BDE8F0834BF2BC3868
:10164000BCF1030FC0F6000804D2002486466445AE
:1016500026D348E0051F00241F5D1E19B90896F81F
:10166000019018F80110B67805F8041F4FEA191117
:1016700067F3051118F8011003346970B10969F3B3
:10168000850118F801107445A97006F03F0118F89B
:101690000110E970E0D305F1040E2344644522D221
:1016A0001D780134A908644534BF5B78002318F81D
:1016B000011005F003058EF80010190941EA051123
:1016C00018F801103D258EF8011064454FF03D04D7
:1016D0003CBF03F00F0118F821408EF802408EF84D
:1016E00003500EF1040EAEEB0000106000208EF8E7
:1016F0000000BDE8F0830000FEE7000002684FF63E
:10170000FE7C42F00103002908BF02EA0C030360DB
:101710007047000002684FF6FE731A407F230421D1
:10172000C4F20203C4F20201026000229842026085
:1017300042608260C26016DC4322C4F20202904220
:101740002CDC0822C4F20202904251D01C22C4F2C6
:101750000202904256D03022C4F2020290425ED180
:101760004FF4706058E040F22F42C4F202029042FF
:1017700026DC8022C4F2020290423BD040F20842B2
:10178000C4F2020290423FD040F21C42C4F2020274
:10179000904244D101F58061F0203DE04422C4F242
:1017A0000202904236D05822C4F2020290421CD06B
:1017B0006C22C4F20202904231D14FF470002BE04F
:1017C00040F23042C4F20202904216D040F244424B
:1017D000C4F2020290421BD040F25842C4F202020C
:1017E000904218BF704701F580614FF4702013E0FC
:1017F0000F2011E04FF070600EE001F580614FF4B2
:10180000706009E0F02007E001F580610F2003E03F
:1018100001F580614FF470400A681043086070471A
:10182000406880B2704700002DE9F047026847F633
:10183000F073D1E9026A9A4301F11007B0CF01F1C8
:101840001C0E3243D1E900899EE80A501A43224314
:101850002A433A43114341EA0C0141EA0E01016077
:10186000C0F804A0C0F80880C0F80C90BDE8F0876C
:101870004160704770470000CA7802F00F0CD30631
:1018800044BF8B784CEA030C2DE9F04709880B061E
:1018900024D086465EF8143B00F1100800254FF076
:1018A000010A4FF00F09002406E000BF3760013441
:1018B000082C05F1040510D00AFA04F70F42F6D0FF
:1018C00009FA05F6B3430CFA05F63343282A76469F
:1018D000ECD0482AEBD14646E8E70360B1F5807FBB
:1018E00038BFBDE8F087436800F1100E00F1140A1C
:1018F00000254FF480794FF00F08002706E000BF65
:1019000026600137082F05F1040510D009FA07F603
:101910000E42F6D008FA05F4A3430CFA05F423436B
:10192000282A5446ECD0482AEBD17446E8E74360B5
:10193000BDE8F0878068084018BF012070470000AC
:1019400041617047016170471023002A08BF1423CA
:10195000C1507047828A008B60F3174202EA01008F
:10196000401AB0FA80F04009704700000288002950
:1019700018BF012122F001021144018070470000CC
:101980000288002918BF012122F4807242EA012155
:10199000018070470288002918BF012122F40072DB
:1019A00042EA41210180704782B0002201920092F8
:1019B0000090080F0190019814220028009808BF99
:1019C000182210440090009821F07F41006808BF61
:1019D000090C084018BF012002B0704770B586B0EE
:1019E000044680880D4620F03F0601A800F05AFF0B
:1019F00003994DF68360C4F21B30A1FB000346EA55
:101A00009340A080208820F0010020802A6848F2BE
:101A1000A060C0F2010082424FEA934008D8520011
:101A2000B1FBF2F14FF6FC72114208BF042124E031
:101A3000EB884BF6FF76B34204D102EB4202B1FBD6
:101A4000F2F105E019235A43B1FBF2F141F4804170
:101A50000A466FF31F32B2FA82F25209114348F27A
:101A60000002CFF6FF7211434FF49672504348F6CE
:101A70003812C0F24102A0FB022001302084A18371
:101A800020884FF6F53140F00100208020886A89D7
:101A90000840A988084310432080A8892989084361
:101AA000208106B070BD000001F0FE01002A18BFC1
:101AB0000122114401827047018270472DE9F041F3
:101AC00045F2004488460646C4F2000420464FF41E
:101AD0000031FFF769FF0028F8D120460121FFF708
:101AE0004FFF0127C0F2030720463946FFF732FFB8
:101AF0000028F9D08427204678210022C0F2070769
:101B0000FFF7D2FFBD1E00BF20462946FFF722FF88
:101B10000028F9D020463146FFF7CEFF204639464F
:101B2000FFF718FF0028F9D020464146FFF7C4FF11
:101B300020463946FFF70EFF0028F9D02046012144
:101B4000BDE8F041FFF726BF43F24814C2F200049B
:101B50002068A188FFF7EEFE2072642005F092FB5A
:101B6000F6E70000B0B584B040F6E8314FF480608D
:101B7000C2F20001CDE9001040F6683041F6FD32B6
:101B800064241625C2F2000018A1C0F6000200234A
:101B90000295039405F030FB28B940F66830C2F294
:101BA000000005F0DDFB40F668114FF40070C2F252
:101BB0000001CDE9001040F6E80041F64942C2F2CA
:101BC00000000CA1C0F6000200230295039405F06A
:101BD00013FB00281CBF04B0B0BD40F6E800C2F201
:101BE000000004B0BDE8B04005F0BABB6D625F72A2
:101BF000780000006D625F706F6C6C0040F23C65B5
:101C000043F24474C2F200050026C2F2000402E06E
:101C10000A2005F037FB95F850000128F8D1E96D4E
:101C200085F8506088784A78033040EA02222046DE
:101C3000FEF7F8FA012008F0CBF8E86D0021432206
:101C400004F064FFE4E70000002001214FF4E132DA
:101C5000002302F0A3F900BF02F0C6F90A2005F044
:101C600011FBF9E701460020022208750A7070474F
:101C7000FEE7000070B582B01446A0F18042A2F5E4
:101C800084324FEAB222042A13D80D460AA151F831
:101C9000221006460846012100F0ECFD03208DF8D5
:101CA000060001A93046ADF804508DF80740FFF753
:101CB000E3FD02B070BD00BF04000000080000009A
:101CC00010000000200000004000000010B586B0A9
:101CD0004FF40010012100F0C1FD4FF4001000216D
:101CE00000F0BCFD4FF40010012100F0ABFD082016
:101CF000012100F0BFFDC02040F60044C1F60340C2
:101D0000C4F20104059005A92046FFF7B5FD204661
:101D100040210122FFF718FE204680210122FFF713
:101D200013FE0020CBF6FF70029041F68020C0F237
:101D3000060001904FF48040ADF810003020C0F252
:101D40000040A4F53844039001A92046FFF746FE61
:101D500020460121FFF70AFE06B010BD2DE9F0472D
:101D600086B0054643F20000C4F2010040F60008C8
:101D70008542C4F2010811D043F60000C4F200000D
:101D800085421CD108F580664FF4005A4FF4804418
:101D90004FF4004908204FF4804708E04FF0200A34
:101DA00040274FF080094FF480540420464601211B
:101DB00000F060FD2046012100F05CFD04E04FF0E2
:101DC000000900274FF0000A404610211022FFF7BB
:101DD00051FF304651461822FFF74CFF3046494626
:101DE0001822FFF747FF304639464822FFF742FFE7
:101DF0004FF08270CDF806000020ADF80A00039085
:101E000040F200204FF4E021C0F230000591049030
:101E10000DF10601284600F09FFD2846012100F043
:101E200087FD404610210122FFF78EFD06B0BDE878
:101E3000F08700002DE9F04190B00446B0F80C8026
:101E4000006844F20041C4F2000188424ED044F6DA
:101E50000001C4F20001884225D043F60001C4F21B
:101E60000101884240F0E6804FF48040012100F0FB
:101E700001FD0120012100F0D9FC40F60005C4F26B
:101E8000010528464FF400711822FFF7F3FE28469B
:101E90004FF480610422FFF7EDFE43F60407C4F21D
:101EA000010725213EE04FF48020012100F0CAFC0B
:101EB0000120012100F0BAFC40F60000C4F201004C
:101EC00000F5806528464FF480611822FFF7D2FEA6
:101ED00028464FF400610422FFF7CCFE44F2044090
:101EE000C4F2000000F5806727211BE044F204479C
:101EF0004FF400300121C4F2000700F0A3FC0120E0
:101F0000012100F093FC40F60005C4F201052846CB
:101F100004211822FFF7AEFE284608210422FFF70D
:101F2000A9FE262120688DF83C1000F015FFD4E9A9
:101F3000000100250B914FF440210D910BA90C9548
:101F4000ADF8385000F0E8FF206840F2244101224B
:101F5000012600F0C9FF206840F22661002200F04F
:101F6000C3FF206840F22551012200F0BDFF4FF46D
:101F7000A06000F09DF80FA8ADF83D508DF83F60CF
:101F800000F066F8A06930B3206840F225510022C5
:101F900000F0AAFFA069FFF7BDFBD4E9051001AA74
:101FA000033182E822018021CDE905152021089125
:101FB0004FF40051CDE9091569460495079500973E
:101FC000FFF732FC20684021012200F0BDFEA0692D
:101FD0000121FFF793FBE06910B3FFF79BFB21683A
:101FE00022690431CDE90012E2891021CDE9021203
:101FF00000218022E069CDE905214FF400520491CF
:10200000CDE90711CDE909216946FFF70DFC2068EC
:102010008021012200F098FEE0690121FFF76EFBAC
:1020200054F8240B012100F085FE04A12046012272
:1020300004F0A6FD10B0BDE8F08100BF75617274B8
:102040005F72785F6D7574657800000070470000FE
:1020500010B5C17800294EF20011CEF200011AD05D
:102060004EF60C52CEF200021268072323EA122227
:102070000F23C2F1040C23FA02F24378847890F81B
:1020800000E003FA0CF322401A43120101EB0E03A5
:1020900083F8002300E080310078012300F01F0264
:1020A00003FA02F2C0F3421041F8202010BD0000F4
:1020B00040F080604EF60C5140F0FD70CEF2000111
:1020C0000860704780B5FFF701FE0020AE21FFF7E2
:1020D000F5FC0020D521FFF7F1FC00208021FFF75F
:1020E000EDFC0020A821FFF7E9FC00203F21FFF7CD
:1020F000E5FC0020D321FFF7E1FC00200021FFF7E1
:10210000DDFC00204021FFF7D9FC0020A121FFF7D2
:10211000D5FC0020C821FFF7D1FC0020DA21FFF711
:10212000CDFC00201221FFF7C9FC00208121FFF720
:10213000C5FC0020CF21FFF7C1FC0020D921FFF70B
:10214000BDFC0020F121FFF7B9FC0020DB21FFF7E7
:10215000B5FC00203021FFF7B1FC0020A421FFF7DF
:10216000ADFC0020A621FFF7A9FC00208D21FFF780
:10217000A5FC00201421FFF7A1FC0020AF21BDE841
:102180008040FFF79BBC00002DE9F04F82B047B2C2
:10219000002F01D43F2902D902B0BDE8F08F5F18AB
:1021A000402F1F46019388BFC1F14007FFB29FB384
:1021B00007EB010817186FF07F06802F174688BFBE
:1021C000371AFEB206EB000B4FEA076901230D46F2
:1021D0008A4605E00AF1010A5FFA8AF5A8451BD98B
:1021E000B9F1000FF6D00AF0070403FA04F440F640
:1021F000E8776FEA040EEC08C2F2000707EBC4159B
:102200000646044615F806C001340CEA0E07AF5521
:10221000E6B2B345F6D8DDE7019B01F0070C013BC0
:1022200003EB5373DB100193CB08CCF1080A0024B5
:102230004FF0000B009306E00BF1010B01995FFAE0
:102240008BF4A142A8DB002AF6D0009E5FFA8BF344
:1022500040F6E871F718C2F2000101EBC7190B99BB
:1022600004EB060802FB03130025064607E000BF47
:102270000135E9B20136914203F10103DCD27F2E30
:10228000DAD8B8F1070F3FF687AF197819F806E0EA
:1022900001FA0CF141EA0E01B8F1070F09F8061036
:1022A000E6D0197809EB060494F8807021FA0AF157
:1022B000394384F88010DBE7FFF704FF00F034F8BF
:1022C0004FF47A7004F0DEFFF8E7000080B584B0C8
:1022D00041F268420A204FF40071C2F20002CDE9D7
:1022E0000021029041F2E83042F2B9224FF47A7CA8
:1022F000C2F200000AA1C0F600020023CDF80CC013
:1023000004F07AFF00281CBF04B080BD41F2E83021
:10231000C2F2000004B0BDE8804005F021B800BF63
:102320004F4C454400000000F0B581B040F6E87025
:10233000C2F200004FF48061FDF78DFF40F62804E3
:10234000C2F2000420460021402204F0DFFB45F2E7
:10235000414046F27411C5F22030C7F27451C4E90D
:102360000001207847F275314AF64C27C0F23A0155
:10237000C0F60007C4F8071088B10026F10007EB8B
:102380000010A0F50075C8B20021082210230095A6
:10239000FFF7FAFE0136F0B2205C0028EED140F6DD
:1023A0002804C2F2000420460021402204F0AEFBC3
:1023B00040F21010C2F200000078052858D8DFE87B
:1023C00000F00337212A12462E20A08145F2494011
:1023D00045F6577145F24142C2F62E60C4F6496196
:1023E000C4F65F0241E02E20A08142F6416044F233
:1023F000504145F24142C2F62E60C5F24141C5F25C
:102400005F5232E02E2044F64E11A0814FF02E3064
:10241000C2F6546107E02E2044F64441A0814FF0FB
:102420002E30C2F6456145F24142C4F65F121CE00F
:102430002E20A08144F2545044F2457145F24142AD
:10244000C2F65260C5F24931C5F25F220DE02E207E
:10245000A08145F2540045F2454145F24142C2F6A1
:102460002E60C4F65F61C4F25F72C4E90021A0600F
:10247000207890B1002600BFF10007EB0010A0F516
:102480000075C8B21021082210230095FFF77CFECA
:102490000136F0B2205C0028EED140F6E874002549
:1024A000C2F2000445F0B000C1B20020FFF706FB05
:1024B00000201021FFF702FB00200021FFF7FEFAA9
:1024C0002046802100F008F80135082D04F1800431
:1024D000E8D101B0F0BD00002DE9F04145F2004522
:1024E0000C468046C4F2000528464FF40031FFF741
:1024F0005BFA0028F8D128460121FFF741FA0127AD
:10250000C0F2030728463946FFF724FA0028F9D01D
:102510008427284678210022C0F20707FFF7C4FA73
:10252000BE1E00BF28463146FFF714FA0028F9D036
:1025300028464021FFF7C0FA28463946FFF70AFA35
:102540000028F9D07CB1002618F806102846FFF7BD
:10255000B3FA00BF28463946FFF7FCF90028F9D046
:102560000136A642F0D128460121BDE8F041FFF72F
:1025700011BA00002DE9F04FD5B0814600204A90F5
:10258000B9F1000F4FF0010000F014818B460029D3
:1025900000F0108145F29541C5F6415192468A42BC
:1025A000C0F00881002B00F005815F99002900F040
:1025B000018160997829C0F0FD801AAC619EDDF838
:1025C0007881204640211F46FDF745FE3846FDF73D
:1025D00075FE05464AAA204640213B460095FEF777
:1025E00035FF08A84821FDF736FE4BF6BA20C0F6A5
:1025F000000046B1CDE9000B78A208A84821534657
:10260000CDF8089009E0CDE9000B6CA208A848219C
:102610005346CDF80880CDF80C9007F039FC2AAC71
:1026200020464021FDF717FE1AAD2846FDF746FE6D
:102630000DF1200807464046FDF740FE03462846B8
:1026400039464246009402F005FD3AAF002638466E
:1026500040214A96FDF7FFFD2046FDF72FFE054677
:102660004AAA3846402123460095FEF7B9FF38466E
:10267000FDF724FEC5B21C2DC0F078804BA80138B0
:10268000791E2A46CDE906A911F8013F013A00F862
:10269000013F0E70F8D143F2252643F22529C0F2FE
:1026A0004606C0F230094FF000080DF5967A80F822
:1026B000018005E021500320013D804400F050805E
:1026C0001AF8010B5FFA88F2A0F120011F2907EB2D
:1026D00002041DD8DFE801F0161C1C101C32381C47
:1026E0001C1C1C3E1C1C1C1F1C1C1C1C1C1C1C1C05
:1026F0001C1C1C1C1C241C2C2046FDF7DFFD09F5AE
:102700004031D7E72046FDF7D9FD44F80090D2E7E5
:1027100020700120D0E72046FDF7D0FD2650CAE703
:102720002046FDF7CBFD43F22531C0F24401C1E75D
:102730002046FDF7C3FD06F58071BBE72046FDF797
:10274000BDFD09F5A021B5E72046FDF7B7FD09F568
:10275000C021AFE72046FDF7B1FD09F59011A9E7CB
:10276000DDE906A95FFA88F000213954619860B16B
:102770004BF6BA20C0F600000290DDE95F01CDE91A
:1027800000BA1CA24B46039711E05E984BF6BF229D
:10279000CDE9010A4BF6BA20C0F600000390DDE94E
:1027A0005F01C0F600024B46CDF800B0049707F079
:1027B0006FFB002055B0BDE8F08F00BF25640A25EF
:1027C000730A70726F64756374732F25732F646559
:1027D00076696365732F25730A25730025640A25BE
:1027E000730A70726F64756374732F25730A25738F
:1027F0000000000076657273696F6E3D2573267266
:1028000065733D70726F6475637473252532462558
:10281000732665743D2564266D6574686F643D2577
:1028200073267369676E3D2573000000002941F22D
:102830001401C4F202010A680CBF22EA000010432E
:1028400008607047002941F21C01C4F202010A68C5
:102850000CBF22EA0000104308607047002941F2D3
:102860001001C4F202010A680CBF22EA0000104302
:1028700008607047002941F21801C4F202010A6899
:102880000CBF22EA0000104308607047002941F2A3
:102890000C01C4F202010A680CBF22EA00001043D6
:1028A0000860704710B541F20404C4F202042268C3
:1028B00002F00C02082A41F20022C0F27A0212D180
:1028C0002368D4F800C0C3F3834E5FEACC330EF123
:1028D000020C02D523689B0303D540F60012C0F218
:1028E0003D020CFB02F2026022684AF63C23C2F36E
:1028F0000312C0F600039A5C0168D140416022686F
:10290000C2F302229A5C21FA02F282602268C2F3C8
:10291000C2229A5C4AF63823D140C1602268C0F6D0
:102920000003C2F381329A5CB1FBF2F1016110BD88
:102930000288002918BF012122F0400242EA8111D9
:10294000018070470089084018BF012070470000CF
:1029500080897047818170472DE9F04102880B889A
:1029600002F4415C4A88B1F804E043EA0C03CC88E5
:102970001A430D8942EA0E024E8922438F892A4367
:10298000B1F80E8032433A4342EA08020280828B59
:1029900022F400628283098A0182BDE8F08100008E
:1029A0007047000080B503F02BFF04F07FFDBDE809
:1029B000804003F033BF000082B041F20400C4F253
:1029C000020050F8041C002241F0010140F8041CF0
:1029D0000168CFF6FF021140016050F8041C4FF669
:1029E000FF72CFF6F662114040F8041C50F8041C48
:1029F00021F4802140F8041C016821F4FE010160EB
:102A00004FF41F01416000210191009150F8041C16
:102A100041F4803140F8041C50F8041C01F40031EA
:102A20000091019901310191009919B90199B1F50C
:102A3000A06FF1D150F8041CC1F3404100910099FE
:102A4000012936D142F20001C4F202010A6842F0C3
:102A500010020A600A6822F003020A600A6842F063
:102A600002020A600168016001680160016841F4C6
:102A700080610160016821F47C110160016841F40A
:102A8000E811016050F8041C41F0807140F8041C0A
:102A900050F8041C8901FBD5016821F00301016095
:102AA000016841F002010160016801F00C01082990
:102AB000FAD14EF60850CEF200004FF000610160EE
:102AC00002B0704710B584B002200121FFF7BAFEB2
:102AD00041F61F40ADF806000020ADF80C000020C4
:102AE00040F20044C2F20F70C4F2000402900DF1F3
:102AF0000601204600F08AF820460121012200F05C
:102B00007DF84FF4A060FFF7D3FA40F21D20C0F229
:102B10000210CDF802000DF10200FFF799FA2046ED
:102B2000012100F055F8012004B010BD70B540F24D
:102B30000044C4F200042046012100F053F80028AC
:102B400008BF70BD40F21016C2F2000630780228AD
:102B500034D841F26860C2F2000001784A1C3D2975
:102B600002702BD306F5A8752846FDF7A7FB014692
:102B70002846FDF770FB43F2356043F23121C3F67E
:102B80003700C3F2334106F59875C6E9541028465C
:102B9000FDF794FB01462846FDF75DFB46F26D10FC
:102BA000C6F66960C6F8300143F2D8004BF67C11D6
:102BB000C2F20000C0F6000103F004FF204601212C
:102BC000BDE87040AFF30080C94301827047000048
:102BD0000288002918BF012122F00102114401805E
:102BE00070470000028A80890A4000EA010018BF8D
:102BF0000122002818BF012010407047002A828956
:102C00000CBF22EA010111438181704740F6FF3376
:102C1000B0F800C0C4F2000398420FDCB0F1804F5E
:102C20001ED040F20043C4F20003984218D040F690
:102C30000003C4F20003984212D016E040F60043AD
:102C4000C4F2000398420BD043F20043C4F20103E4
:102C5000984205D042F60043C4F20103984204D1E1
:102C60004B882CF0700243EA020C41F2004240F41F
:102C70008063C4F20002934204D0CA882CF44073EB
:102C800042EA030CA0F800C08A888285A0F1804245
:102C9000A2F596320B884FEAB222072A038507D89D
:102CA000012303FA02F212F0E50F1CBF097A018634
:102CB0000121818270470000F0B581B004468AB1DD
:102CC00015460E46002700BF2068802100F09CF8C2
:102CD0000028F9D02068F15D00F07AF90137AF42A1
:102CE000F2D100BF2068402100F08EF80028F9D012
:102CF00001B0F0BD40F23C60C2F20000012100F0E2
:102D0000A3B8000040F23C60C2F20000483002214B
:102D100000F09AB840F23C60C2F20000903003210B
:102D200000F092B8090A012202FA01F1C9430180B8
:102D3000704700008289002918BF012122F4005247
:102D400042EA413181817047002A828A0CBF22EA1F
:102D5000010111438182704780B544F6FF31C4F20E
:102D6000000188421EDD44F60041C4F200018842A1
:102D70002CD045F20001C4F2000188422ED043F667
:102D80000001C4F20101884218BF80BD4FF48040A9
:102D90000121FFF77BFD4FF480400021BDE880401A
:102DA000FFF774BD44F20041C4F2000188421DD017
:102DB00044F60001C4F20001884223D14FF4802080
:102DC0000121FFF74BFD4FF4802016E04FF4002067
:102DD0000121FFF743FD4FF400200EE04FF4801077
:102DE0000121FFF73BFD4FF4801006E04FF4003067
:102DF0000121FFF733FD4FF400300021BDE8804092
:102E0000FFF72CBD80BD00000088084018BF0120DE
:102E100070470000C1F342121423022A08BF102396
:102E2000012A08BF0C2301F01F02C35A090A4FF000
:102E3000010C00880CFA01F1084023FA02F118BFD6
:102E4000012008407047000070B582B00446006859
:102E50000D4640F22441FFF7DDFF002841D02068F5
:102E600040F22441002200F03FF8206801880191DF
:102E70008188019140F22441FFF754FFA069A6899F
:102E8000FEF7CEFC6169301A60810D70E07A6169ED
:102E900004F124054870A07A6169887028464FF0D3
:102EA000FF3103F0D5FE40B96169206A62890331C0
:102EB00003F0B6FB284603F077FE0121A0692172DA
:102EC0000021FEF71BFCA069A189FEF7D1FCA069D7
:102ED0000121FEF713FC206840F22441012200F09A
:102EE00003F802B070BD0000C1F3421301F01F0CE3
:102EF0001421022B08BF1021012B4FF0010308BF42
:102F00000C21002A03FA0CF243580CBF23EA0202F8
:102F10001A4342507047000070B586B00446008ADC
:102F20000D46C98820F4405008432082A0894EF6FF
:102F3000F3110840A9882A896B8908431043184374
:102F4000A081A08AA98920F44070084301AEA08224
:102F50003046FFF7A7FC43F6000106F10800C4F273
:102F600001018C4208BF06F10C0000681922B4F977
:102F70000C1050432A680123B1F1FF3FC8BF022360
:102F800002FA03F1B0FBF1F048F21F51C5F2EB1168
:102F9000A0FB01235A096FF0630302FB0300B4F99D
:102FA0000C300326B3F1FF3FC8BF042600FA06F039
:102FB00000F13200A0FB01014FF00700C8BF0F2055
:102FC00000EA511040EA0210208106B070BD0000F6
:102FD0006FF35F2181807047FEE700004EF60C50D2
:102FE000BFF34F8FCEF200000168042201F4E061CC
:102FF000C0F2FA5211430160BFF34F8F00BFFDE7EB
:10300000002804BF00207047C1B209B101200CE0C4
:1030100010F47F4102D0090A092006E010F47F0174
:1030200007BF010E1920090C11204BF23C02C0F61B
:103030000002515C08447047B0B586B005464FF0B9
:10304000FF3047F66D6C059104900024C0F6000C2B
:1030500003AA02AB28460021CDE90244CDE900C411
:1030600004F012FD029868B143F2C9044FF0010C5C
:10307000C0F6000405AA04AB28460221CDE9004CA5
:1030800004F002FD0398E0B10499013119D101283F
:1030900006D842F68800C2F20000017801290ED15C
:1030A00043F2C9044FF0010CC0F6000405AA04ABBA
:1030B00028460121CDE9004C04F0E6FC01E00121A5
:1030C0000170049806B0B0BD0378012B0ED10369DE
:1030D00009688B420AD98178012909D0022905D1D2
:1030E00042F68801C2F20001097809B10020704758
:1030F0004069106001207047F1B12DE9F041ADF554
:10310000816D0E46044608467B21FDF7CDF8054645
:1031100030467D21FDF703F9002D18BF00280DD1A1
:103120000320207001200027002F0DF5816DBDE8E0
:10313000F04118BF0020704700207047A842EFD32D
:10314000401B461CB6F5806F03D903202070022077
:10315000E9E70DF1070029463246FDF799F800210D
:10316000815500F05FF978B31CA1804600F028F982
:103170000028074618BF01272AD0016906462046C5
:1031800004F022FF0C280ED0052500BF642004F0B7
:1031900079F83169204604F017FF0C281CBF013D67
:1031A0005FEA0560F2D10EA1404600F005F930B1AA
:1031B00042F69831C2F20001102202F02FF8404688
:1031C00000F09EF80420AFE700F0EAF80320AAE739
:1031D000404600F095F80420A5E700BF69640000B0
:1031E000706172616D7300002DE9F047ADF5806D7F
:1031F00000284FF0000742D09246002A3FD0A3F1AA
:1032000001081D4688453AD20446042D0ED8A1EB8C
:1032100005080026A719384651462A46FDF763F8E7
:1032200068B301364645F5D9002728E000206F46EF
:1032300047F820500130B0F5807FF9D1B8F1000F88
:1032400008D0AAF10100424610F8013F47F82320B8
:10325000013AF9D16018A0EB05094C450DD800BF23
:10326000204651462A46FDF73EF838B114F80800CA
:1032700057F8200004444C45F2D90024274638462C
:103280000DF5806DBDE8F08780B506F049FD02F0D0
:103290001BFAFEF769F8FFF719F801F091FF4EF6F7
:1032A000FC50CEF20000016841F08071016041F2F3
:1032B0000000CEF2000000214160016841F00101F0
:1032C0000160FFF7FFFBFEF74DFC012080BD000011
:1032D000A0B10368002B08BF7047D0E901C1614568
:1032E00008D200BF5A5C202A04D801318C45816085
:1032F000F8D16146614504BF013981607047000023
:10330000002808BF704770B540F2FC360446C2F290
:10331000000603E0716828468847CCB1607B2546EB
:103320002468C00704D1A868002818BFFFF7E8FF89
:10333000687BC00703D1286908B171688847687B3A
:103340008007E7D4286A0028E4D071688847E1E75D
:10335000BDE8704070470000024600284FF00000B2
:103360000ED0002948BF704702F10800002200BFBC
:103370000068013942F10003002818BF002BF7D183
:103380007047000048B100F108014FF0FF3000BF66
:10339000096801300029FBD1704700207047000008
:1033A00042F68C0042F69001C2F20000C2F2000127
:1033B0000068096808447047002201F0F1BD000070
:1033C000B0B54FF0000460B10D4651B184683CB116
:1033D000216A2846FCF779FF18B12468002CF7D140
:1033E00000242046B0BD000000280FBF0020007B55
:1033F0002038B0FA80F018BF4009704700280FBF8E
:103400000020007B4038B0FA80F018BF40097047B8
:1034100000280FBF0020007B1038B0FA80F018BFE2
:103420004009704700210022AFF300802DE9F04FE2
:1034300087B042F68C0842F690090C4605460026F5
:10344000C2F20008C2F2000900280696CDE904661F
:10345000CDE90266CDE90066C8F80060C9F80060F1
:1034600069D0284693460095FCF728FF0130CDE946
:10347000010640F2FC30C2F20000D0E90012806880
:10348000CDE90412069028208847002852D0282130
:103490000646FCF7E0FE0098002178B1029A6AB96E
:1034A0000199052909D332A103224FF0030AFCF741
:1034B00027FF002808BFCDF808A0694699B10B681E
:1034C0008BB1D1E90120904208D200BF1F5C202FB0
:1034D00004D8013082428860F8D11046904204BF7F
:1034E0000138886000E00021304602F0FBFC10B398
:1034F000BBF1000F18D0009880B1DDE901219142A5
:1035000008D200BF435C202B04D801318A420291CB
:10351000F8D11146914204BF01390291DDE9012140
:10352000914208D2405C30B9ECB10098029908444D
:10353000206018E0002616B13046FFF7E1FE4FF09C
:10354000000685B1DDE90101421E28BF1646814211
:1035500038BF0E46002C1CBFA8192060C8F80050C8
:10356000C9F800600026304607B0BDE8F08F00BF04
:10357000EFBBBF0010B582B04178012913D10178AB
:10358000032910D14BF6CA338178C0F6000300F14D
:1035900010020446184601F04FF9204601F02AFFB8
:1035A00078B101240EE0017801290AD1006BF721DE
:1035B0008DF807100DF107010122012401F094F9A3
:1035C00000E00024204602B010BD0000B0B584B079
:1035D000027812B1002004B0B0BD4BF666320C4642
:1035E0004168C0F600020546104601F025F9206842
:1035F000013020606C68200501D000BFFEE7204646
:103600004FF4805101F042F90028E3D14FF0FF3030
:1036100047F67F710090ADF8001044F24561C3F2A7
:103620003401CDE90110039069462046102201F0D3
:103630005BF943F214310020C2F2000151F830204E
:10364000A24203D001300428F8D1C3E74FF0FF3283
:1036500041F83020BEE700002DE9F04F87B0074663
:10366000D0F814A008461D4690460E46FCF726FEEC
:10367000212807D3C3A0202101F0DEF8042007B0E1
:10368000BDE8F08F4FF0FF31CDE903118DF8100048
:103690002844009145F24B61059500F11805C3F2ED
:1036A0003401B5F57F6F0191029506D9ADA001F007
:1036B000C3F8062007B0BDE8F08F1AF1010016D15B
:1036C00038462946FFF7B8FC824601300CD142F655
:1036D0008800C2F20000007830B101F04FFB38469C
:1036E0002946FFF7A9FC82461AF10100E1D078785B
:1036F00002280FD0012814D17868BF218DF81B1043
:103700000DF11B01012201F0EFF84FF00009002834
:103710004DD12AE03869382809D30299401A372850
:1037200005D94FF000090020002840D11DE078683D
:10373000DF218DF81B100DF11B01012201F0D4F8DF
:103740007A6843F214330021C2F2000353F8315077
:10375000954203D001310429F8D103E04FF0FF3244
:1037600043F831204FF0010908BB6C4604F1100109
:103770000020082200F084FE9DF8102031460390BE
:1037800000F07EFE059A4146039000F079FE03901A
:103790007F208DF8000069465046012201F0A4F810
:1037A00028B9211D0AF10400142201F09DF8002817
:1037B00040F0AF809DF810200AF118053AB1284674
:1037C000314601F091F8B9F1000F04D045E0002036
:1037D000B9F1000F41D19DF81020059B79682A446A
:1037E00002EB030C8C454FF0000201F5805788BFB7
:1037F0000122BC454FF0000743F2143E4FF0000396
:1038000038BF012702EA07040425C2F2000E04E0D3
:103810008A4217D00133042B0DD05EF83320002CE0
:10382000F6D08A4213D085F0040767EA0202002A24
:1038300008BF1D46EEE7032D0FD80EEBC5024EF86C
:10384000351008E04FF0FF314EF8331005E00EEB75
:10385000C3024EF83310C2F804C09DF8102004468D
:1038600000203146002500F00BFE014642F6080E0E
:1038700020464FEA114B4FF0100C4FF6FF77C2F283
:10388000000E0AF10104102305E000BF934539D072
:103890000135102D20D03EF83520002CF6D0934570
:1038A0000EEBC50221D0516883F0100666EA0106CE
:1038B000002E1E4608BF2E4601310BD05688BFB2DF
:1038C000002E1CBF711E51805188B9423CBFAC46CE
:1038D0000F46DDE73346DBE70F2B09D80EEBC301BC
:1038E000C1F804A02EF833B011E0C2F804A010E033
:1038F000BCF10F0F0DD80EEBCC01C1F804A02EF8CF
:103900003CB004E00EEBC5014FF0FF324A600022EC
:103910004A8040B9059A02B39DF8100041465044D0
:10392000183000F0E1FF38B9BF208DF8000069467B
:103930005046012200F0D8FF0146002818BF01219F
:1039400089F00102114305D142F68801C2F200015B
:1039500001220A7007B0BDE8F08F00200028EBD1EB
:10396000E2E700BF4572726F723A205468652045E5
:103970004E562073697A6520697320746F6F2062D8
:1039800069670A004572726F723A20546865204573
:103990004E56206E616D65206C656E677468206997
:1039A00073206D6F7265207468616E2025640A0053
:1039B0002DE9F0418EB014460D46064649B96F46D2
:1039C0003046394601F004F90546002818BF3D4647
:1039D00066D0286B42F2F878C2F2000844B3EF21B7
:1039E0008DF800106946012200F07EFF98F8001063
:1039F000002908BF002822D1002E55D007463046A6
:103A0000FCF75CFC024600203146002600F038FD41
:103A1000014642F608023846090CC2F2000200BF15
:103A200032F83630994259D00136102EF8D106E0DE
:103A3000DF218DF800106946012200F055FF84F067
:103A4000010188F8001010B10EB0BDE8F0812C6BB8
:103A50000646012060F30B0469462046012200F06F
:103A600035FF9DF800100020022200BF02F007037E
:103A700001FA03F31B0605D501300328A2F1010268
:103A8000F4D1032002283046DED1BF208DF800009B
:103A900069462046012200F027FF0EB0BDE8F08104
:103AA00004200EB0BDE8F081002DC8D0AA7805F141
:103AB000100107460020002600F0E2FC014642F615
:103AC00008023846090CC2F2000200BF32F8363054
:103AD000994203D00136102EF8D1B0E702EBC601AF
:103AE0004FF0FF324A6000224A80A8E7B0B594B098
:103AF00004460078012863D1A07800F0FE00022877
:103B00005ED16068DF2101308DF807100DF10701EB
:103B1000012200F0E9FE4FF0FF300E9002A920468E
:103B200001F0B4F9411C0E901AD002AD07E000BFBD
:103B30002046294601F0AAF9411C0E9010D02846D3
:103B400002F00EFC9DF809000128F1D19DF8080053
:103B500000F0FE000228EBD1284601F04BFCE7E71D
:103B60006468200501D000BFFEE720464FF4805175
:103B700000F08CFE20BB4FF0FF3047F67F711090B5
:103B8000ADF8401044F24561C3F23401CDE91110A3
:103B9000139010A92046102200F0A6FE43F2143123
:103BA0000020C2F2000100BF51F83020A24203D031
:103BB00001300428F8D103E04FF0FF3241F8302003
:103BC000002014B0B0BD000070B50A88052A2DD1C0
:103BD000C278037940F2CE7443EA0222551EADB298
:103BE000A54223D800244FF0010CB0F801500C80FE
:103BF00000F802CB0C8892B201340C80D4085B0729
:103C000018BF0CEBD20400F8014C95FA85FE0D8824
:103C10004FEA1E4301350E460D801946002300F081
:103C2000E1FA28B1BDE8704002F08CBB032070BD02
:103C30003088E1B208443080002070BD70B50A8839
:103C4000052A2DD1C278037940F2CE7443EA0222CC
:103C5000551EADB2A54223D80024B0F801500C8007
:103C6000022400F8024B0C8892B201340C80D40874
:103C70004FF0010C5B0718BF0CEBD20400F8014CAD
:103C800095FA85FE0D884FEA1E4301350E460D80DC
:103C9000194600F009FB28B1BDE8704002F052BBA4
:103CA000032070BD3088E1B208443080002070BD30
:103CB00070B50A88052A1CBF032070BDB0F8032028
:103CC0004FF0FF3312BA03EB12439BB27C2B4FF041
:103CD00003031FD80024B0F801500C8000F8023B09
:103CE0000B88120C013356000B8000F8016C0C8815
:103CF0002DBA2B0C01340D460C801946002300F020
:103D000007FB18B1BDE8704002F01CBB28880023F7
:103D100030442880184670BD70B50A88052A25D120
:103D2000B0F803204FF0FF3312BA03EB12439BB2FB
:103D30007B2B1BD80025B0F801300D80042500F83E
:103D4000025B0D88120C013554000D8000F8014C07
:103D50000D881BBA1B0C01350E460D80194600F06C
:103D600019FB28B1BDE8704002F0ECBA032070BD29
:103D7000308820443080002070BD00002DE9F041E3
:103D80000A880A2A51D3B0F803204FF0FF3314BA3F
:103D900003EB144292B27C2A4FF0030246D8B0F8EB
:103DA00007703FBA03EB17439BB2782B3ED83A0C0F
:103DB000437A5700BFB29F421CBF0320BDE8F08189
:103DC0008846B0F80510012509BA05EB1141B0F895
:103DD000017006460A3089B2012300F099FAF8B959
:103DE00038BA05EB10410020A8F800001720307009
:103DF000B8F80000220C01305400A8F800007470DC
:103E0000B8F80070B01C013789B20023A8F8007020
:103E100000F07EFA20B9B8F800102144A8F800108C
:103E200018B1BDE8F04102F08DBA00221046BDE89D
:103E3000F0810000B0B50C4643F65E01C2F200010D
:103E40000D8843F224710130C2F200012A46FCF7CA
:103E5000E9F9691C00202180B0BD0000098805290E
:103E600001D1017909B103207047C278B0F801008F
:103E7000FF2A01D0002AF6D180B582B000BA010C29
:103E800000208DF80700A2F1FF00B0FA80F0400991
:103E90008DF806000DF106000122012300F0A2F9C1
:103EA00000280CBF002002F04DFA02B080BD0000D7
:103EB000098805291CBF0320704780B5B0F80110A0
:103EC000033009BA090C0122012300F021FA00286D
:103ED000BDE8804004BF0020704702F033BA000004
:103EE00010B50A88062A3CBF032010BDC2780379AA
:103EF0004FF0010E43EA022C5B07ACF101031FFAFD
:103F00008CF29BB24FEAD2044FEA131318BF0EEBA8
:103F1000D2047A2B4FF0030315D890F805C0E4B211
:103F2000A44510D10C46B0F80110063009BA090CAE
:103F3000012300F057F918B1BDE8104002F002BAB1
:103F4000052000232080184610BD000010B50A8807
:103F5000062A1CD3C278037943EA0222541EA4B273
:103F6000772C14D8447903F07F03B4EB430F0ED1C0
:103F70000C46B0F80110063009BA090C92B20123C0
:103F800000F0C6F928B1BDE8104002F0DBB903200B
:103F900010BD05202080002010BD000010B5A1F14B
:103FA000F80414F1F70F3CBF022010BD43F2207457
:103FB000C2F20004217008B1022004E00846114654
:103FC0001A4600F097F8002818BF10BD044605F007
:103FD000F7FE38B142F60400C2F200000121017080
:103FE000204610BD032010BDF0B581B00DF10300D7
:103FF00005F0D2FE012879D19DF80300022823D0D4
:10400000012873D142F6000442F2FA70C2F20004B1
:1040100042F2FC7242F60203C2F20000C2F2000257
:10402000C2F20003214600F083F800285ED1207818
:1040300030B143F22071C2F200010978884255D1B3
:10404000022005F0C5FE51E042F2FC74C2F2000409
:10405000206842F2FB77017842F2F976C2F200075B
:10406000C2F20006012240F2A473397032700022BD
:10407000C2F2000313F8325075B18D4203D0013201
:10408000102AF7D108E003EBC2014A6842F60201A8
:10409000C2F200019047307042F60000C2F2000008
:1040A000007818B3307878B1397842F60202236884
:1040B000C2F2000241F080010127178019701188B7
:1040C00023684F1C1780585442F2FA7043F2207153
:1040D00042F60203C2F20000C2F20001C2F2000383
:1040E0000078097822681B8800F04CF8002001B0A5
:1040F000F0BD000010B508460C4605F077FE01281B
:1041000004D1B4F5964F04D9232009E00320C0B2AE
:1041100010BD47F6A0716000C0F21701B1FBF0F0CE
:1041200080B205F07BFE013818BF0320C0B210BD7D
:104130002DE9F04143F24474C2F20004277843F6BB
:1041400060050770B4F80100C2F2000500BA000C67
:1041500028802888042807D30E462988E01C90462A
:104160001F4605F09FFC10B10520BDE8F081E07806
:104170003070288803383880201DC8F800000020DF
:10418000BDE8F081F0B581B043F2541743F6FA165A
:10419000541EC2F20007C2F2000601253C603580C1
:1041A00002F8011C318805461944318031882046C7
:1041B00005F078FC39683288531C33808854328883
:1041C000000A531C33808854308838B1328828461E
:1041D00005F016FE0020308001B0F0BD022001B0D5
:1041E000F0BD00002DE9F04381B005465018642869
:1041F0004FF0010054D843F66207C2F200073E8830
:1042000000EBD207881B012B00F0070421D0002B04
:1042100045D143F6440180B2C2F20001904601EB61
:10422000D006023D30462146082205F0F9FD013F47
:10423000A8700136380405F10105F3D108F0070034
:104240006978C0F10800FE2222FA00F00840687088
:1042500025E080B2082A4FEAD00613D343F644097A
:104260009046C2F2000900BF15F8013B09EB0600B9
:1042700021460822013605F0E1FD013FB8B20128D0
:10428000F2D8424612F0070209D043F64401B0B218
:10429000C2F200012B780844214605F0CFFD002032
:1042A00001B0BDE8F08300002DE9F04190460A44DA
:1042B000642A4FF0010228D843F66403C2F20003D7
:1042C0001B8802EBD807C91A8AB201F0070543F62A
:1042D0005101C2F2000101EBD206841E304629468C
:1042E000082205F09DFD013FA0700136380404F15D
:1042F0000104F3D108F007006178C0F10800FE2244
:1043000022FA00F00840002260701046BDE8F081FB
:10431000B0B502EB010CBCF1640F84BF0120B0BD4D
:1043200043F62E1CC2F2000CBCF800C0A1EB0C013D
:10433000D3B1012B2CD15AB343F6660C0238C2F22A
:10434000000C00BF10F8025F8CB24FEA052E2CF86B
:1043500014E04378013A43EA05232CF8143013049F
:1043600001F10101EED113E092B143F6660C02387F
:10437000C2F2000C1FFA81FE0CEB4E035B78013A8F
:1043800000F8023F1CF81E30013143701304F1D1D4
:104390000020B0BD5318642B84BF01207047002A51
:1043A00004BF0020704780B543F6F813C2F2000343
:1043B0001B8843F6301CC91A0238C2F2000C00BF39
:1043C0001FFA81FE0CEB4E035B78013A00F8023FC6
:1043D0001CF81E30013143701304F1D1002080BD60
:1043E000B0B582B042F60604C2F200042178002083
:1043F0000190C9B9684601A900F058FA18B9DDE979
:10440000000100F055F8054608B108A002E00120BF
:1044100020700FA018A100F00FFA4BF61D30C0F667
:10442000000000F009FA284602B0B0BD456173797A
:10443000466C6173682056257320697320696E6924
:104440007469616C697A65206661696C2E0A000086
:1044500045617379466C61736820562573206973D2
:1044600020696E697469616C697A6520737563632C
:104470006573732E0A000000342E312E3939000086
:10448000002A08BF70474BF2FC3CC0430139C0F61C
:10449000000C00BF11F8013F013A83EA0003DBB2D0
:1044A0005CF8233083EA1020F4D1C0437047000049
:1044B00080B3B0B542F61515C2F200052A783ABBB2
:1044C00043F214330022C2F200034FF0FF3400BF66
:1044D00043F832400132042AFAD142F60802C2F20D
:1044E0000002043A10234FF0FF3400BF013B42F8B2
:1044F000084FFBD142F2F072C2F20002106042F2A9
:10450000F470C2F20000016000F0BAF801202870D7
:104510000020B0BDFEE700002DE9F04F87B042F269
:10452000F07BC2F2000BDBF8000000284AD042F218
:10453000F470C2F200000068002845D000F0A0F935
:1045400044F2456743F2143A00254FF0FF3647F630
:104550007F79C3F234070DF10408C2F2000A00BFEC
:1045600028464FF4805100F091F90446B0B928462E
:10457000414610220196ADF80490CDE902760496EA
:1045800000F0B2F9044600205AF83010A94203D0D6
:1045900001300428F8D101E04AF83060B4BBB5F529
:1045A000405F05F58055DBD342F2F470C2F20000A3
:1045B000006858B300264FF0FF380DF1040A0027B9
:1045C00016E000BFFEE700BFFEE700BFCDF8188091
:1045D000A959D9F804205046FFF73EF842F2F4708A
:1045E000C2F2000000680137874206F10C060DD2C6
:1045F000DBF8005005EB0609D9F80830002BE5D1AF
:10460000D9F80400FBF75AFE0346DFE700F03CF957
:10461000204607B0BDE8F08FF0B58FB0164642F6E1
:104620001512C2F200021278C2B11D460F460446AE
:1046300000F026F901A9204600F0CAFAB0B1002D19
:104640001CBF04982860049CA64238BF34468FB132
:104650000E983946224600F039F90BE04BF6B0309F
:10466000C0F6000000F0E8F8002405E00024002D6A
:1046700018BF2C6000F008F920460FB0F0BD000014
:104680002DE9F04F97B042F61410C2F200004FF03F
:10469000010A43F2CD574FF0000980F800A0C0F6A0
:1046A000000703A802AA00210023CDF80890CDE955
:1046B000007903F0E9F90298042804D14EA000F033
:1046C000BBF8FFF729FF00F0DBF809AC44F24568BE
:1046D00042F6880B4FF0FF36671CC3F23408C2F273
:1046E000000B04960498411C0ED006990A03013170
:1046F00008BF4FF480521518B5F5804F28BF3546D6
:10470000681C04D14DE000BF0025681C49D0280575
:1047100046D128462146102200F0D8F80A98049580
:10472000404505902CD10B980221069000208DF871
:104730000CA000BFCA08A25C01F007039A40120651
:1047400005D501300328A1F10101F3D10320C0F107
:1047500003008DF80D000020022100BFCA08BA5CDA
:1047600001F007039A40120605D501300328A1F194
:104770000101F3D10320C0F103008DF80E0002E027
:104780008DF80C9006969DF80C000128AAD19DF892
:104790000E000328A6D18BF800A000F0EFFAA1E7E5
:1047A000FEE743F27553C0F6000309A8002100227A
:1047B000002600F06FF99BF80000012810D143F2A9
:1047C0007554C0F6000409AD00F0D8FA284600215F
:1047D0000022234600F05EF99BF800000028F3D188
:1047E00042F61410C2F20000067000F04DF80020EE
:1047F00017B0BDE8F08F00BF5761726E696E673AFF
:1048000020416C6C20736563746F7220686561640D
:10481000657220636865636B206661696C65642EF0
:104820002053657420697420746F20646566617517
:104830006C742E0A0000000083B0B0B581B004464D
:1048400005A80EC005A800900AA000F05DF842F689
:104850001625009AC2F200052846214603F006F903
:1048600006A0294600F050F801B0BDE8B04003B002
:10487000704700BF5B466C6173685D002573000084
:10488000EFF3108072B6704762B67047B0B5044659
:10489000000500D0FEE70D4603F0FCFF21462A4646
:1048A00003F0A2FE002818BF0120B0BD80B540F281
:1048B0008433C2F200034BF2FC721B88C0F6000284
:1048C00002600B6003F0ECFF002080BD70B5144661
:1048D0000D46064603F0DEFF314622462B4604F025
:1048E00071F8002070BD000070B514460D460646F4
:1048F00003F0D0FF314622462B4604F0A3FC0028EB
:1049000018BF032070BD000083B080B581B084461D
:1049100003A80EC042F6162003AAC2F200006146A8
:10492000009203F0A3F801B0BDE8804003B07047E7
:104930002DE9F04F83B0154642F61512C2F200027F
:104940001278002A6BD00E460446FFF799FF002E1E
:104950006FD02046FBF7B2FC284400F1180743F261
:104960006C30C2F200003946FEF766FB42F6880A58
:10497000411CC2F2000A0BD19AF8001041B100F0BC
:10498000FDF943F26C30C2F200003946FEF754FBE9
:10499000013055D043F23437C2F200072046394681
:1049A00000F016F9814600284CD0386BDF218DF8D5
:1049B0000B100DF10B0101224FF0010BFFF794FFDB
:1049C00042F2F871C2F2000181F800B0D8BBD7F80A
:1049D000308001906BF30B080DF10B014046012272
:1049E000FFF774FF9DF80B100020022202F007036E
:1049F00001FA03F31B0605D501300328A2F10102D9
:104A0000F4D10320022801981DD1BF208DF80B009E
:104A10000DF10B0140460122FFF766FF13E04BF654
:104A2000B030C0F60000FFF707FF072003B0BDE875
:104A3000F08F204600210122FEF7BAFF044622E053
:104A4000062420E0002040B943F26C30C2F200009E
:104A5000214632462B46FEF7FFFDB0FA80F14909A8
:104A600001EA0901012907D143F23431C2F2000100
:104A700020460122FEF79CFF04469AF80000012818
:104A800008BF00F07BF9FFF7FFFE204603B0BDE84A
:104A9000F08F00002DE9F04F8BB007464FF0FF304C
:104AA00002900DF11C08DDF810909DF805001C46E1
:104AB00092460E4608F1010B4FF0FF350090681C3E
:104AC00010D04FEA093019F1010108BF4FF48050AE
:104AD0000544B5F5804F4FF0FF3028BF0546681CF0
:104AE00003D170E00025681C6DD028056ED12846E2
:104AF00041461022FFF7EAFEDDF820C044F245608F
:104B0000C3F2340084450295CDF80CC032D1DDF8F3
:104B100024900120002102228DF80400CDF810908D
:104B2000D30818F8033002F0070003FA00F000067B
:104B300005D501310329A2F10102F1D10321C1F10F
:104B400003000021022200908DF80500D0081BF818
:104B5000000002F007039840000605D50131032943
:104B6000A2F10102F2D10321C1F103008DF8060088
:104B70004CB9A4E700204FF0FF398DF80400CDF8C0
:104B80001090002C9BD044F24560C3F23400844561
:104B900095D1009800F0FE0002287FF490AF4FF00E
:104BA000FF30386301A8394600F070F9411C3863C2
:104BB0003FF485AF384601F0D3FB384631465246C4
:104BC000A0470028EED00BB0BDE8F08FFEE7000054
:104BD0002DE9F04F89B000918246FBF76FFB8146CB
:104BE000002051464A460025FFF74AFC42F6080BD2
:104BF000040C0126C2F2000B01AF08E00F2D05F1F5
:104C000001054FF0000638BF0126102D23D00BEB15
:104C1000C508D8F80400411CF0D03BF835108C4290
:104C2000ECD1183039462022FFF750FE5046394665
:104C30004A46FBF765FB0028E0D1D8F8040000994C
:104C40000863B8F802004FF6FF711030884238BF91
:104C50000146A8F80210F00704D0009801F080FB8C
:104C6000012047E0009C002044F63D538DF80400ED
:104C7000C0F6000301AA20465146FFF70BFF9DF83E
:104C80000400012836D1D4F83080002051464A462D
:104C90000024FFF7F5FB000C4FF0100C4FF6FF72ED
:104CA00008F10106102704E0A8423ED00134102C80
:104CB00023D03BF83450002EF6D0A8420BEBC405AD
:104CC00024D0696887F0100363EA0103002B3B4698
:104CD00008BF234601310BD06B8892B2002B1CBF5A
:104CE000591E6980698891423CBFA4460A46DDE7A7
:104CF0001F46DBE709B0BDE8F08F0F2F09D80BEB9B
:104D0000C701C1F804802BF837000BE0C5F8048018
:104D1000A6E7BCF10F0FA3D80BEBCC01C1F80480C0
:104D20002BF83C00002048809AE70BEBC4004FF0C2
:104D3000FF3141600021418092E7000070B50646D6
:104D4000084614460D46FBF7B9FAB17888420CD1F3
:104D500002467078012808D13078022805D106F182
:104D600010002946FBF7CCFA08B1002070BD0120E5
:104D7000207070BDFFF7DCBD704700002DE9F04FDB
:104D80008DB009AC44F245694FF0FF38671C4FF015
:104D9000000AC3F234094FF0010B0026CDF8108051
:104DA0000DE000BF8DF80CA0CDF818809DF80D0027
:104DB0009DF80C10012818BF5146C8B2064404984B
:104DC000411C0DD006990A03013108BF4FF48052EF
:104DD0001518B5F5804F28BF4546681C03D13CE047
:104DE0000025681C39D0280536D1284621461022D6
:104DF000FFF76CFD0A98049548450590D2D10B98B1
:104E00000221069000208DF80CB000BFCA08A25CF9
:104E100001F007039A40120605D501300328A1F1DD
:104E20000101F3D10320C0F103008DF80D00002033
:104E3000022100BFCA08BA5C01F007039A401206BB
:104E400005D501300328A1F10101F3D10320C0F100
:104E500003008DF80E00A9E7FEE7012E0CD843F6FB
:104E6000ED260027C0F6000603A80021002200233B
:104E7000CDE9006702F008FE42F68800C2F20000A9
:104E8000002101700DB0BDE8F08F00004278012ACA
:104E900004BF4FF0FF3070472DE9F04F89B00A6B27
:104EA0004368571C18D003F58057BA426AD84F7828
:104EB000012F0CBF8F680127BE1843F21432C2F2D3
:104EC000000240F6FF77146826EA0705AC4203F5B6
:104ED0007F6706D1002312E003F1100009B0BDE89E
:104EE000F08F4FF0FF3400BF022C0AD052F8083F79
:104EF0000134AB42F8D10023022C88BF0123526851
:104F000000E00123B51A18BF0125BE424FF0FF3261
:104F100033D22B4331D045F24B6AA6F10508341F3A
:104F20000DF10409C3F2340A354600908B46284639
:104F300049462022FFF7CAFC002100BF1B290DD8DB
:104F400008462944B94209D22118B14200F10101B1
:104F5000F4D359F800005045F0D10AE01C35009810
:104F600008F11C081C34BD424FF0FF325946DDD316
:104F700003E0009808EB01025946406800F58053B1
:104F80009A4204D94FF0FF3009B0BDE8F08F89682C
:104F90001046002908BF4FF0FF3009B0BDE8F08F80
:104FA0002DE9F04700284FF0000A4FD0894600292C
:104FB0004CD0D0F808A07AB1BAF1000F44D0DAF89A
:104FC00020104846FBF781F900283FD0DAF800A00E
:104FD000BAF1000FF3D137E0BAF1000F34D009F184
:104FE000010806E0012088B3DAF800A0BAF1000F4A
:104FF0002AD0DAF82040002CF4D0A14520D099F82E
:1050000000603046FBF708F9217807460846FBF7B1
:1050100003F9874210D1651C444600BF86B114F8DD
:10502000016B3046FBF7F8F815F8011B07460846F8
:10503000FBF7F2F88742F1D0381A0028D4D105E006
:1050400000200028D0D101E04FF0000A5046BDE812
:10505000F08700002DE9F043ADF2945D0DF2545558
:105060000F46DDF8B0850446284640211E4691468D
:10507000FBF7F1F8402F04D10DF2545021464022A5
:1050800010E009DD20463946424604F0C7FA0DF229
:1050900054504146142205E0012F05DB0DF2545017
:1050A00021463A46FBF7BEF800200DF2145100BF2E
:1050B0002A5C82F036020A5401304028F8D1DDF82B
:1050C0001405DDF818150DF1540CDDF81C25DDF87C
:1050D00020358CE80F00DDF82405DDF82815DDF813
:1050E0003425CDE91901DDF82C05DDF83015DDF8A2
:1050F00038350DF16C0CDDF84075DDF83C458CE879
:105100009F00DDF84405DDF84815DDF85025DDF891
:105110004C35012E2492CDE92213219005DB15A8F0
:10512000403049463246FBF77DF806F1400115A8AC
:10513000424604F073FA00200DF2D4412A5C82F05A
:105140005C020A5401304028F8D1DDF8D404DDF8BF
:10515000D814DDF8DC24DDF8E0348DE80F00DDF84C
:10516000E404DDF8E814DDF8F424CDE90401DDF809
:10517000EC040DF1180CDDF8F014DDF8F834DDF86E
:105180000075DDF8FC648CE8CF00DDF81025DDF853
:105190000405DDF808150F920CAA6C46DDF80C35F5
:1051A0000BC204F1400041461422FBF73BF82046B5
:1051B0005421424604F032FA0DF2945DBDE8F083CA
:1051C00080B584B042F6161216204FF48071C2F2F8
:1051D0000002CDE90021029040F6680041F6493214
:1051E0004FF0640CC2F200000AA1C0F600020023D6
:1051F000CDF80CC002F000F800281CBF04B080BD40
:1052000040F66800C2F2000004B0BDE8804002F041
:10521000A7B800BF696F5F7461736B002DE9F04F31
:1052200083B0814600284FF0010000F0BB800E469D
:10523000002900F0B7809346002A00F0B3804FF0B9
:105240000008002505EB450456F82410002900F05D
:10525000A8804846FEF7B0F890B106EB840A0746EE
:105260009AF80A0005283DD8DFE800F016030C3E46
:105270000329DAF80400002850D0796901704DE064
:1052800004204CE0DAF80440002C47D0D7E90601AE
:10529000FBF7CBFB207041E0DAF8040010B3BAF85A
:1052A0000800F8B13846FEF7A9F8D8B1DAF80410CA
:1052B000BAF808203846FFF7B1FF98B92EE0384613
:1052C000FEF792F870B138465C460296FEF75AF83F
:1052D0001FFA80FBBBF10A0F2AD901204FF000080A
:1052E000A34656E001201AE0DAF80400B0B13846CF
:1052F000FEF78EF890B13C692046FAF7DFFF0746CB
:105300003F28DAF8040028BF3F2721463A46FAF73B
:1053100089FFDAF8040000F8078000BF002040F0A1
:105320000400042841D101355D45FFF48BAF38E01E
:10533000BBF1000F23D0CDE9009400244FF0000909
:105340000CE000BF3069FBF7A5F9DAF8041009F1A9
:1053500001090855D94504F1010417D23846214600
:10536000FDF7FAFF0028804618BF4FF001080BD068
:105370000646FEF74DF80028E4D17069E5E7052000
:105380004FF00108A34604E0012000E00520DDE91C
:10539000009B029EB8F1000F4FF0000818BF0020DC
:1053A000BDE7002003B0BDE8F08F012003B0BDE8E9
:1053B000F08F000041F2883001F064FFFAE700004E
:1053C000B0B54CF2FC544CF2F450C0F60004C0F6F8
:1053D0000000A04209D24CF2F455C0F6000500BF0F
:1053E00055F8040B8047A542FAD3BDE8B040FFF75B
:1053F000E1BF00002DE9F04F9FB0824600780228FF
:1054000032D1DAF83000DF218DF828100AA9012204
:105410000124FFF769FA42F2F871C2F200010C7040
:1054200010BBDAF830500AA964F30B0528460122B4
:10543000FFF74CFA9DF828100020022202F0070323
:1054400001FA03F31B0605D501300328A2F101027E
:10545000F4D10320022807D1BF208DF828000AA923
:1054600028460122FFF740FADAF8081018A8FDF7DD
:10547000E3FD834601303BD042F61410C2F2000037
:10548000007801281FD101AE30462121FAF7E3FE52
:105490009AF802200AF110013046FAF7F9FE0020CE
:1054A00044F63D538DF87B00C0F600030AA80DF1C9
:1054B0007B0231464FF00008FFF7ECFA9DF87B00C5
:1054C000002840F0F8809DF86100DAF8085043F2B7
:1054D00014390228C2F200090ED0012828D11998E7
:1054E000BF218DF828100AA90122FFF7FDF91FE05E
:1054F00006201FB0BDE8F08F1C98382802D3401B4F
:10550000372815D81998DF218DF828100AA901220B
:10551000FFF7EAF91999002059F830208A4203D0A0
:1055200001300428F8D103E04FF0FF3149F8301082
:105530007F208DF8040001A958460122FFF7D4F915
:105540002C1F4FF0000523D0CDF800B00BF1040B59
:105550004FF000080AAE00BF08F12000A042DAF8C0
:105560003000A4EB0807404438BF20270430314600
:105570003A46FFF7ABF90BEB080031463A46FFF726
:10558000B3F9B844A045E7D3DDF800B0804601E0A8
:105590004FF00008BF208DF8040001A958460122F1
:1055A000FFF7A2F99AF80220DAF80C100BEB0203CD
:1055B00040F6FF7019442BEA0000183181424FF089
:1055C000000300F5805788BF0123B9424FF0000760
:1055D00038BF012703EA0706042304E0844218D0F9
:1055E0000135042D0DD059F83540002EF6D08442F7
:1055F00014D083F0040767EA0407002F08BF2B4686
:10560000EEE7032B9EBF09EBC30749F8330079602F
:1056100009E04FF0FF3049F8350004E009EBC5031D
:1056200049F8350059600AF1100100200025FEF705
:1056300027FF42F608024FEA104C10214FF6FF7385
:10564000C2F2000210270DE066889BB2002E1CBF3C
:10565000701E6080608898423CBF29460346013531
:10566000102D15D032F8356002EBC504B4450CD0CE
:10567000606887F0100666EA0006002E3E4608BF06
:105680002E460130E0D13746E9E7C4F804B012E015
:105690000F2F06D802EBC700C0F804B022F837C0BD
:1056A00007E00F2907D802EBC100C0F804B022F8C8
:1056B00031C000214180002051460122FEF778F9D7
:1056C00040461FB0BDE8F08F10B540F23C64C2F216
:1056D00000042046FCF7AEFB04F14800FCF7AAFBEF
:1056E00004F19000BDE81040FCF7A4BB2DE9F04F99
:1056F000C7B0B8B19B4604460E46012B02D0BBF59D
:10570000807F3CD194F8340018B32069911981420C
:1057100049D94BF6B540C0F6000003F02DF94FF023
:10572000050931E14BF6C8674BF676604BF65552EA
:105730004BF6EA63C0F60007C0F60000C0F60002B0
:10574000C0F6000340F2F911009703F0E9F800BF3A
:10575000FEE74BF6C8674BF676604BF655524BF6B4
:10576000F863C0F60007C0F60000C0F60002C0F6FD
:10577000000340F2FD11009703F0D2F8FEE74BF66C
:10578000C8674BF676604BF65552C0F60007C0F678
:105790000000C0F600027EA340F2FB11009703F068
:1057A000BFF800BFFEE7A16A04F1200819B1404626
:1057B000174688473A46002A00F0BE805098049267
:1057C000CDE902B0D4F824C006208DF81A01404675
:1057D0000DF58D710122002300270097E0478146D7
:1057E00020B1B9F1000F1FD111E000BF656A05209B
:1057F0008DF81B0140460DF21B1101220DF2191309
:1058000001270097A8478146B9F1000F0CD19DF8F8
:105810001901800708D44BF69A50C0F6000003F037
:10582000ABF84FF0020900BFB9F1000F40F08E80D5
:1058300094F835C0022003228DF81400BCF1000F4B
:1058400018BF04226FF00700514200EBC2024FF074
:10585000FF3305AD26FA02F7E81801338770C81840
:105860000130A2F10802F5D1B6FBFBF0042700FBE2
:105870000BF0801B0BEB000ADDF810B0D34538BFEE
:10588000DA46BCF1000F18BF05270399E819524604
:10589000FAF7C8FCD4F824C00AEB070240462946B0
:1058A000002300270097E047002848D1ABEB0A0B04
:1058B000CDF810B0D4F83CB0564409E0A06B0028F5
:1058C00018BF8047ABF10100BBF1000F834619D030
:1058D000676A05208DF81B0140460DF21B1101225D
:1058E0000DF58D7301250095B847814618B99DF8CF
:1058F0001A01C00706D0BBF1000FDFD14FF0040939
:105900000020E1E7B9F1000F03D19DF81A01C007AB
:1059100005D04BF63050C0F6000003F02DF8DDF84E
:1059200008B0B9F1000F11D1049800280398504431
:1059300003907FF447AF09E04FF0000906E081468D
:105940004BF60650C0F6000003F016F80420676A14
:105950008DF81A01002000900DF58D71404601224E
:1059600000230126B84758B90520676A8DF81B0146
:105970000DF21B110DF21913404601220096B84793
:10598000E16A09B140468847484647B0BDE8F08F14
:1059900077726974655F6772616E203D3D203120CA
:1059A0007C7C2077726974655F6772616E203D3D13
:1059B00020323536000000008446002200200BE033
:1059C0006FF02F0119440844032A02F1010218BFA5
:1059D0000001042A08BF70471CF80230A3F130010F
:1059E0000A29EDD3A3F14101062903D26FF0360154
:1059F000E8E700BFA3F16101052984BF00207047DB
:105A00006FF05601DEE70000CB68DA087C2A84BF1D
:105A1000002070472DE9F047D1E901720133BA4205
:105A2000CB6080F0C9800B689E5C7B2E40F0C48008
:105A300001328A6073B1BA4208D200BF9E5C202E48
:105A400004D8013297428A60F8D13A46BA4204BF7C
:105A5000013A8A608A68BA4280F0AC809B5C7D2BF8
:105A60000CD10025D1E90223013BCB604023C0E9E2
:105A70000253501C88600120BDE8F087BA4280F0D4
:105A80009980013A4FF00008002500268A6000BF87
:105A90000F46096982462820884700286FD02821B0
:105AA0000446FAF7D8FBA146002D1EBF346066609D
:105AB000A946B8683B6839460130B86073B14A6896
:105AC000904207D21E5C202E04D8013082428860AA
:105AD000F8D11046904204BF01388860204600F09B
